:020000040800F2
:10000000A04C002061020008333300084D030008B3
:1000100031330008B5270008F53D00080000000056
:100020000000000000000000000000007302000853
:10003000B727000800000000CF0200088937000839
:100040007B0200087B0200087B0200087B0200089C
:100050007B0200087B0200087B0200087B0200088C
:100060007B0200087B0200087B0200087B0200087C
:100070007B0200087B0200087B0200087B0200086C
:100080007B0200087B0200087B0200087B0200085C
:100090007B0200087B0200087B0200087B0200084C
:1000A0007B0200087B0200087B0200087B0200083C
:1000B0007B0200087B020008753800087B020008FC
:1000C0007B0200087B0200087B0200087B0200081C
:1000D0007B020008993A00087B0200087B020008B6
:1000E0007B0200087B0200087B02000800F002F897
:1000F00000F0A6F814A696E8000CB244B344DA4522
:1001000001D100F09DF8BAE80F000FA696E8300084
:10011000A5EB040504EB0607AAEB0704A7F101070A
:100120004FEA15154FEA3414A4F10104AC4201D38F
:1001300000F086F813F0010F18BFFB1A43F001031B
:1001400000F001F8DBE7184768D3000088D300000F
:10015000103A24BF78C878C1FAD8520724BF30C8F3
:1001600030C144BF04680C60704700007047000055
:100170000023002400250026103A28BF78C1FBD8B0
:10018000520728BF30C148BF0B6070476E2900F08E
:100190009E84702900F0078266290AF01B84652975
:1001A0000AF0188467290AF0158461290AF014847A
:1001B00003681B0A28BF41F08001692900F078819B
:1001C000642900F07581752900F072816F2900F0B3
:1001D0009B87782900F0D381E92900F03587E4294D
:1001E00000F03287F52900F02F87EF2900F098877B
:1001F000F82900F0D2810368DB0928BF41F08001B3
:10020000632900F0B686732900F0BB86E32901F06C
:10021000BD84F32901F0C284002070471FB500F0AF
:10022000E3FB0400002000210AF05EFA401C60603D
:10023000002000210AF06EFAE0601FBD10B510BD6D
:1002400001F0BEFD1146FFF7E9FF02F077F802F07A
:100250001FF803B4FFF7F2FF03BC02F023F800001D
:100260000948804709480047FEE7FEE7FEE7FEE74A
:10027000FEE7FEE7FEE7FEE7FEE7FEE70448054986
:10028000054A064B7047000071380008ED00000871
:10029000A0460020A04C0020A0480020A04800203C
:1002A000EFF3108072B6704780F310887047344ABD
:1002B0001368012B04D04FF001031360314A106022
:1002C000314A116031484FF0805101607047EFF3BF
:1002D000108272B62A48016891B14FF000010160A6
:1002E0002848016829B1EFF3098121E9F00F00687E
:1002F0000160254909680968B1E8F00F81F30988B0
:1003000082F310884EF0040E70471F4908601D49A3
:100310004FF0000008601A494FF0010008601C48C7
:100320001C49D0F8002041EA0201016017484FF053
:100330008051016018480068006880F3088861B641
:1003400062B6BFF34F8FBFF36F8F70471EF0040F7D
:100350000CBFEFF30880EFF3098020E9F00F40F8BD
:1003600004ED1EF0040F0CBF80F3088880F30988A9
:1003700000B508F021FB5DF804EB4EF0040E704769
:1003800098460020904300209443002004ED00E0B4
:1003900020ED00E00000FFFF08ED00E010B500F0E8
:1003A00023FB001D10BD00BF41A300001CB50C467F
:1003B000064B7B4469460090204600F0B0FD0446A1
:1003C0000020694600F0BEFD20461CBD8F0B0000DA
:1003D0000FB41CB50C0007AA009007D04142A142FF
:1003E00002D32044401E01E04FF0FF30074B7B4416
:1003F00069460190069800F092FD0021002C01D082
:10040000009A11701CBC5DF814FB00005D0B00002D
:1004100070B5044685690068C10601D5302600E044
:100420002026C00707D070BDD4E90121304690478F
:10043000206A401C20626D1EF6D570BD70B5044662
:1004400085690078C00707D170BDD4E9012120205B
:100450009047206A401C20626D1EF6D570BD70B5B5
:100460000C460546012A05D02878800600D5EA69A1
:10047000002302E0012305E05B1C934202D2E05C12
:100480000028F9D1A869E618C01AA861286A18449A
:1004900028622846FFF7BCFF04E0D5E9012114F8E3
:1004A000010B9047B442F8D32846FFF7C7FF70BD51
:1004B0002DE9F0410646002410687529314616A53D
:1004C00010D000F099FA002802DA404213A507E0A4
:1004D00031688A0701D512A502E0490704D511A5A4
:1004E000012401E000F091FA00210A2206F124071C
:1004F00009E0B0FBF2FCB0FBF2F302FB1C00303071
:1005000078541846491C0028F3D123462A46304621
:10051000BDE8F04100F082BA000000002D000000AC
:100520002B00000020000000F0B40D4601880905F2
:1005300002D5214C7C4402E01F4C7C440E34002147
:1005400000F1240608E002F00F071209E75D42EA15
:1005500003721B097754491C52EA0307F3D102784E
:100560000023120704D5702D06D009B102231134DF
:100570002246F0BC00F052BA01231034F8E770B5FF
:1005800004460D462146106800F03FFA024629460F
:100590002046BDE870400023C6E7D21D22F00703C5
:1005A000D3E90023C0E70368126843F02003036027
:1005B0000823C3610023B7E7A0A500002DE9F05F81
:1005C000894604464FF0000ADFF874B1FB44C0F8D6
:1005D00020A02046E1688847002874D0252806D04E
:1005E000D4E901219047206A401C2062F1E70026EF
:1005F0005F462046E16888472028054607DB312D05
:1006000005D2781910F8200C08B10643F1E7B007BD
:1006100001D526F00406C4F81CA00027C4F818A0D1
:100620002A2D09D0284609F0F2FF38B304EB8708D9
:10063000303DC8F8185019E059F8041B204604EB67
:1006400087029161E1688847012F054618D1E0696A
:10065000002820DA26F020061DE0D8F8180000EB6C
:10066000800005EB40003038C8F818002046E168EB
:100670008847054609F0CBFF0028EED1012F0AD0AC
:100680002E2D08D12046E16888477F1C0546022FA1
:1006900046F02006C4DBA069002803DA404246F099
:1006A0000106A061F00701D026F010066C2D0BD0DA
:1006B000682D09D04C2D39D06A2D35D0742D35D008
:1006C0007A2D33D016E038E0E1682F46204688477F
:1006D000B842054609D16C2F26D04FF48060E168FE
:1006E000064320468847054604E06C2F1AD04FF495
:1006F000807006430DB3A5F14100192802D82035BA
:1007000046F400664A462946204626604E46FFF7D4
:100710003DFD80B101280BD0F61D26F0070000F149
:10072000080956E74020E4E78020D8E70020D6E714
:1007300006F104094DE7284652E7206ABDE8F09F1C
:1007400030A5000070B5064600F052F90468054671
:1007500030460A22002100F069FF2C6070BD401E67
:10076000CAB210F8011F8A4202D00029F9D1002034
:10077000704730B505460B462A4613F8014B12F870
:10078000010B08B1A042F8D01CB1002802D06D1CAA
:10079000F1E7284630BD40EA010310B59B070FD1B1
:1007A000042A0DD310C808C9121F9C42F8D020BAE1
:1007B00019BA884201D9012010BD4FF0FF3010BD99
:1007C0001AB1D30703D0521C07E0002010BD10F867
:1007D000013B11F8014B1B1B07D110F8013B11F82D
:1007E000014B1B1B01D1921EF1D1184610BD40EAEE
:1007F0000103024630B59B0710D14FF0013400E0F1
:1008000008C208C91D1B9D4315EAC41FF8D013F088
:10081000FF0102F8011B0DD01B0AF8E711F8013B9C
:10082000002B02F8013B05D011F8013B002B02F828
:10083000013BF3D130BD10B5431C02E010F8011BA1
:1008400071B18107FAD14FF0013202C88C1A8C4382
:1008500014EAC211F9D0C01A0A0603D0C01E10BD96
:10086000C01A10BD0A0401D0801E10BD0902FCD0C0
:10087000401E10BD40EA010370B59B072ED14FF01A
:100880000136042A2AD308C810C99D1B9D43121F94
:1008900015EAC61517D0D8B2E1B2401A50EA056180
:1008A00010D198B2A1B2401A50EA05410AD123F002
:1008B0007F4024F07F41401A50EA052102D1180EF2
:1008C000A0EB146070BDA342DBD018BA21BA8842F5
:1008D00001D9012070BD4FF0FF3070BD0AB9002072
:1008E00070BD10F8013B11F8014B63B1A3420AD16E
:1008F000521E08D010F8013B11F8014B1BB1A34266
:1009000001D1521EEDD1181B70BD10B5044610F078
:10091000030F08BF11F0030F40F015804FF0013EA8
:10092000121FC0F20E8051F8043BA3EB0E0C2CEA10
:10093000030C1CEACE1C08BF40F8043BF0D0A1F128
:10094000040102F10402521E08DB11F8013B00F819
:10095000013B002BF7D1114600F0D2FE204610BD1E
:100960004FF0013C50F8042B51F8043B9A4221D13E
:10097000A2EB0C03934313EACC1317D150F8042BCA
:1009800051F8043B9A4215D1A2EB0C03934313EAAE
:10099000CC130BD150F8042B51F8043B9A4209D1E7
:1009A000A2EB0C03934313EACC13DBD04FF000000F
:1009B000704700BFD01A01BAB1FA81F101F01801F5
:1009C00022FA01F0CB40DBB2C0B2C01AC1F1200163
:1009D0002CFA01F3D11A914311EAC311E6D1704701
:1009E000704770477047000000487047B80000200B
:1009F000004870479800002009684A0501D540B2B8
:100A00007047C905FCD500B2704709684A0501D591
:100A1000C0B27047C905FCD580B270472DE9F047D8
:100A20000D4699469246044600F12408016888065E
:100A300004D5E06921F01001216000E00120A84206
:100A400001DD471B00E00027A1697A1902EB0900CC
:100A5000081AA0612078C00602D42046FFF7D8FC0F
:100A6000002608E0D4E901211AF806009047206A20
:100A7000401C761C20624E45F4DB2078C0060AD567
:100A80002046FFF7C5FC06E0D4E90121302090475D
:100A9000206A401C2062381EA7F10107F4DC07E041
:100AA000D4E9012118F805009047206A401C206213
:100AB000281EA5F10105F3DC2046FFF7BFFC2078D6
:100AC000000602D50220BDE8F0870120FBE711688F
:100AD0000268006A530501D508700AE0D30501D504
:100AE000088006E0130603D5C217C1E9000200E042
:100AF0000860012070472DE9FF4F0C461E464FF05D
:100B0000FF378BB0D2E90001DDF860800A908A4699
:100B1000C1F30A5505B93D46002108464FF00000D3
:100B2000BAF1000F00F4400005DA00EB80004FF44A
:100B3000400101EA50004FEA9059B9F1010F00DD80
:100B4000B9460A9850EA4A000ED044F61050A5F271
:100B5000FF3545432F14B8F1000F1ED07542291EF2
:100B60001EDDC9F100021CE0B8F1010F4FF00000DA
:100B700001D0302103E0F24305E02154401CB04293
:100B8000FBDB30460022002121540B99C1F808807C
:100B9000C1E900200FB0BDE8F08FBD1B6D1CDEE782
:100BA0004A4600DA694206A801F04CF806AB93E821
:100BB000070003AB83E8070050460A9909F05EF886
:100BC0008DE80700A0F500501F3800900398002D15
:100BD0000ADD42F21F014A460844002303A903909C
:100BE000684609F009FB09E0A0F500504A461F38A5
:100BF000002303A90390684609F028FB8DE807004D
:100C00000004000C03D04FF0FF30410800E0104614
:100C1000B8F1000F03D00022009215461EE0751EA9
:100C200005D400F0A6FD303262556D1EF9D5B346ED
:100C30000122084302D000227F1C04E020783028E3
:100C400001D100227F1E002A099784D01DE0112DBA
:100C500007DA00F08EFD303262556D1C50EA010259
:100C6000F5D1084302D00098C8B10EE00021681EFB
:100C700005E0235C625C63542254401E491C81429F
:100C8000F7DBAB46A81B401E0990002004F80B00C0
:100C90000B98099AC0F80880C0E9002B7AE7112662
:100CA0004FF0000857E72DE9F04F88460446D21D63
:100CB00022F0070191B0D1E90001CDE90A0109F064
:100CC00011FC02460B98C00F01D02D2007E02068D0
:100CD000810701D52B2002E0202101EAC000032A70
:100CE000099001D0072A05DB03464146204600F063
:100CF00003FF0BE12078800601D5E06900E00620C3
:100D0000B8F1650F814606D0B8F1660F18D0B8F17A
:100D1000670F70D131E00020B9F1110F009001DBB5
:100D2000112301E009F101030AAA01A90CA8FFF7A8
:100D3000E2FEDDE90C70002609F10105834647E07B
:100D400001204B4600904FF000470AAA01A90CA8C9
:100D5000FFF7D1FEDDE90DB00C995D46002610B914
:100D600009F101000D18B9EB050003D4C0F1FF36FD
:100D700009F10105A5EB09002BE0B9F1010F01DA3A
:100D80004FF001090020B9F1110F0090484601DD34
:100D9000112300E003460AAA01A90CA8FFF7ABFE45
:100DA000DDE90C704D4600268346207800070AD402
:100DB000AB4500DA5D4601A8012D04DD411911F8AB
:100DC000011C302907D04F4502DA17F1040F04DA6D
:100DD000012082460FE06D1EEEE7002F02DCED1BC6
:100DE0003E4403E0781CA84200DD7D1CB81B00F1E6
:100DF000010A4FF000472078000703D4AA4501DB21
:100E00004FF0FF3A0021B7F1004F0DF143088DF884
:100E1000431024D002202B23002F01DA7F422D2300
:100E20000A21021EA0F1010000DC5FB197FBF1FC7A
:100E300097FBF1F201FB1C7C17460CF1300C08F813
:100E400001CDEEE7A8F1010003702188090501D565
:100E5000452100E06521A0F1010800F8011C099876
:100E60000FA9A1EB0807FF1D00B10120411901EBFB
:100E7000EA70A1693844081A401EA0612078C006B3
:100E800002D42046FFF7C4FA099828B1D4E9012119
:100E90009047206A401C20622078C00622D5204658
:100EA000FFF7B6FA1EE0002E04DBB34502DD01A811
:100EB000805D00E03020D4E901219047206A401C89
:100EC0002062761CAAF101005FEA000A0AD1FFF74E
:100ED0008BFDC0680168405CD4E901219047206A1D
:100EE000401C2062281EA5F10105DCDC07E0D4E9E6
:100EF000012118F8010B9047206A401C2062381E1F
:100F0000A7F10107F3DC2046FFF798FA032011B0A0
:100F100041E6000001694A1C02610878704700B58B
:100F20008FB0CDE901310021059105497944CDE922
:100F3000031011466846FFF741FB0FB000BD0000EB
:100F4000E5FFFFFF0A6802F8010B0A607047D1E96C
:100F500000239A4202D2531C0B601070704710B5E8
:100F6000436913B1AFF3008001E0FFF778FA012085
:100F700010BD127800F124010A7000224A7001228B
:100F8000EDE711684FF0FF32E9E700002DE9FF5F60
:100F900015468A460446DFF8AC80F8440027D8E9B5
:100FA00000103E46CDE9001010E03AF816106A46EF
:100FB00002A800F0B9FE411C07D02178890603D5AC
:100FC000E269391891420DD80744761C20788006D2
:100FD00002D5E069B84205DDAE42E6DB3AF816001C
:100FE0000028E2D1A069C01BA0612046FFF710FADB
:100FF000D8E90010CDE90010002017E03AF81810E9
:101000006A4602A800F090FEB0F1FF3F81460BD087
:1010100000250DF1080B05E0D4E901211BF80500BE
:1010200090476D1C4D45F7D308F10100B042804652
:10103000E4DB206A384420622046FFF7FFF9BDE870
:10104000FF9F0000769B00002DE9F0418046D21DF5
:1010500022F007020025D2E90002F52915A614D0D6
:10106000011E72F1000106DA0023D0EB030063EBEE
:10107000020211A608E0D8F800108B0701D50FA6D0
:1010800002E0490701D50EA601251146002408F10A
:10109000240704E000F06DFB30323A55641C50EA3E
:1010A0000102F7D12B46324621464046BDE8F041C9
:1010B000FFF7B4BC000000002D0000002B00000072
:1010C0002000000030B4002100F1240408E002F008
:1010D0000705D208303542EA4372DB086554491CE3
:1010E00052EA0305F3D10468002310A2250708D5AE
:1010F00004F020040C4304D0C46901230CA2641E34
:10110000C46130BCFFF78ABC10B5044621461068A4
:10111000FFF77BFC02462046BDE810400023D1E7E4
:10112000D21D22F00701D1E90023CBE70000000027
:10113000300000002DE9FF4F06468BB00878FF28ED
:1011400006D0491C2D2805D000244FF0000908E0E6
:1011500000200CE00124F8E709EB8903491C00EBAF
:1011600043090878FF28F7D114B1C9F1000081467E
:10117000107800252C46AA4629462D2801D02B2878
:1011800004D1521C2D2813D0002082468B461078A3
:10119000FF280FD04FF0000C0A21521CA5FB01784C
:1011A00004FB018105FB0C11C5194BEB0104EEE7B3
:1011B0000120EAE7002108464FF00000BAF1000FD5
:1011C00002D000EB80004008C0F38157012F01DD01
:1011D0004FF0FF370E9955EA040009EB01080BD0D8
:1011E0004FF0020918F5FA7F16DA4FEACA70002F9D
:1011F000706008DD012007E04FEACA70C6E900B060
:101200000FB0BDE8F08F00203060FFF7F1FBC0F8B1
:1012100000901821084616E0B8F5FA7F18DD002F77
:1012200002DAF748784401E0F6487844D0E9001043
:10123000C6E9001040EACA707060FFF7D9FBC0F839
:101240000090142108460FB0BDE8F04F09F0BFBB75
:10125000002108464FF00000B8F10001099002DAC1
:10126000C7F1000200E03A4601DAC8F1000106A821
:1012700000F0E8FC06AB93E8070003AB83E8070047
:1012800044F23E005BEA04010090584604D144F267
:101290001E012C465D460091210C0904014306D134
:1012A0000099240444EA15442D041039009104F0F7
:1012B0007F41014306D10099240244EA15642D02BE
:1012C0000839009104F07041014306D100992401CE
:1012D00044EA15742D01091F009104F040410143B7
:1012E00006D10099A40044EA9574AD00891E0091CE
:1012F00004F00041084304D100986D196441401E78
:1013000000904FF001033A466846B8F1000FCDE96E
:10131000014503A902DD08F0AEFF01E008F081FFFE
:10132000BAF1000F04460D4601D084F000440021BC
:1013300008464FF00000099940F2FF77484010F04E
:101340000C0F07D124F00040284303D0C4F30A5007
:10135000B84212D1FFF74CFBC0F80090C4F30A501A
:10136000B8420AD1A8487844D0E90010C6E9001074
:1013700004F000410843706042E7C6E900543FE7CB
:101380002DE9FF4F1F464FF0000A4FF0FF3845464A
:1013900091B0D7E90146CDF83CA0FFF725FBC06826
:1013A0000168405C1090B96912986D1C8847396AD1
:1013B000814688470028F6D1B9F1FF3F0AD0002EB8
:1013C00024F4D06411DDB9F12B0F08D0B9F12D0F41
:1013D0000BD102E0404615B013E744F48064B969CC
:1013E00012986D1C8847761E8146600504A901D5B8
:1013F0002D2000E02B20002E01F1010B0DF1300813
:101400008DF810003FDDB9F1690F08D0B9F1490F2F
:1014100005D0B9F16E0F02D0B9F14E0F1CD13B4689
:1014200001A8009580E85002DDE912126FF0020079
:1014300009F038FBC11CCED10EE0B96912986D1CC1
:10144000884781461398761E44F4007405600F980F
:10145000401C002E0F9016DDB9F1300FEDD0B9F120
:10146000780F02D0B9F1580F0DD10F9801280AD189
:101470003B46CDE90054DDE91212001F029609F047
:101480000FFBC11CA7D1109989453ED144F08004BF
:1014900006E01399681CAAF1010A44F4007408607C
:1014A000B9696D1C1298761E884730288146F0D0A5
:1014B0002BE01099894505D1200603D4761E44F00F
:1014C000800418E0484609F0A2F808B3761E0DF132
:1014D00023029345A9F1300044F4007406D20BF8BE
:1014E000010B200607D5AAF1010003E0200602D473
:1014F0000AF101008246A00502D51399681C086014
:10150000B96912986D1C88478146002ED1DC53E0E2
:10151000002E51DDB9F1650F02D0B9F1450F4BD165
:10152000A00549D5B9696D1C1298761E24F4407443
:101530008847002E81460CDD2B2804D0B9F12D0FF1
:1015400007D144F48074B96912986D1C8847761EDF
:101550008146E00501D52D2100E02B2108F8011B73
:10156000CDF8008021E0761E0DF13901884544F464
:1015700000740CD2A9F1300010F0FF0088F80000D0
:1015800002D10099884509D908F1010806E0E00573
:1015900001D51E4801E042F20F708246B9691298E7
:1015A0006D1C8847814613980560002E04DD48466F
:1015B00009F02DF80028D6D1F96912988847FF2044
:1015C00053468BF8000088F8000000200A900B902A
:1015D00004AA0CA90AA8FFF7ADFDA00502D46FF07C
:1015E0000100F8E614F0240F12D0E0071CD138688F
:1015F000DDE90A12031D3B600068C0E9001213E038
:10160000B0C20000A2C2000066C10000F1D8FFFF16
:101610000AA9684608F08AFFE00705D13868009AF1
:10162000011D3960006802602846D4E62DE9F047C4
:1016300091460F4680460446002614F8015B2DB102
:10164000FEF7ACFE0068405DC007F6D12B2D02D03E
:101650002D2D18D0641E4A463946204600F0A2FAC5
:1016600027B13968A14201D1C7F800804FF00204C8
:1016700071050BD54042002803DDFFF7B9F904607E
:10168000A007BDE8F08746F48066E4E70028F8DAB2
:10169000FFF7AEF904606FF00040F2E710B5203AB2
:1016A000C0F00B80B1E81850A0E81850B1E818500D
:1016B000A0E81850203ABFF4F5AF5FEA027C24BFDF
:1016C000B1E81850A0E8185044BF18C918C0BDE8C8
:1016D00010405FEA827C24BF51F8043B40F8043B91
:1016E00008BF7047D20728BF31F8023B48BF11F846
:1016F000012B28BF20F8023B48BF00F8012B7047A0
:101700004FF000020429C0F0128010F0030C00F02A
:101710003183CCF1040CBCF1020F18BF00F8012B8F
:10172000A8BF20F8022BA1EB0C0100F023BB5FEA5D
:10173000C17C24BF00F8012B00F8012B48BF00F842
:10174000012B70470048704798000020B2F1200339
:101750000AD5C2F1200301FA02F120FA03F341EAAB
:10176000030100FA02F0704700FA03F14FF00000A5
:10177000704730B5B0F10A0271F100034FEA900EE4
:101780004EEA817EB0EB0E0061EB91014FEA101E34
:101790004EEA017E10EB0E0041EB11114FEA102EC4
:1017A0004EEA016E10EB0E0041EB11214FEA104E94
:1017B0004EEA014E10EB0E0041EB1141401841F191
:1017C00000014FEAD00040EA41704FEAD1014FEAF0
:1017D000810444EA907410EB800544EB01046D1918
:1017E00044EB0404521BA3414FF0000348BF0A32EC
:1017F00000D530BD401C41F1000130BD2DE9F04F56
:1018000004460D46D21D22F0070089B0D0E90097AA
:101810004846394608F066FE0246F80F01D02D23EF
:1018200007E02068810701D52B2302E0202101EA8F
:10183000C0038DF820300BB1012000E00020032A06
:10184000824601D0072A04DB2946204600F054F9DD
:101850003FE12078800601D40D2500E0E569C7F35B
:101860000A560D2D49DA00214FEA175B08464FF062
:101870000000002F00F4400007DA00EB80004FF476
:10188000400100EBD07001EA60008115012901DD03
:101890004FF0FF3100224FEA850CBCF1180F06D340
:1018A0001346ACF118004FF08052C24003E04FF4F1
:1018B000801323FA0CF30CF10C0CBCF1200F04D3B1
:1018C000ACF1200C09FA0CF001E007FA0CF0002949
:1018D0004FF0004801DD18B90FE00ED140450CD3A0
:1018E00019EB02095F4121B9404502D19F4329EA22
:1018F0000209BBEB175F00D0761C2088000502D5DB
:101900007B48784402E07A487844193808AA3023A2
:1019100002F80A30037C0AF10101002E0AF1020AE2
:1019200053546A4602DC4FF0300101E04FF03101C0
:101930004FF001088DF8001002D0A6F2FF3603E048
:1019400059EA470100D06B4E002D02DC21780907CF
:1019500004D54FF002082E218DF80110C446002155
:101960000BE0C7F303433F01C35C491C6D1E02F843
:101970000830052908F1010801DA002DF1DC002109
:101980000CE000EB1973491C1B786D1E082902F846
:1019900008304FEA091908F1010801DA002DF0DCDE
:1019A00021688B0602D516E0A8F10108E04505DDA7
:1019B00002EB080313F8013C302BF5D0B8F1000F0F
:1019C00009DD02EB080313F8013C2E2B03D10907B4
:1019D00001D4A8F10108002D05DD3E2102F8081010
:1019E0006D1E08F10108407C002E02F8080008F185
:1019F000010804DA2D20764202F8080002E02B20CC
:101A000002F808000A214FF47A70864208F10108B2
:101A10000BDB96FBF0F3303302F8083096FBF0F363
:101A200008F1010800FB136601E0642E0CDB642062
:101A300096FBF0F3303302F8083096FBF0F308F130
:101A4000010800FB136601E00A2E06DB96FBF1F0AD
:101A5000303002F8080008F1010896FBF1F001FBB4
:101A60001060303002F80800A16908F1010808EBA5
:101A7000050202EB0A00081AA0612078C00602D411
:101A80002046FEF7C5FC216A08AE01EB0A00206281
:101A900004E0D4E9012116F8010B9047BAF1010ADC
:101AA000F7D22078C00602D52046FEF7B1FC6E467C
:101AB00009E016F8010B3E280FD0D4E90121904728
:101AC000206A401C2062B8F10108F2D22046FEF7DD
:101AD000B5FC09B00320BDE8F08F206A28442062DD
:101AE00003E0D4E90121302090476D1EEBD3F8E7E5
:101AF0002992000002FCFFFF2DE9F0411F46044639
:101B000003260168072A01F4006004DB08B116A56A
:101B100005E016A503E008B115A500E015A521F024
:101B200010002060A069C01EA0610FB1401EA0611E
:101B30002046FEF76DFC4FB1D4E9012138469047AD
:101B4000206A401C2062C01C206206E0206AFAE77E
:101B5000D4E9012115F8010B9047761EF8D22046F2
:101B6000FEF76CFCBDE8F0814E414E006E616E00E8
:101B7000494E4600696E660010B5436913B1AFF374
:101B8000008001E0FFF702FA012010BD128800F189
:101B9000240182840022C2840122EDE711684FF003
:101BA000FF32E9E72DE9F05F824615468B460027B4
:101BB0000AF10104B9460078302801D09DB113E044
:101BC00014F8010B0127782803D0582801D045B11B
:101BD0000AE00DB1102D07D1002714F8010B1025D4
:101BE00002E0082500E00A250026B0460EE005FBCD
:101BF000080005FB06F101271FFA80F801EB1046EB
:101C0000B6F5803F00D3B94614F8010B294600F021
:101C100007F90028EBDABBF1000F05D00FB1641E05
:101C200000E05446CBF80040B9F1000F06D0FEF7B3
:101C3000DFFE02210160C81EBDE8F09F48EA0640B1
:101C4000FAE700002DE9F047814616468AB035488C
:101C500078440DC88DE80D0032487844801C03ACF0
:101C60000DC884E80D0041F69B300844372190FBF5
:101C7000F1F290FBF1F5A5F1800501FB12041B3C8C
:101C800002D56442012000E00020DFF898A08046E1
:101C90000027FA44AAF1BE0A0EE0E0070AD0324655
:101CA000684607EB470101230AEB810108F0CEFAF1
:101CB0008DE8070064107F1C002CEED1194F7F4483
:101CC000AE3F19E0E80715D007EB04100DF1180A34
:101CD00090E80E008AE80E00C068F04201D1981921
:101CE00008903246012306A903A808F0AFFA03AB17
:101CF00083E807006D10641C002DE3D14FF0010351
:101D000032466946B8F1000F03A802D008F074FA11
:101D100001E008F09BFAC9E90001C9F808200AB0FF
:101D2000BDE8F0876C8F00002DE9F04116460C46A7
:101D30000546FEF733FB036893F80101012807D03D
:101D4000FF2C12D8185D80B101202C70BDE8F08105
:101D5000D3F807013246214603F20713C718284675
:101D6000BC46BDE8F041002360474FF0FF30EDE78F
:101D70004FF0000200B5134694469646203922BF24
:101D8000A0E80C50A0E80C50B1F12001BFF4F7AF6F
:101D9000090728BFA0E80C5048BF0CC05DF804EB51
:101DA000890028BF40F8042B08BF704748BF20F8BF
:101DB000022B11F0804F18BF00F8012B70477047BD
:101DC0007546FFF7BFFCAE4605006946534620F056
:101DD0000700854618B020B5FEF750FABDE8204050
:101DE0004FF000064FF000074FF000084FF0000BD7
:101DF000AC46ACE8C009ACE8C009ACE8C009ACE846
:101E0000C00921F007018D46704710B5FEF7F0FDBF
:101E1000006810BD10B50446FEF7EAFD046010BD71
:101E20003A2800D2303820F02002412A01D3A2F112
:101E30003700884201D34FF0FF3070472DE9FF4F44
:101E40001F464FF03C0987B04FF00042DDE9141007
:101E500001F10108DDF858A002EA4050039000208B
:101E600005908346054604460490B969461E0898C5
:101E70008847AAF1010A0290BAF1000F3BDD0298EF
:101E80002E2815D01021FFF7CBFF00282EDB4FF0B6
:101E9000010B0599014317D0B9F1000F0BDB4A463E
:101EA000C117FFF753FC05430C43A9F1040905E0F2
:101EB000012004900BE008B145F0010501200590D8
:101EC000049820B9361D02E0049800B1361FB969A4
:101ED000089808F101088847BBF1000FAAF1010A30
:101EE0000290C9D00999C1F80080C5E7029870280E
:101EF00008D0502806D0F96908988847BBF1000F30
:101F000014D04FE0002002900120BBF1000F04909C
:101F100009D0B969089808F101088847AAF10109B0
:101F2000B9F1000F07DCF969089888476FF00100E4
:101F30000BB0BDE8F08F2B2804D02D280CD14FF02A
:101F4000FF300490B969089808F101088847A9F1A1
:101F50000109B9F1000FE6DD411CE4D00A21FFF7C9
:101F60005FFF0028DFDB029908F1010801EB810126
:101F700000EB41000290B969089888470A21FFF7F1
:101F80004FFF099AA9F10109B9F1000FC2F80080C9
:101F900001DD0028E7DAF969089888470499029872
:101FA00000FB016655EA040004D004F0404109003A
:101FB00002D006E0039898E0A40044EA9574AD00CE
:101FC000B61E04F00041080002D16D196441761E6E
:101FD000159810F0240F03D04FF00B095C4803E074
:101FE0004FF028096FF07D008246564507DAAAEBCC
:101FF00006018944B9F1410F01DD4FF0410901208B
:102000000021A9F10102FFF7A1FB024628400B467F
:102010002140084301D0012100E00021501E02911F
:1020200043F1FF3128402140084301D0012000E066
:1020300000200299834651EA0B014FD00021084647
:102040004FF00000039900F4400039B100EB80002C
:102050004FF4400100EBD07001EA600080150128C8
:1020600002DD4FF0FF3000E013D0401C36D0029864
:1020700060B3BBF1000F0CD14A4601200021FFF7ED
:1020800065FB28402140084301D0012000E00020EA
:10209000E0B101204A460021FFF758FB03464019F2
:1020A0000A4661412D1A8C4111D3B9F1400F09DD67
:1020B000159810F0240F02D0AAF1340603E0AAF11B
:1020C000170600E0761C00254FF0004406E05B1E7A
:1020D00042F1FF3220EA030521EA0204CAF10100BD
:1020E000B04206DA1B490398084301900020009093
:1020F0000EE0039AC4F3D321E80A0A43164940EAE2
:1021000044500A433146CDE90002684608F074FAAB
:10211000159810F0240F0BD01598C00715D138680A
:10212000DDE90012031D3B600068C0E900120CE00D
:1021300002A8694608F0FAF91598C00705D1386871
:10214000029A011D3960006802604046F0E6000016
:1021500002FCFFFF0000F07F0000F03F2DE9FF4F81
:1021600092461D4685B04FF00041DDE9124BDDE996
:1021700014727F1E01EA4B50414940F0FF4940EA8A
:102180000108002122F020004928049102D04E28A5
:1021900028D04CE03BA0012607C88DE80700A969BC
:1021A0000698641C88477F1E014606D41DF8060069
:1021B00018B121F0200181420BD0E96906988847C7
:1021C000032E34D0082E32D06FF0010009B0BDE8E4
:1021D000F08F761C032E01D0082EE0D1601CCAF8C7
:1021E0000000DCE7A9690698641C88477F1E2AD492
:1021F00020F02000412826D1A9690698641C884750
:102200007F1E20D420F020004E281CD1A9690698FA
:10221000641C88477F1E48F4002849F48009CAF8E6
:10222000004001D4282806D0E969069888475FEA6B
:10223000CB7012D022E0A9690698641C88477F1EE3
:1022400001D4002803DAE96906988847BCE7292801
:10225000F1D1641CCAF80040E9E71BF0240F07D055
:1022600028680499031D2B600068C0E9001805E088
:102270002868021D2A600068C0F800902046A5E783
:102280000000F07F494E46494E4954590000000075
:1022900010B50446AFF300802046BDE81040FDF7BE
:1022A000D8BF000001491820ABBEFEE7260002009F
:1022B000032A40F2308010F0030C00F0158011F872
:1022C000013BBCF1020F624498BF11F801CB00F84A
:1022D000013B38BF11F8013BA2F1040298BF00F89E
:1022E00001CB38BF00F8013B11F003033FF4D6A93E
:1022F000083AC0F0088051F8043B083A51F804CB82
:10230000A0E80810F5E7121D5CBF51F8043B40F847
:10231000043BAFF30080D20724BF11F8013B11F852
:1023200001CB48BF11F8012B24BF00F8013B00F896
:1023300001CB48BF00F8012B704700002DE9F043A6
:1023400085B0FDF7ADFF00F051FDDA4C206800F0DC
:102350000C0004283DD154F8040C01F0C5F94FD10C
:10236000206800F47410B0F5E81F6CD1D4480168FF
:1023700011F0060F0AD10168022262F30201016026
:10238000016801F00701022940F08980216841F4C9
:10239000E0612160216841F460512160216821F0F1
:1023A000F001216054F8041C890178D521680222CB
:1023B000C14E62F3010141F288322160316C236821
:1023C00003F00C03082B42D0336C5B1A9342F6D90E
:1023D00065E001F089F902D12068C003BBD454F84C
:1023E000040C40F4803044F8040CB348016C54F8F9
:1023F000042C9203B1D4026C521A642AF7D922E059
:10240000AE4900200860AC48026C54F8043C9B01C3
:1024100004D5036C9B1A022BF7D914E0226822F42E
:1024200000322260226822F4741202F5E81222605F
:1024300001220A60016C54F8042C920196D4026CBB
:10244000521A022AF7D9EFF3108072B6FEE701683C
:1024500001F00701032909D30168022262F3020196
:102460000160006800F00700022818D120680421EC
:10247000944D61F30A202060206820F460502060B1
:10248000216801F00C000828284614D1C1F38340CC
:102490008DA2C903105C06D4904948430BE0EFF3CA
:1024A000108072B6FEE721688BA26843C1F34041F9
:1024B000515CB0FBF1F02168DFF82482DFF8249250
:1024C000C1F3031118F80110C8403179C9F80000B0
:1024D0001020002918BF0F2000F0BAFC206802214C
:1024E00061F38F30206001F0FFF80ED12068216881
:1024F000C0F383400230C90304D52168890301D4A5
:10250000454302E0754900FB01F57748774B00270A
:102510000C214FF4E132C9F80050C0E90032C0E9A3
:102520000277C0E90471C0E906772168C1F303119D
:1025300018F8011025FA01F1C9F8001000F040FD6B
:10254000002840F0B480D9F800004FF47A71B0FB55
:10255000F1F00138B7EB106F08D16549F0224860FF
:10256000644802700020886007200860624C634D58
:10257000AC4202D201CC8047FAE76148C11C21F08D
:10258000030400F5405121F00301091B0A1822F051
:102590000305192D05D304F13800A5F11801814276
:1025A00005D257495AA006F09DFB002424E004F10F
:1025B0003B00002138224FF0000820F0030720469E
:1025C00006F07DFC4F4A0C2106F078FDE81B4EA278
:1025D000C7F80880A7622763A0F10C011838C4E986
:1025E00005276063E06144F00100C7E9004145E967
:1025F000021145F80C0DE562544D424A0321746501
:1026000005F1540006F05AFD05F168005049002418
:10261000C5E91A000120C5E91C1485F85D0006F023
:102620003BFE06F16400F480C6E919004948B4F5A0
:10263000807F04D00119015149600834F7E7002078
:1026400047494FF400620A23B0651420009042A06D
:1026500006F0C7FE06F052FF02AC0022204606F04C
:1026600079FE404D01212246284606F027FD202014
:102670001F213E4A4FF48073CDE900103A492846A5
:1026800001F050FC284606F039FF04A801F0F0FBE9
:102690000446F06506F0DCFD032084F8340004F104
:1026A0001C00FDF732FE002005B0BDE8F08300F00D
:1026B00083F800BF04100240F8000020600042428E
:1026C0000020024000127A000203040506070809F0
:1026D0000A0B0C0D0E0F10100102000000093D0046
:1026E0008CBF000814000020D00F002000480040DC
:1026F00010E000E023ED00E020D3000824D3000820
:102700009013002090D10008736D616C6C00000084
:102710006D656D20696E69742C206572726F722010
:10272000626567696E2061646472657373203078D6
:1027300025782C20616E6420656E6420616464726B
:1027400065737320307825780A000000740100203A
:102750000100FF00984400206D61696E00000000D8
:10276000516F00081810002021940008984500209F
:1027700010B501688A68D20701D1002010BD8A68AF
:1027800022F001028A60D84A136C8C68E407F4D006
:10279000146CE41A032CF8D38C68E407F5D0816A32
:1027A00041F010018162C16A41F00101C162012062
:1027B00010BD00BFFEE77047EFF3108072B6FEE772
:1027C00078B500210091D64991F82420012A04BF50
:1027D000022078BD4468012281F82420062C0ED8FE
:1027E00004EB840302681F25053B02FA03F49D40B5
:1027F0000B685E6B26EA05052C435C6317E00B68EB
:1028000004EB84020C2C09D8A2F1230400F077FF1A
:102810001E6B26EA04042C431C6308E0A2F1410469
:1028200000F06DFFDE6A26EA04042C43DC6202EB52
:102830004204092A19D980681E3C0725A04005FAE0
:1028400004F4DD6825EA04042043D86022F0010086
:10285000102813D11848A0F10804A34213D0886AA5
:1028600040F020008862012009E007221D6980688D
:10287000A24025EA0202A040104318610020002275
:1028800081F8242078BD03681B02F7D40368102A5E
:1028900043F400030360F1D19148924A0068B0FB11
:1028A000F2F000EB80004000009000980028E5D096
:1028B00000980138F8E700BF08240140F8B500216E
:1028C000894D974C00912E6C20688268D20557D4B0
:1028D0004168C90503D4C16A11F4700F30D0804833
:1028E000076800F05DFB3C4902223C4B0968C1F3DC
:1028F000813102EB4101B0FBF1F0B7FBF0F1206850
:10290000374F02693A4203D1C268364F3A423FD04C
:1029100002691A4203D1C268334B1A4242D0076996
:10292000324BFC221F423ED1C7681F4208BF5422CF
:1029300039E0296C891B652902D30168890741D5D3
:1029400001688907F5D56FF012010160A16A41F4B1
:102950000071A162806800F460210020B1F5602F51
:102960000DD1217B59B9A06A20F48070A062A06AC1
:10297000C00403D4A06A40F00100A0620020F8BDAA
:1029800084F82410A06A40F02000A0620120F8BD65
:10299000076929221F4206D1C368134F3B4208BF73
:1029A000142200E054225143009A8A42CBD22A6C6E
:1029B000921B652A02D3009A8A4203D3009A0132FD
:1029C0000092F1E7002084F82400A06A40F004009F
:1029D000A0620320F8BD00BF0410024092244912F7
:1029E00024499224244992009224490049922400C7
:1029F000B8B54B4991F82400012870D00020009010
:102A000008688268D20726D18268364B42F00102FC
:102A10008260334A1268B2FBF3F20092009A12B15C
:102A2000009A013AF9E7304A136C8468E40712D13E
:102A3000146CE41A032CF8D38468E407F5D1886A8F
:102A400040F010008862C86A40F00100C8620020AF
:102A500081F82400B8BD8A6A40F201339A4302F536
:102A600080728A62214A02F57F73984205D08C6A8F
:102A700024F480148C62446808E0146814F4702F05
:102A8000F5D08C6A44F480148C621468640504D513
:102A90008C6A012565F30D348C628C6A0025E40490
:102AA00044BFCD6A25F00605CD626FF00205002413
:102AB000056081F82440816801F46021B1F5602F40
:102AC00005D1984207D1116811F4702F03D08168A5
:102AD00041F4801102E0816841F4A0018160B8BD39
:102AE0001400002040420F00F800002004240140A0
:102AF00010B50B4C94F8240001280FD0012084F865
:102B000024002046FFF734FE28B9A06A41F20111E3
:102B100088430130A062002084F8240010BD00BF6B
:102B2000EC01002090F82110022915D110B50168A0
:102B3000D0E90F230C6824F00E040C600C6824F01C
:102B400001040C60012101FA03F3536080F82110A5
:102B50000021BDE8104002E0042181630121002230
:102B600080F82020084670472DE9F84F934A4FF02F
:102B7000000C4FF001084FF00F0990424FF0040293
:102B800008BF0322009200238D4AA2F57E7A31FA13
:102B900003F208BFBDE8F88F08FA03F212EA010752
:102BA00049D023F003025AF802B08D4A904208D06F
:102BB0008C4A904207D08C4A009E904208BF022661
:102BC00002E0002600E001260CF00C0209FA02F5F2
:102BD0009640FA430BEA0504B44217D1784C4FEA09
:102BE000930B266816402660666816406660754E30
:102BF000B64636681640CEF80060A6681640A66055
:102C00005AF82B6026EA05054AF82B50644606461A
:102C1000B7F5807F28BF203C28BF0436376809FA03
:102C200004F527EA0505042707FA04F42C43346069
:102C3000C4682240C2600CF1040C0133A7E700BF56
:102C40002DE9FC4F5D4A04234FF0000A4FF00108C4
:102C50004FF00F0E4FF00009904208BF032300937E
:102C600000250A6832FA05F408BFBDE8FC8F08FAAF
:102C700005F712EA070C00F09D804C68032C16D96A
:102C8000112C24D0122C26D04F4A944213D04F4AF4
:102C9000944210D04E4A94420DD04E4A94420AD0EB
:102CA0004D4A944207D04D4A944204D020E0DFE8D8
:102CB00004F00216191D8C6834B1012C14BF476151
:102CC00007614FF0080913E04FF0040910E0CC68E9
:102CD00004F104090CE0CC6804F10C0908E0D1F817
:102CE0000C9005E0CC6804F1080901E04FF0000900
:102CF00054460746BCF5807F28BF203C28BF0437D8
:102D00003B680EFA04F609FA04F4B34323433B602C
:102D1000CB79DB064ED54C4A136843F001031360B0
:102D20001368274A03F00103A2F57E742C4A01932D
:102D3000019B904225F0030354F803B008D0294AC0
:102D4000904207D0284A009E904208BF022602E027
:102D5000002600E001260AF00C03AA080EFA03F789
:102D600006FA03F3174E2BEA07073B4344F82230D9
:102D7000134B4F68FA029A6854BF22EA0C0442EAE5
:102D80000C049C60BA02326854BF22EA0C0442EA86
:102D90000C043460BA035A6854BF22EA0C0442EAB5
:102DA0000C045C60FA031A6854BF22EA0C0242EA7F
:102DB0000C021A600AF1040A013552E700140140BE
:102DC000000401400C04014000001110000012102A
:102DD000000021100000221000003110000032100D
:102DE00000080140000C014000100140E0B55348CC
:102DF0004FF6FF02016841F010010160614801686F
:102E00001140104A114301600F2000F021F8D7480B
:102E10000222016841F001010160016801F0010135
:102E200001910199416841F080514160406800F092
:102E30008050009000980548016862F31A610160B3
:102E40008CBD00BF0003FA051810024004000140C9
:102E50007CB504465848816941F00401816181696B
:102E600001F0040101910199016801680668006898
:102E70003248006800F08AF80025314A314940F2B2
:102E8000E73316F4E066956418BF0126B040C2E946
:102E90000E5315642C4EB0FBF6F00138C2E90C104D
:102EA00092F86D600EB982F86C50022582F86D5070
:102EB0000D6825F47C750D60CB6288620120486145
:102EC0000B69DB0703D00B6923F001030B6182F868
:102ED000760082F86E0082F86F0082F8700082F847
:102EE000710082F8720082F8730082F8740082F830
:102EF000750082F86D0092F86D0001281CD1022047
:102F000082F86D00C86840F00100C860886800F071
:102F10000700062803D0086840F0010008600B484D
:102F20004FF080410F2C016006D81E200F2100F0C9
:102F30000FF8E148012101717CBD00BF0020024073
:102F4000EC0100200008004040420F0000E100E0DA
:102F500010B50C4A4FF0FF341268C2F30222D31EA0
:102F600082F0070238BF0023042A28BF042204FA93
:102F700002F29143044A9940090162F31F20017053
:102F800010BD00BF0CED00E0E400E00009480A4974
:102F90000A4A00680968C1F30221515CC8407047C1
:102FA00004480549054A00680968C1F3C221515C1B
:102FB000C840704714000020041002409CBF000865
:102FC00068B32DE9F04186B0044690F84100644DA5
:102FD00038B3242041F20C6684F841002068D4E91B
:102FE0000212C36823F40053C360036923F44053FF
:102FF0001A4302612269C36811436269B3431143F2
:103000001943C1604169A26921F4407111434161D2
:1030100005F54051884243D0FFF7B8FF42E0012058
:10302000704720684F49002784F84070CDE9047745
:10303000CDE90277884266D04B498842C9D14B48D6
:10304000016841F480410160016801F4804101910F
:103050000199016841F004010160006800F004007A
:10306000019003200590022003904FF4007002901D
:10307000019802AE28463146FFF7E2FD00203146B6
:10308000CDE903004FF4806002902846FFF7D8FD99
:1030900025200021FFF75CFF35482021016098E7DB
:1030A000FFF77EFF1921334D4843D4E90012920007
:1030B000B0FBF2F06422B0FBF2F303FB0500322513
:1030C00005EB0010B0FBF2F000F0F00200F00F0092
:1030D00002EB031210448860086920F490400861F4
:1030E000486920F02A004861C86840F40050C86070
:1030F00000202021606484F8411084F8421060634D
:1031000006B0BDE8F081194805F580660DF10808A4
:10311000416841F480214160416801F480210191BE
:103120000199016841F0080101604146006800F022
:103130000800019003200590022003904FF4806066
:10314000029001983046FFF77BFD4FF40060414646
:10315000CDE9037702903046FFF772FD39E700BFF3
:1031600000080140004800400038014018100240AB
:1031700004E100E09CFFFF0F2DE9F041044690F8C8
:10318000420020281CBF0220BDE8F081A1B11D46ED
:1031900000202223606484F8423020634648A285E0
:1031A000066CE285A068B0F5805F01D1206930B17E
:1031B0004FF000080F4604E00120BDE8F081002731
:1031C0008846E08D08B32046202100F031FAF0B99E
:1031D0005FB1A068B0F5805F0FD008B9206960B119
:1031E0002068406800F07F0009E020680027406800
:1031F0006FF35F2028F8020B03E02068406807F8AF
:10320000010BE08D0138E085DBE7002000E00320C2
:10321000202184F84210BDE8F08100BF2DE9F04183
:10322000044690F8410020281CBF0220BDE8F08130
:1032300099B100201D466064212084F841001E4899
:10324000A284066CE284A068B0F5805F01D1206999
:1032500030B14FF000080F4604E00120BDE8F081D6
:1032600000278846E08CA8B12046802100F0E0F9D4
:10327000E0B927B117F8010B2168486006E038F87B
:10328000021B206800276FF35F214160E08C01384A
:10329000E084E7E72046402100F0CAF9202184F8C5
:1032A0004110002818BF0320BDE8F081202084F8D9
:1032B00041000320BDE8F081F8000020F8B5174F69
:1032C000154C4FF400754FF4807625602660B847A2
:1032D0006560B84766603846BDE8F840004700BF03
:1032E000B0B50D4C4FF400754FF4807065602060F0
:1032F00000F016F82560B0BD70B5084E064C4FF4CE
:1033000000702060B0474FF480752560B04765605D
:103310003046BDE870400047100C014021330008E2
:1033200000BF00BF00BF00BF00BF00BF00BF7047AD
:10333000FEE7FEE7274900200022082A08BF00F028
:103340001DB80023802B03D001F833000133F9E7C7
:1033500001310132F1E700BF10B501F0070301248C
:10336000C908002A1B4A04FA03F302EBC000425CBE
:103370000CBF9A431A43425410BD00BFF8B5154D17
:10338000154E0024082C08BFF8BDA4F15000C0B2AF
:10339000B04700200027B0471020B047FFF78EFF4E
:1033A000782000F0D1F9FFF7A7FF402000F0CCF91A
:1033B000FFF7A2FF802F07D015F8370000F0C4F9FF
:1033C000FFF79AFF0137F5E7FFF78AFF0135013470
:1033D000D8E700BF64020020993500082DE9F04FBE
:1033E00085B01C468A468146082B01D1062709E094
:1033F000012361074FEAD40118BF03EBD40163082E
:103400005943CFB261080026CDF80C900291A2F189
:103410002001CAB2244902EB420301EB43010193AC
:1034200004911F4901EB02110091BE4235D0082CD6
:1034300001D1049809E0102C06D00C2C2DD1019854
:10344000184901EB800000E0009830444FF000087C
:10345000554690F800B0B8F1070F0ED85FFA89F022
:10346000E9B20BF00102FFF777FF5FFA8BF008F18A
:10347000010801354FEA500BEDE709F10109082C6D
:1034800009D003995FFA89F0029A401A904204BF6A
:103490000AF1080A89460136C7E705B0BDE8F08F92
:1034A0009CB9000828B5000800B300082DE9FE4FBC
:1034B000894601218346A3F110005C07C0F3C400D4
:1034C0005E464FEAD30440EA431018BF01EBD30431
:1034D00004FB03F100270193C4B22148029100EBE1
:1034E000421000900298874231D0062C2FD8DFE896
:1034F00004F00406082E2E2E0A00009804E0174857
:1035000002E0154800E0134838444FF0000A4D46E9
:1035100090F80080BAF1070F0DD8F0B2E9B208F0C8
:103520000102FFF719FF5FFA88F00AF1010A01357D
:103530004FEA5008EEE701360199F0B2A0EB0B001C
:10354000884204BF5E4609F108090137CAE7BDE8B1
:10355000FE8F00BF00B0000880AF000838AF000841
:10356000D8AD00082DE9F0415E081C461546884696
:103570000746082B08BF06262A78A2F12000C0B211
:103580005E2888BFBDE8F081F8B241462346FFF7C8
:1035900025FF37440135EFE770B50446FFF78EFE8F
:1035A000074D7820A847074EB0470020A847B047EE
:1035B0002046A847B047BDE87040FFF791BE00BF66
:1035C00049370008F9320008206850E8030F2168E5
:1035D00020F0100041E80302002A7047206850E8FC
:1035E000050F216820F0010041E80502002A70471C
:1035F000C82005F047BF3F22FEF75ABE4FF4807146
:10360000FCF7E6BE20460021012328474FF0FF309B
:1036100080BD2046FDF7A4B9B0F91014B1F1FF3F09
:103620007047009405F0DDBE4FF4FA7301F06EBFF1
:1036300032462B4600F0FCB9206850E8050F21689F
:1036400020F0400041E80502002A7047307801214F
:1036500085F8350001FA00F0A86370474FF4FA705E
:1036600005F010BF642005F00DBF2046FCF71CBE1E
:10367000D8F8080005F08ABC386840F004003860CB
:10368000386800F0040070479DF83890DDF840A0DD
:103690004FF0000803907047044600202072FCF7AA
:1036A000FFBD05F1100000226FF3DF314254704777
:1036B0004FF4FA73054601F029BF05F16C000021B3
:1036C0000123304704F1C000FF22FDF71EB922217B
:1036D000FDF745B804F140007F22FDF7DFBF206809
:1036E00050E8030F21687047206800F00C0008289C
:1036F00070473122FDF74FB8484605F0F3BA02682B
:103700001F2602FA04F506FA04F470474FF47A70A3
:1037100005F0B8BE08210822334605F0E3BA284672
:10372000FCF7C2BDD1F82CC0BCF1000F7047214698
:103730000546A06951F8142F5060A069A16102608C
:103740007047214605F0CEBA2DE9F0410D4E0446F2
:1037500000254FF400784FF48077072D88BFBDE82F
:10376000F08160B2B0F1FF3FCCBFC6F80480C6F86C
:103770000080FFF7D5FD3760FFF7D2FD7760013598
:103780006400EAE7100C01402DE9FE43FCF788FDD8
:10379000C04D697901316971FCF786FDFCF780FD48
:1037A0002A6DE96D01322A650A6C013A0A6402D079
:1037B000FCF77AFD0BE0CA6B0A6491F8342042F002
:1037C000080281F83420FCF76FFD05F0B7FC01AE6C
:1037D000CDE901662F6DFCF763FD804623488146E5
:1037E000284650F8644F844234D060694946381AFC
:1037F00048452FD8D4E9001048606068016014F88B
:103800000B0C246081075CBF00F0FE0004F80B0C79
:1038100001984460C4E90006D4E902100194884785
:103820002F6D0198B042DBD0D4E900104860606889
:10383000016014F80B1CC4E900448807D0D5C80700
:10384000CED0A4F1140001F0FE0104F80B1C05F029
:1038500095FEC5E74046FCF727FDFCF721FD697999
:1038600001396971BDE8FE43FCF71EBDFEFFFF7F15
:103870007047000010B52A4B186BC16802699407A5
:1038800008D58C0706D56FF002040461002483F884
:103890004C408469540708D54C0706D56FF00404E2
:1038A0000461002483F84C408469140708D50C0790
:1038B00006D56FF008040461002483F84C40C46905
:1038C000D40608D5CC0606D56FF010040461002498
:1038D00083F84C40C369D3070BD0CB0709D06FF0F6
:1038E000010303610F4B984203D16A4B1C6C0134F6
:1038F0001C64130604D50B0644BF6FF080030361FC
:10390000530604D54B0644BF6FF040030361920693
:1039100004D5890644BF6FF02001016110BD00BFCE
:10392000EC01002000080040406A0021C185C184EC
:103930007047016851E8031F026821F4907142E862
:103940000313002BF5D1016851E8051F026821F02F
:10395000010142E80513002BF5D1016B012909D1C2
:10396000016851E8031F026821F0100142E80313C7
:10397000002BF5D1202180F842100021016370470F
:1039800081B02A4890F8421022294CD18268B2F5C1
:10399000805F09D10269816A52B9026852686FF387
:1039A0005F2221F8022B0DE00369816A1A4302D1DC
:1039B0000268526803E00268526802F07F020A70EF
:1039C000816A01318162C18D0139C18509042AD121
:1039D0000168CA6822F02002CA60CA6822F48072B4
:1039E000CA604A6922F001024A61202180F842102F
:1039F00000214163026B012A15D10163016851E87E
:103A0000031F026821F0100142E80313002BF5D1D7
:103A100000680168C90606D500210091016800917F
:103A200040680090009801B0704700BF880F0020E8
:103A30002DE9FC410568F84F80465E1C2868084067
:103A4000884223D0002EF9D0386C841A03209C427F
:103A50001AD8CBB1E8684007F0D54029EED08029CC
:103A6000ECD028680007E9D500240194286801906B
:103A70006868019001984046FFF75BFF082088F8CE
:103A80004040C8F844000120BDE8FC810020BDE8AA
:103A9000FC8100BFF8000020F8B5CD4CE06800289C
:103AA00064D00168002961D00A6AE2B10821904718
:103AB0000146E06891B1002858D00168002955D02E
:103AC0004A6A3AB108219047E06800284ED0016860
:103AD00000294BD00A6B32B19047E068002845D0EE
:103AE0000168002942D00A6A1AB30121904700B345
:103AF000E06828B1016819B1096B09B1884700E095
:103B00000020B4F8102440F2FE3311466FF3DF3189
:103B1000994202F4004308D8013221446FF3DF32A6
:103B20001A44A4F81024087403E003F2FF30A4F848
:103B30001004E068D0B10168C1B10A6AB2B11021C5
:103B4000904798B1E06828B1016819B14A6A0AB192
:103B500010219047B4F81004D4F8141540F4004034
:103B6000A4F8100411B1D4F818058847994C2068BE
:103B70000268C168466915074FEA826373D001F491
:103B8000907706F00106BF1971D0D70705D0CF0591
:103B900003D5676C47F001076764570704D51EB16A
:103BA000676C47F002076764920704D51EB1626C28
:103BB00042F004026264002D07D501F02002921940
:103BC00003D0626C42F008026264626C002A00F06A
:103BD000D580002B04D5890602D5FFF7D1FE2068D9
:103BE0004069616C00F0400001F00801401802BF1C
:103BF00000206064F8BD2046FFF79BFE2068406906
:103C0000400640F1BB80FFF717FDFCD1E06B0028B8
:103C100000F0B4807049416390F82110022940F00F
:103C2000AE8003686E4C6D4A196821F00E01196070
:103C3000196821F0010119600121A34200F0AB8055
:103C4000684CA34200F0A980674CA34200F0A78013
:103C5000664CA34200F0A680654CA34240F0A580CC
:103C60004FF48034A9E0002B01D58B0629D4236BB7
:103C7000012B03D1D30601D5CB0626D4130601D5DB
:103C80000B060BD4520679D5490677D5C16821F0C9
:103C90004001C160202084F84100F8BD94F8411033
:103CA00021296BD1A268216AB2F5805F5DD12269BA
:103CB000002A5AD131F8022B6FF35F222162426051
:103CC00057E0BDE8F840FFF75BBE002100910168B6
:103CD0000091416800910099406940061CD4E08D34
:103CE000A18DE28D002A49D0814247D0FFF7F7FC31
:103CF00020F4907041E80302002AF7D1FFF76EFC30
:103D0000FCD1202084F8420000202063FFF75CFCF7
:103D1000FCD102206063F8BDE06B016849688AB29B
:103D200062B3A38D9A4229D2E1858069202818D0F8
:103D3000FFF7D5FC20F4807041E80302002AF7D198
:103D4000FFF74CFCFCD1FFF777FCFCD1202084F876
:103D5000420000202063FFF737FCFCD1E06BFEF748
:103D6000E1FE02206063E08DF8BD4A1C2262097802
:103D70004160E18C0139E184090403D0F8BD0421DC
:103D8000816320E0C16821F08001C160C16841F019
:103D90004001C160F8BD01240FE010240DE04FF494
:103DA00080740AE04FF4805407E002F168054FF098
:103DB0008074AB4208BF4FF480141460002280F876
:103DC000202080F82110BDE8F840FFF7ADBD00BF0E
:103DD00068070020880F00202939000804000240ED
:103DE000080002401C000240300002404400024033
:103DF00058000240FEE70000C348C06D18B10748F4
:103E0000543005F0C3B87047F748C06D18B1034887
:103E1000543005F075B87047F80000207401002098
:103E2000143805F051BB70B50546084616460C46D9
:103E300005F07AFB9EB1012E18D128460068A842F1
:103E40000DD090F8211094F835208A42F6D24168BE
:103E500004F114020A60C4E90501426070BD68689B
:103E600004F114010160C4E90550696070BD0000EF
:103E7000DD498A6D1AB1D1B221B101220FE04FF0B4
:103E8000FF3110E012F47F4102D0090A092206E056
:103E900012F47F0107BF110E1922090C1122054BE4
:103EA000595C114401390160034850F8310014385D
:103EB000704700BF00B2000898440020B0B5CA485F
:103EC000C46DFCF7EDF90546204605F0C1F9FCF795
:103ED000E7F92246E16D52F8583F5960E16DE2651D
:103EE0000B6094F84D10126001F0FE0184F84D1043
:103EF000FCF7DAF904F1440005F0BCF80848016861
:103F000044F8141F4C60042104606060284684F863
:103F10002010FCF7C9F9BDE8B04005F00FB900BFAB
:103F200088000020F8B504460020C4E9081004F118
:103F30001400C4E90A232321C4E9050010461A46E7
:103F400004F0BDFFD4E90A12D4E90806DDE906CE83
:103F50001A4F6FF03F05114421F00702A2F1400112
:103F600015B157510435FBE7154B00254FF080770D
:103F700042E9020742E9086542E9065504F14400B6
:103F800042E90453E1610A21224684F835C0C4E9BC
:103F90000E5EC4F840E0C4E91C5584F83450256333
:103FA00005F08CF804F15801064884F84D50E56698
:103FB000C4E9161104F1600131C1F8BDEFBEADDEF8
:103FC000BD3E0008C93F0008B0B50446FCF768F9DB
:103FD000FFF7ADFB6FF0010009602063204605F09C
:103FE00005F9FFF79CFBBDE8B04005F0A7B800005D
:103FF000BCB0FFF78BFB06A8434D4FF0640A40F6B8
:10400000FF7800F18C012030049005F16C000591DF
:10401000039002F079F8074602F076F8044602F0C1
:10402000A7FF814602F0A4FF00FB0AF039464B4689
:10403000B0FBF8F0C6B204FB0AF0B0FBF8F0009653
:10404000C0F164005FFA80FB22A05A4604F04AFEE9
:104050002878C5E90EB630B903F092FD287801281A
:1040600032D1D5E90EB606A8D821FDF781FE049815
:104070002649FFF7C0FA059825A13F22CDF878B070
:10408000FEF716F9A868399604F080FFE86E70B163
:10409000846964B106A82F4A2F4B002100900220AA
:1040A00001902BA002900398A047074600E001274B
:1040B000A86804F025FF27B12848394604F012FE0D
:1040C00002E0274804F00EFE41F2883005F0DAF9EC
:1040D0009FE700BF4C696768743A205261773D25BD
:1040E000642C205063743D25642525207C204D518F
:1040F000323A205261773D25642C205063743D256F
:104100006425250A00000000F800002058AD0008D2
:104110004D513200000000000000000000000000CF
:10412000000000000000000000000000000000008F
:10413000000000000000000000000000000000007F
:10414000000000000000000000000000000000006F
:1041500030303200F1CF0008FCCF000854C700080F
:10416000F3C50008097804A004A2002908BF02468C
:1041700004A004F0B7BD00BF6F666600626C696E94
:104180006B0000004253505F4C4544206368616EF1
:10419000676564202D3E20256420282573290A00A8
:1041A00080B502A004F09EFD002080BD1B5B324A5A
:1041B0001B5B4800F8B5FFF71FFE0B48406D00F190
:1041C0001C0670CEFFF720FE0C4F08A02146B84712
:1041D0000BA02946B8470EA03146B847611B10A076
:1041E000B8470020F8BD00BFF8000020746F74616C
:1041F0006C202020203A2025640A0000E58C00086D
:104200007573656420202020203A2025640A000070
:104210006D6178696D756D20203A2025640A000073
:10422000617661696C61626C653A2025640A000000
:1042300010B5022818D14C681E49FFF7EAF928B3D7
:104240001D49FFF7E6F920B31CA1FFF7E2F918B307
:104250001B49FFF7DEF910B31A49FFF7DAF908B383
:104260001949FFF7D6F900B31848194CA04719A00F
:10427000A0471B48A0471B48A0471BA0A04721A060
:10428000A04727A0A0472FA0A04710E002F0C0F948
:104290000DE002F089FA0AE002F034F907E002F0DA
:1042A000AFF804E002F026F801E001F075FF00200D
:1042B00010BD00BF09D100089ED1000873656D00D4
:1042C00012D200081FD1000836D1000891CB000897
:1042D000E58C00085B6F7074696F6E735D3A0A005D
:1042E0008BCD0008CFCD00082020202073656D20E5
:1042F0002D206C6973742073656D6170686F7265D1
:10430000730A0000202020206D75746578202D2010
:104310006C697374206D75746578730A0000000011
:10432000202020206D73677175657565202D206CC8
:10433000697374206D657373616765207175657548
:1043400065730A00202020206D656D706F6F6C20F2
:104350002D206C697374206D656D6F727920706F9C
:104360006F6C730A0000000080B502F051F9002064
:1043700080BD00002DE9F04F85B0804600F078F850
:10438000424D4FF400002861142005F07BF8802492
:104390001E202C6104F092FCFBF782FF8146012075
:1043A0000DF1040B039000205946CDE90140049023
:1043B0002846FEF745FC002000F040F948B30120F4
:1043C00000F03CF928B3002000F038F908B30024CD
:1043D0004FF0010A052C24D0002607270BF80460B3
:1043E000781C14D0012000F029F990B1282004F0A5
:1043F00065FCA868000608D50AFA07F00643002005
:104400000BF8046000F01AF918B1013FE8E7013435
:10441000E0E74846FBF748FF6FF0010005B0BDE854
:10442000F08F00F025F8802028614846FBF73CFF1C
:104430009DF804009DF805109DF806209DF80730B2
:104440000C1814441C44E5B29DF80840AC420BD152
:1044500088F80000002088F8044088F8033088F8C5
:10446000022088F80110D9E74FF0FF30D6E700BFEF
:10447000F8B50320694603900020029001200190C6
:10448000802000900148FEF7DBFB8FBD000C01404F
:10449000BEB040F6B83004F0F5FF0DF1200BDFF8A8
:1044A00010910DF11B083BA70BF18C0005900BF14F
:1044B000200004900025032D0CD04046FFF75AFF42
:1044C000A0B1013538460322294604F00BFCFFF762
:1044D0008FF8F0E75846D821FDF74AFC38A00321B1
:1044E00004F000FC00244FF0000A20E05846D821D8
:1044F000FDF73EFC9DF81B609DF81D4004982D497A
:104500003F22C9E90C46FDF7D3FE05982A493F2210
:104510002094FDF7CDFE2948214632463B9604F013
:10452000E1FB0024032D4FF0020A38BF012499F863
:10453000000008B1012003E003F022FB99F800001D
:104540002040012821D1D9F8080004F01FFDD9F836
:104550006C0068B184695CB12348244A244B002173
:10456000CDE900BA029009F16C00A047054600E0D1
:104570000125D9F8080004F0C3FC15B11DA0294697
:1045800001E025A0514604F0ADFB4FF4616004F05A
:1045900079FF8FE7202044485431312072656164EF
:1045A0002072657472792025642F25640A0000004A
:1045B000F800002098AC0008D8AC0008A4C6000899
:1045C000202044485431312072656164206661695D
:1045D0006C65642061667465722025642072657460
:1045E000726965730A000000EDCF0008F1CF000882
:1045F000FCCF00084448543131205075626C697317
:1046000068204641494C45442120286572726F72EA
:104610003D2564290A00000044485431312050757A
:10462000626C697368204F4B2120282564207072CA
:104630006F70657274696573290A000070B5094E60
:1046400004466FF063053068C0B2B4EBD01F04BFFE
:10465000012070BD25B1012004F030FB0135F2E7E7
:10466000002070BD080C0140F8B5774DD14E0446CE
:1046700000210F46092907D8204629463246FEF771
:10468000D3FF791C0028F4D10020092F88BF012016
:10469000F8BD00BF10B510A004F024FB1648006858
:1046A00040B1816831B114488847014618B90024E7
:1046B00012A00CE001211C481C4CA0471C48A0473C
:1046C0001C48A0471C48A0474FF0FF341BA004F033
:1046D00009FB204610BD00BF54657374696E6720E6
:1046E0004553503832363620415420636F6D6D612A
:1046F0006E642E2E2E0A000068070020415420749C
:10470000657374207375636365737321204553501B
:104710003832363620697320726573706F6E646943
:104720006E672E0A00000000DACB0008E58C000856
:1047300039CA00089FCE0008A6CD00082020332EDD
:1047400020455350383236362062617564207261DC
:104750007465202873686F756C6420626520313140
:1047600035323030290A0000B0B5A2B0009202AD57
:104770000B46044606A280212846FBF729FE0BA221
:104780002046294641F2883300F0C0FE22B0B0BD79
:1047900041542B43495053544152543D22544350A9
:1047A000222C222573222C2575000000434F4E4EEB
:1047B000454354007F4A02A14FF47A7300F0A6BE2D
:1047C00041542B434950434C4F53450010B50D4ABB
:1047D00008A14FF4FA73044600F098FE08B10120D6
:1047E00010BD0C4A08A120464FF4FA73BDE81040F2
:1047F00000F08CBE41542B4349504D4F44453D3150
:1048000000000000A9D0000841542B4349505345F3
:104810004E44000021D0000810B50446FEF776FF94
:1048200008A1204605F00BFAFEF770FF00200649AC
:10483000E84A4FF4FA73A4F81004204600F066FE2C
:10484000002010BD2B2B2B00D3D0000870B5154ACB
:104850000C4611A1FEF72CFF10B10125284670BDB2
:10486000B5F81014FEF71DFF0FA1FBF782FF00281B
:10487000F3D0FEF72CFF0028EFD0461C2221304653
:10488000FBF76DFF0028E8D0002531460570204673
:10489000FBF7ADFFE2E700BF41542B4349465352BB
:1048A00000000000A9D0000853544149502C0000DA
:1048B00080B590B068464021FDF75AFA0FA004F089
:1048C00011FA1448006868B183695BB11148694600
:1048D00040229847014630B90FA0694604F002FA19
:1048E000002008E0012110A004F0FCF916A004F05B
:1048F000F9F94FF0FF3010B080BD00BF4765747408
:10490000696E6720495020616464726573732E2E4E
:104910002E0A000068070020495020416464726537
:1049200073733A2025730A00476574204950206646
:1049300061696C656421204572726F7220636F64D7
:10494000653A2025640A0000506C65617365206338
:104950006F6E6E65637420746F20576946692066B8
:10496000697273742E0A000069B1B0B5114A0C4621
:104970000DA1FEF79DFE20B9B5F91004B0F1FF3F7F
:1049800003DD0120B0BD0320704781B2FEF789FE30
:1049900009A1FBF7EEFE0028F3D00830FBF7D2FEAA
:1049A00020700020B0BD00BF41542B43574D4F44F1
:1049B000453F0000A9D000082B43574D4F44453ACE
:1049C0000000000080B5FEF74DFEFEF747FE002018
:1049D00080BD0000B0B5A2B0009202AD0B46044607
:1049E00006A280212846FBF7F3FC09A220462946AF
:1049F00042F2107300F08AFD22B0B0BD41542B4347
:104A0000574A41503D222573222C22257322000053
:104A10005749464920474F5420495000B0B5032814
:104A200002DBD1E9014506E0012823D1384C2FA053
:104A3000FEF787FE374D3848FEF783FE374804F00F
:104A400051F93748006850B1436943B134482146B1
:104A50002A469847014618B9324C002510E001213A
:104A60003148324CA0473248A0473248A047324C28
:104A7000324801E005A412A004F034F94FF0FF35EC
:104A8000204604F02FF92846B0BD00BF202020208A
:104A90002020206F72207573652064656661756CD7
:104AA0007420636F6E66696720696E206573703865
:104AB0003236365F636F6E6669672E680A000000E3
:104AC00055736167653A20657370383236365F6AB0
:104AD0006F696E5F6170205B737369645D205B70EA
:104AE000617373776F72645D0A0000005573696EBD
:104AF000672064656661756C742053534944206671
:104B0000726F6D20636F6E6669673A2025730A00C5
:104B100082D100080AD0000843CD0008A5C90008CA
:104B20006807002086C60008B2CB0008E58C0008A4
:104B300039CA0008E8CD0008BACE0008B4CC000895
:104B40007FB505461EA00C46214A017B836840685C
:104B500011731B499360C2E90010E86868B10168ED
:104B600059B1CE6A4EB11A491A4A4FF47A73B04716
:104B700018B9E868FEF750FD02DD042004B070BDEE
:104B800089B200F1100500206E4613A223466FF390
:104B9000DF31685430461021FBF71AFC28463146B5
:104BA000FBF7E7FD0028E8D004466846FBF743FE24
:104BB0002044FBF7C7FD0328DFDD0020DEE700BF50
:104BC00041542B4D515454434F4E4E3F0000000072
:104BD000880D0020A9D000082B4D515454434F4E4E
:104BE0004E3A25642C0000002DE9F843C0680E46BB
:104BF000FEF712FD02DD0120BDE8F88389B2904680
:104C00001030002299466FF3DF3142543849FBF7E8
:104C1000B0FD0028EFD0FEF75AFD0028EBD0441C71
:104C200022212046FBF79BFD0028E4D00746001B0D
:104C30004FF680717F25084208BF85B23046214675
:104C40002A46FBF762FE00202C217055781CFBF7EA
:104C500086FD0028CFD0471C3846FBF773FD06467B
:104C600080B208B1484501D9A9F1010638462C2186
:104C7000FBF775FD0028BED0B4B2411C089D40462C
:104C80002246FBF742FE002008F804005DB319A19C
:104C90004046FBF76EFD40B33A21FBF760FD20B3C1
:104CA000411C0A7842F00200222801F1010009D1DA
:104CB0000146F6E7222A08D02C2A06D07D2A04D005
:104CC00010F8012BD2B2002AF4D101384FF6E0726D
:104CD0001F24401A104208BF84B228462246FBF720
:104CE00014FE00202855BDE8F8830020BDE8F883B5
:104CF00013D000082269642200000000BFB502B38F
:104D0000044608980D464FF48071002818BF012012
:104D10000290CDE900230DA22B460B48FBF758FB70
:104D2000E06860B1016851B1FEF7FCFC07D00649AC
:104D3000C74A40F6B83304B0BDE8B0406047012030
:104D400000E0032004B0B0BD880D002041542B4D7D
:104D5000515454434F4E4E3D25642C222573222C32
:104D600025752C256400000010B504460A480B4642
:104D70000AA2FEF743FCE06858B1016849B1FEF7AA
:104D8000D1FC06D00449B24A4FF4FA63BDE81040A2
:104D90006047012010BD00BF880D002041542B4DFD
:104DA000515454434C45414E3D256400002A68D07F
:104DB000002B66D02DE9F04FA5B0DDF8B890B9F121
:104DC000000F60D02F9D002D5DD0144604910093FC
:104DD0008346309E05A838A280212346FBF7F8FAC7
:104DE0003DA3002E3FA24FF4807118BF33463C4EC6
:104DF0003046FBF7EDFA07466C204D4C4FF00008AB
:104E000005FB00FA3DA5C245B9B23ED0B8F1000F8E
:104E100006D07018C1F580712A46FBF7D9FA07440D
:104E200009EB080191F86800032803D8DFE800F0D7
:104E3000022B0C1B086EBAB201F12003C2F580717F
:104E40000090B018224616E0086E324A01F12003A5
:104E50000028314808BF1046BAB20090B018C2F519
:104E600080712EA207E0BAB2009101F12003B018C0
:104E7000C2F5807122A2FBF7ABFA074408F16C0877
:104E8000C1E703207047032013E07018C1F580715B
:104E900028A2FBF79DFA3046FBF7CDFC002180B23B
:104EA0003346CDE90001029105AA0499584600F065
:104EB00043F825B0BDE8F08F247379732F25732F45
:104EC00025732F7468696E672F70726F70657274C6
:104ED000792F706F7374000031323334353600002F
:104EE000880E00207B226964223A222573222C221C
:104EF000706172616D73223A7B0000002C0000002B
:104F0000222573223A7B2276616C7565223A22252E
:104F100073227D0019D1000828D1000822257322B0
:104F20003A7B2276616C7565223A25737D0000001C
:104F3000D1D200087D7D00002DE9F04F85B0EAB1A7
:104F40001D46DBB104460E98C0B10B46DDE90F618A
:104F5000CDE90020304831A2CDE90261FEF74EFBD9
:104F6000E06848B1016839B1CE6A2EB12A49334AA6
:104F70004FF4FA63B04730B1012700E00327384609
:104F800005B0BDE8F08FE06800212A46A0F81014B3
:104F90002B49E06804F053FEDFF8F08EDFF8B0A094
:104FA000DFF8B09040F6B83B26A50027BBF1000F14
:104FB0002ED0E068FEF730FB20DC89B200F110064D
:104FC0006FF3DF31304677542946FBF7D2FB0028D8
:104FD000D5D130465146FBF7CCFBD8B930464946CF
:104FE000FBF7C7FB0028C7D130461BA1FBF7C1FB6D
:104FF0000028C1D1E0680021A0F81014D8F84000C2
:10500000D8F84010091A0229FAD3ABF1010BCDE709
:105010000227B4E70027B2E7880D002041542B4D4A
:105020005154545055425241573D25642C2225730A
:10503000222C25752C25642C2564000021D0000825
:10504000A4D100082B4D5154545055423A4F4B00B7
:10505000A9D00008C6D000084641494C0000000015
:105060008AB383B32DE9F047A4B02C9F6FB31646E3
:105070000DF110080C4605460093DDE92DA915A297
:10508000802140463346FBF7A3F91B481B4EB9F17C
:10509000000F1BA24FF480713B4618BF4846CDE974
:1050A00000A03046FBF794F93046FBF7C4FB002123
:1050B00080B242463346CDE900010291284621469E
:1050C000FFF73AFF02E003207047032024B0BDE859
:1050D000F08700BF247379732F25732F25732F74E6
:1050E00068696E672F70726F70657274792F73655F
:1050F000745F7265706C7900FFD00008880E002024
:105100007B226964223A222573222C22636F646514
:10511000223A25642C226D7367223A222573227D60
:10512000000000002DE9F04779B114466AB10E463F
:10513000099951B1DDF82CA0BAF1000F05D0C06873
:10514000FEF76AFA05DD012500E003252846BDE8E3
:10515000F08789B2103000221D466FF3DF314254D0
:105160002E49FBF706FB0028EDD0FEF7B0FA002829
:10517000E9D000F1010922214846FBF7F0FA0028A6
:10518000E1D08046A0EB09004FF680717F270842EE
:1051900008BF87B2304649463A46FBF7B6FB0020C7
:1051A0002C21F05508F10100FBF7D9FA0028CAD0EC
:1051B000461C3046FBF7C6FA074680B208B1A84243
:1051C00000D96F1E30462C21FBF7C9FA0028BAD04F
:1051D000BFB2411C089E20463A46FBF796FB0025CD
:1051E000E555C6B10EA12046FBF7C3FA98B1841D60
:1051F00022212046FBF7B3FA68B1001B4FF6E0719D
:105200001F27084208BF87B2304621463A46FBF7BF
:105210007CFB0020F0558AF8005097E713D0000877
:10522000226964223A220000BCB5DAB10D46044678
:105230000D48CDE900230DA24FF480712B46FBF7FA
:10524000C7F8E06860B1016851B1FEF76BFA07D0AA
:105250000549D64A4FF4FA6302B0BDE8B040604752
:105260000120BCBD0320BCBD880D002041542B4D46
:105270005154545355423D25642C222573222C252C
:10528000640000001CB5BAB104460C480B460092FD
:105290000BA2FEF7B3F9E06860B1016851B1FEF707
:1052A00041FA07D00549F34A4FF4FA6302B0BDE86A
:1052B0001040604701201CBD03201CBD880D00204C
:1052C00041542B4D515454554E5355423D25642C59
:1052D00022257322000000001FB5EAB1044602F146
:1052E000C0000B4602F1400102900D48CDE90021BB
:1052F0000CA2FEF783F9E06860B1016851B1FEF7D6
:1053000011FA07D00649DB4A4FF4FA6304B0BDE84E
:1053100010406047012000E0032004B010BD00BF32
:10532000880D002041542B4D515454555345524340
:1053300046473D25642C312C222573222C222573CF
:10534000222C222573222C302C302C22220000000B
:1053500080B50DA003F0C6FC1148006868B1016B70
:1053600059B10F488847014640B90EA003F0BAFC76
:1053700012A003F0B7FC002080BD012119A003F0AA
:10538000B1FCFEF743B900BF526573657474696E72
:105390006720455350383236362E2E2E0A00000034
:1053A00068070020455350383236362072657365E1
:1053B000742073756363657373210A00506C6561B3
:1053C0007365207761697420666F72204553503889
:1053D00032363620746F20726573746172742E2EAB
:1053E0002E0A0000455350383236362072657365F8
:1053F00074206661696C656421204572726F722049
:10540000636F64653A2025640A00000070B50128C6
:1054100006DC344803F066FC33A003F063FC29E0AB
:105420004D6816A0294603F05DFC18480068E8B1F5
:10543000C66ADEB1154C164A29464FF4FA63204677
:10544000B047014698B913A003F04CFCB4F910041E
:105450000025B0F1FF3F0FDC80B204F110016FF3C3
:10546000DF300D5413A003F03DFC05E0012115A031
:1054700003F038FC4FF0FF35284670BD53656E646D
:10548000696E673A2025730A000000006807002053
:10549000A9D00008436F6D6D616E64206578656307
:1054A00075746564207375636365737366756C6C7E
:1054B00079210A00526573706F6E73653A0A25731D
:1054C0000A000000436F6D6D616E64206661696C57
:1054D000656421204572726F7220636F64653A20A3
:1054E00025640A00C8CA00084578616D706C653A89
:1054F00020657370383236365F73656E645F617431
:105500002041542B474D520A000000002DE9F04184
:1055100090460A46002415A11D460746A0F81044EF
:1055200004F08DFBB8F1000F1DD00024DDB107F1B0
:105530001006ADB1B7F91004B0F1FF3F0BDC80B23B
:1055400000216FF3DF30315430464146FBF711F94B
:1055500040B9A7F81044012003F094FF013DE8E7AB
:10556000022400E000242046BDE8F08125730D0AE6
:1055700000000000FFF7CABFB0B588B06D460B460B
:10558000044606A220212846FAF722FF394A20467F
:105590002946FEF749F808B0B0BD00BF41542B437F
:1055A000574D4F44453D256400000000A9D0000838
:1055B00080B50CA003F096FB1348006858B1C26890
:1055C0004AB1114801219047014628B90FA003F0C4
:1055D00089FB002080BD012113A003F083FBFEF7AF
:1055E00015B800BF53657474696E67204553503811
:1055F00032363620746F2053746174696F6E206D7B
:105600006F64652E2E2E0A006807002053657420F3
:1056100053746174696F6E206D6F64652073756378
:1056200063657373210A00005365742053746174B9
:10563000696F6E206D6F6465206661696C656421B9
:10564000204572726F7220636F64653A2025640A88
:105650000000000010B5074A04A1FDF7E5FF04466D
:1056600008B9FEF753F8204610BD00BF41542B5235
:1056700053540000A9D00008B0B5022806DC304819
:1056800003F030FB2F4803F02DFB1DE0D1E9014072
:10569000FBF758F885B20EA021462A4603F022FBFC
:1056A0001448006860B1C36953B1124821462A46C4
:1056B0009847014628B910A003F014FB0020B0BDA4
:1056C000012115A003F00EFB4FF0FF30B0BD00BF6D
:1056D000436F6E6E656374696E6720746F20544308
:1056E00050207365727665723A2025733A25640AF4
:1056F000000000006807002054435020636F6E6E66
:105700006563746564207375636365737366756C34
:105710006C79210A0000000054435020636F6E6EC4
:10572000656374696F6E206661696C6564212045EC
:1057300072726F7220636F64653A2025640A0000FC
:105740000ACB0008BEC9000880B50BA003F0CAFA56
:105750000F48006850B1016A41B10D4888470146C1
:1057600028B90CA003F0BEFA002080BD01210EA0D4
:1057700003F0B8FAFDF74ABF446973636F6E6E6554
:105780006374696E67205443502E2E2E0A00000069
:105790006807002054435020646973636F6E6E6520
:1057A00063746564210A0000544350206469736384
:1057B0006F6E6E656374206661696C656421204557
:1057C00072726F7220636F64653A2025640A00006C
:1057D000002070470020704780B520A003F082FAB7
:1057E00029A003F07FFAFEF755FF08B12EA008E0CC
:1057F000FDF738FF33A003F075FAFFF7D9FE20B1AB
:10580000384803F06FFAFDF701BFFDF72BFF36486C
:10581000364903F067FA3648006888B143697BB1BE
:1058200033483249334A9847014650B9FDF71AFFC9
:10583000314803F057FAFFF73BF830B12F48E0E763
:105840000121314803F04EFADDE72D4803F04AFA12
:105850002C4803F047FA002080BD00BF0A3D3D3DC3
:105860003D3D3D3D3D3D3D2045535038323636208F
:10587000576946692054657374203D3D3D3D3D3D6B
:105880003D3D3D3D0A0000000A5B312F345D205450
:10589000657374696E6720415420636F6D6D616E2E
:1058A000642E2E2E0A0000000A546573742066616F
:1058B000696C656420617420737465702031210AFD
:1058C000000000000A5B322F345D20536574746958
:1058D0006E672053746174696F6E206D6F64652EFE
:1058E0002E2E0A0075C500083CCD000882D10008A4
:1058F000680700200AD0000863C900088EC50008A8
:1059000075CA000842C60008FACB00082A48C06CD5
:1059100090F82100800703D40748002101707047E8
:1059200010B5054C00202071044820602046FAF78D
:1059300082FF3E21215210BD640600206D73682055
:10594000F8B51D4F1D481E49C7E91110782003F016
:105950000BFA40B300217822002403F0B0FAF86477
:105960000A201A494FF400621523009015A003F095
:1059700038FDFE6C054616A20221304603F09EFB60
:1059800006F11400B4837472C6E90500F86C90F84F
:10599000211041F0020180F821105DB1284603F08A
:1059A000ADFD002406E00020F8640BA003F09AF996
:1059B0004FF0FF342046F8BDF8000020B0D40008B6
:1059C00030D30008747368656C6C0000F1590008EE
:1059D00073687278000000006E6F206D656D6F72E5
:1059E0007920666F72207368656C6C0A0000000095
:1059F00088B0DFF898B4DBF84C0090F8211041F043
:105A0000010180F82110FFF781FFDFF88464304640
:105A100003F068F9DFF87C74DFF88094E8463846D4
:105A2000414601220023FDF7A7FB40B10A2003F005
:105A300029FDDBF84CA0FF240AF120000AE09DF8C4
:105A40000040DBF84CA00AF120001B2C02D1012100
:105A50000170E4E79AF82020A4F10801022A06D098
:105A6000012A27D15B2C23D102210170D7E7002224
:105A70000529027034D9A4F141000228CFD3002CAB
:105A8000CDD0432C00F04D81FF2CC8D07F2C49D0C5
:105A9000442C1CD1BAF876000028C0D0FDF72CFEAB
:105AA000DBF84C00B0F876100139A0F87610B6E7B4
:105AB00000220270052904D8DFE801F0346B1809D0
:105AC0000918002CABD07F2C2CD0FF2CA7D0BAF813
:105AD00074005028C0F0C4800020AAF87400EBE0E5
