:020000040800F2
:10000000A83D002061020008D73000084D03000819
:10001000D5300008BD280008F93B000800000000AA
:100020000000000000000000000000007302000853
:10003000BF28000800000000CF020008A535000816
:100040007B0200087B0200087B0200087B0200089C
:100050007B0200087B0200087B0200087B0200088C
:100060007B0200087B0200087B0200087B0200087C
:100070007B0200087B0200087B0200087B0200086C
:100080007B0200087B0200087B0200087B0200085C
:100090007B0200087B0200087B0200087B0200084C
:1000A0007B0200087B0200087B0200087B0200083C
:1000B0007B0200087B020008913600087B020008E2
:1000C0007B0200087B0200087B0200087B0200081C
:1000D0007B020008AD3800087B0200087B020008A4
:1000E0007B0200087B0200087B02000800F002F897
:1000F00000F0A6F814A696E8000CB244B344DA4522
:1001000001D100F09DF8BAE80F000FA696E8300084
:10011000A5EB040504EB0607AAEB0704A7F101070A
:100120004FEA15154FEA3414A4F10104AC4201D38F
:1001300000F086F813F0010F18BFFB1A43F001031B
:1001400000F001F8DBE71847A4C20000C4C20000B9
:10015000103A24BF78C878C1FAD8520724BF30C8F3
:1001600030C144BF04680C60704700007047000055
:100170000023002400250026103A28BF78C1FBD8B0
:10018000520728BF30C148BF0B6070476E2900F08E
:10019000A984702900F00782662909F01A8565296B
:1001A00009F01785672909F01485612909F013857D
:1001B00003681B0A28BF41F08001692900F078819B
:1001C000642900F07581752900F072816F2900F0B3
:1001D000A587782900F0D381E92900F03F87E42939
:1001E00000F03C87F52900F03987EF2900F0A2875D
:1001F000F82900F0D2810368DB0928BF41F08001B3
:10020000632900F0C086732900F0C586E32901F058
:100210004985F32901F04E85002070471FB500F095
:10022000E3FB04000020002109F0E6FA401C6060B6
:100230000020002109F0F6FAE0601FBD10B510BDE6
:1002400001F04AFE1146FFF7E9FF02F0F9F802F06B
:10025000A1F803B4FFF7F2FF03BC02F0A5F8000019
:100260000948804709480047FEE7FEE7FEE7FEE74A
:10027000FEE7FEE7FEE7FEE7FEE7FEE70448054986
:10028000054A064B704700008D360008ED00000857
:10029000A8370020A83D0020A8390020A839002058
:1002A000EFF3108072B6704780F310887047344ABD
:1002B0001368012B04D04FF001031360314A106022
:1002C000314A116031484FF0805101607047EFF3BF
:1002D000108272B62A48016891B14FF000010160A6
:1002E0002848016829B1EFF3098121E9F00F00687E
:1002F0000160254909680968B1E8F00F81F30988B0
:1003000082F310884EF0040E70471F4908601D49A3
:100310004FF0000008601A494FF0010008601C48C7
:100320001C49D0F8002041EA0201016017484FF053
:100330008051016018480068006880F3088861B641
:1003400062B6BFF34F8FBFF36F8F70471EF0040F7D
:100350000CBFEFF30880EFF3098020E9F00F40F8BD
:1003600004ED1EF0040F0CBF80F3088880F30988A9
:1003700000B507F0A5FB5DF804EB4EF0040E7047E6
:10038000A43700209C340020A034002004ED00E0BD
:1003900020ED00E00000FFFF08ED00E010B500F0E8
:1003A00023FB001D10BD00BF519400001CB50C467E
:1003B000064B7B4469460090204600F0BAFD044697
:1003C0000020694600F0C8FD20461CBDA30B0000BC
:1003D0000FB41CB50C0007AA009007D04142A142FF
:1003E00002D32044401E01E04FF0FF30074B7B4416
:1003F00069460190069800F09CFD0021002C01D078
:10040000009A11701CBC5DF814FB0000710B000019
:1004100070B5044685690068C10601D5302600E044
:100420002026C00707D070BDD4E90121304690478F
:10043000206A401C20626D1EF6D570BD70B5044662
:1004400085690078C00707D170BDD4E9012120205B
:100450009047206A401C20626D1EF6D570BD70B5B5
:100460000C460546012A05D02878800600D5EA69A1
:10047000002302E0012305E05B1C934202D2E05C12
:100480000028F9D1A869E618C01AA861286A18449A
:1004900028622846FFF7BCFF04E0D5E9012114F8E3
:1004A000010B9047B442F8D32846FFF7C7FF70BD51
:1004B0002DE9F0410646002410687529314616A53D
:1004C00010D000F0A4FA002802DA404213A507E099
:1004D00031688A0701D512A502E0490704D511A5A4
:1004E000012401E000F09CFA00210A2206F1240711
:1004F00009E0B0FBF2FCB0FBF2F302FB1C00303071
:1005000078541846491C0028F3D123462A46304621
:10051000BDE8F04100F08DBA000000002D000000A1
:100520002B00000020000000F0B40D4601880905F2
:1005300002D5214C7C4402E01F4C7C440E34002147
:1005400000F1240608E002F00F071209E75D42EA15
:1005500003721B097754491C52EA0307F3D102784E
:100560000023120704D5702D06D009B102231134DF
:100570002246F0BC00F05DBA01231034F8E770B5F4
:1005800004460D462146106800F04AFA0246294604
:100590002046BDE870400023C6E7D21D22F00703C5
:1005A000D3E90023C0E70368126843F02003036027
:1005B0000823C3610023B7E79E9700002DE9F05F91
:1005C000894604464FF0000ADFF874B1FB44C0F8D6
:1005D00020A02046E1688847002874D0252806D04E
:1005E000D4E901219047206A401C2062F1E70026EF
:1005F0005F462046E16888472028054607DB312D05
:1006000005D2781910F8200C08B10643F1E7B007BD
:1006100001D526F00406C4F81CA00027C4F818A0D1
:100620002A2D09D0284609F064F838B304EB87086E
:10063000303DC8F8185019E059F8041B204604EB67
:1006400087029161E1688847012F054618D1E0696A
:10065000002820DA26F020061DE0D8F8180000EB6C
:10066000800005EB40003038C8F818002046E168EB
:100670008847054609F03DF80028EED1012F0AD041
:100680002E2D08D12046E16888477F1C0546022FA1
:1006900046F02006C4DBA069002803DA404246F099
:1006A0000106A061F00701D026F010066C2D0BD0DA
:1006B000682D09D04C2D39D06A2D35D0742D35D008
:1006C0007A2D33D016E038E0E1682F46204688477F
:1006D000B842054609D16C2F26D04FF48060E168FE
:1006E000064320468847054604E06C2F1AD04FF495
:1006F000807006430DB3A5F14100192802D82035BA
:1007000046F400664A462946204626604E46FFF7D4
:100710003DFD80B101280BD0F61D26F0070000F149
:10072000080956E74020E4E78020D8E70020D6E714
:1007300006F104094DE7284652E7206ABDE8F09F1C
:100740002E97000070B5064600F052F90468054681
:1007500030460A22002100F0EBFF2C6070BD401EE5
:10076000CAB210F8011F8A4202D00029F9D1002034
:10077000704730B505460B462A4613F8014B12F870
:10078000010B08B1A042F8D01CB1002802D06D1CAA
:10079000F1E7284630BD40EA010310B59B070FD1B1
:1007A000042A0DD310C808C9121F9C42F8D020BAE1
:1007B00019BA884201D9012010BD4FF0FF3010BD99
:1007C0001AB1D30703D0521C07E0002010BD10F867
:1007D000013B11F8014B1B1B07D110F8013B11F82D
:1007E000014B1B1B01D1921EF1D1184610BD40EAEE
:1007F0000103024630B59B0710D14FF0013400E0F1
:1008000008C208C91D1B9D4315EAC41FF8D013F088
:10081000FF0102F8011B0DD01B0AF8E711F8013B9C
:10082000002B02F8013B05D011F8013B002B02F828
:10083000013BF3D130BD10B5431C02E010F8011BA1
:1008400071B18107FAD14FF0013202C88C1A8C4382
:1008500014EAC211F9D0C01A0A0603D0C01E10BD96
:10086000C01A10BD0A0401D0801E10BD0902FCD0C0
:10087000401E10BD40EA010370B59B072ED14FF01A
:100880000136042A2AD308C810C99D1B9D43121F94
:1008900015EAC61517D0D8B2E1B2401A50EA056180
:1008A00010D198B2A1B2401A50EA05410AD123F002
:1008B0007F4024F07F41401A50EA052102D1180EF2
:1008C000A0EB146070BDA342DBD018BA21BA8842F5
:1008D00001D9012070BD4FF0FF3070BD0AB9002072
:1008E00070BD10F8013B11F8014B63B1A3420AD16E
:1008F000521E08D010F8013B11F8014B1BB1A34266
:1009000001D1521EEDD1181B70BD10B5044610F078
:10091000030F08BF11F0030F40F015804FF0013EA8
:10092000121FC0F20E8051F8043BA3EB0E0C2CEA10
:10093000030C1CEACE1C08BF40F8043BF0D0A1F128
:10094000040102F10402521E08DB11F8013B00F819
:10095000013B002BF7D1114600F054FF204610BD9B
:100960004FF0013C50F8042B51F8043B9A4221D13E
:10097000A2EB0C03934313EACC1317D150F8042BCA
:1009800051F8043B9A4215D1A2EB0C03934313EAAE
:10099000CC130BD150F8042B51F8043B9A4209D1E7
:1009A000A2EB0C03934313EACC13DBD04FF000000F
:1009B000704700BFD01A01BAB1FA81F101F01801F5
:1009C00022FA01F0CB40DBB2C0B2C01AC1F1200163
:1009D0002CFA01F3D11A914311EAC311E6D1704701
:1009E0007047704770470000004870479000002033
:1009F000004870477000002010B5FFF7F9FF00684D
:100A000010BD10B50446FFF7F3FF046010BD096880
:100A10004A0501D540B27047C905FCD500B2704700
:100A200009684A0501D5C0B27047C905FCD580B236
:100A300070472DE9F0470D4699469246044600F16D
:100A400024080168880604D5E06921F010012160BE
:100A500000E00120A84201DD471B00E00027A1695A
:100A60007A1902EB0900081AA0612078C00602D4A6
:100A70002046FFF7CDFC002608E0D4E901211AF852
:100A800006009047206A401C761C20624E45F4DB2D
:100A90002078C0060AD52046FFF7BAFC06E0D4E964
:100AA000012130209047206A401C2062381EA7F1A7
:100AB0000107F4DC07E0D4E9012118F805009047AC
:100AC000206A401C2062281EA5F10105F3DC2046A7
:100AD000FFF7B4FC2078000602D50220BDE8F087BD
:100AE0000120FBE711680268006A530501D5087010
:100AF0000AE0D30501D5088006E0130603D5C21726
:100B0000C1E9000200E00860012070472DE9FF4FB5
:100B10000C461E464FF0FF378BB0D2E90001DDF8DE
:100B200060800A908A46C1F30A5505B93D46002106
:100B300008464FF00000BAF1000F00F4400005DA5B
:100B400000EB80004FF4400101EA50004FEA905959
:100B5000B9F1010F00DDB9460A9850EA4A000ED0FB
:100B600044F61050A5F2FF3545432F14B8F1000F9D
:100B70001ED07542291E1EDDC9F100021CE0B8F12D
:100B8000010F4FF0000001D0302103E0F24305E0F7
:100B90002154401CB042FBDB30460022002121548E
:100BA0000B99C1F80880C1E900200FB0BDE8F08FB3
:100BB000BD1B6D1CDEE74A4600DA694206A801F05B
:100BC000CDF806AB93E8070003AB83E80700504677
:100BD0000A9908F0C5F88DE80700A0F500501F3805
:100BE00000900398002D0ADD42F21F014A46084496
:100BF000002303A90390684608F070FB09E0A0F504
:100C000000504A461F38002303A90390684608F0A5
:100C10008FFB8DE807000004000C03D04FF0FF307D
:100C2000410800E01046B8F1000F03D00022009206
:100C300015461EE0751E05D400F01DFE30326255CB
:100C40006D1EF9D5B3460122084302D000227F1C55
:100C500004E02078302801D100227F1E002A099765
:100C600084D01DE0112D07DA00F005FE3032625508
:100C70006D1C50EA0102F5D1084302D00098C8B1BA
:100C80000EE00021681E05E0235C625C6354225480
:100C9000401E491C8142F7DBAB46A81B401E099051
:100CA000002004F80B000B98099AC0F80880C0E9EE
:100CB000002B7AE711264FF0000857E72DE9F04F97
:100CC00088460446D21D22F0070191B0D1E9000107
:100CD000CDE90A0108F078FC02460B98C00F01D05C
:100CE0002D2007E02068810701D52B2002E020217C
:100CF00001EAC000032A099001D0072A05DB034658
:100D00004146204600F084FF0BE12078800601D5A3
:100D1000E06900E00620B8F1650F814606D0B8F121
:100D2000660F18D0B8F1670F70D131E00020B9F12B
:100D3000110F009001DB112301E009F101030AAA60
:100D400001A90CA8FFF7E2FEDDE90C70002609F10D
:100D50000105834647E001204B4600904FF00047D5
:100D60000AAA01A90CA8FFF7D1FEDDE90DB00C9984
:100D70005D46002610B909F101000D18B9EB050018
:100D800003D4C0F1FF3609F10105A5EB09002BE002
:100D9000B9F1010F01DA4FF001090020B9F1110F8B
:100DA0000090484601DD112300E003460AAA01A98C
:100DB0000CA8FFF7ABFEDDE90C704D46002683461C
:100DC000207800070AD4AB4500DA5D4601A8012D62
:100DD00004DD411911F8011C302907D04F4502DA12
:100DE00017F1040F04DA012082460FE06D1EEEE7D2
:100DF000002F02DCED1B3E4403E0781CA84200DD1E
:100E00007D1CB81B00F1010A4FF000472078000755
:100E100003D4AA4501DB4FF0FF3A0021B7F1004FA0
:100E20000DF143088DF8431024D002202B23002F0E
:100E300001DA7F422D230A21021EA0F1010000DC0D
:100E40005FB197FBF1FC97FBF1F201FB1C7C1746AD
:100E50000CF1300C08F801CDEEE7A8F101000370A9
:100E60002188090501D5452100E06521A0F101088F
:100E700000F8011C09980FA9A1EB0807FF1D00B19C
:100E80000120411901EBEA70A1693844081A401E9B
:100E9000A0612078C00602D42046FFF7B9FA09986D
:100EA00028B1D4E901219047206A401C20622078B3
:100EB000C00622D52046FFF7ABFA1EE0002E04DB69
:100EC000B34502DD01A8805D00E03020D4E90121B6
:100ED0009047206A401C2062761CAAF101005FEA5C
:100EE000000A0AD1FFF780FDC0680168405CD4E9C0
:100EF00001219047206A401C2062281EA5F10105AF
:100F0000DCDC07E0D4E9012118F8010B9047206AE6
:100F1000401C2062381EA7F10107F3DC2046FFF7D2
:100F20008DFA032011B041E601694A1C026108787C
:100F3000704700B58FB0CDE9013100210591054919
:100F40007944CDE9031011466846FFF737FB0FB02F
:100F500000BD0000E5FFFFFF0A6802F8010B0A6010
:100F60007047D1E900239A4202D2531C0B601070E3
:100F7000704710B5436913B1AFF3008001E0FFF78C
:100F80006EFA012010BD127800F124010A700022CF
:100F90004A700122EDE711684FF0FF32E9E70000E7
:100FA0002DE9FF5F15468A460446DFF8AC80F84419
:100FB0000027D8E900103E46CDE9001010E03AF8CD
:100FC00016106A4602A800F03BFF411C07D02178AA
:100FD000890603D5E269391891420DD80744761C79
:100FE0002078800602D5E069B84205DDAE42E6DB36
:100FF0003AF816000028E2D1A069C01BA061204683
:10100000FFF706FAD8E90010CDE90010002017E03C
:101010003AF818106A4602A800F012FFB0F1FF3F3C
:1010200081460BD000250DF1080B05E0D4E9012124
:101030001BF8050090476D1C4D45F7D308F10100E2
:10104000B0428046E4DB206A384420622046FFF745
:10105000F5F9BDE8FF9F00005E8D00002DE9F0412D
:101060008046D21D22F007020025D2E90002F529B0
:1010700015A614D0011E72F1000106DA0023D0EB90
:10108000030063EB020211A608E0D8F800108B07FA
:1010900001D50FA602E0490701D50EA6012511468C
:1010A000002408F1240704E000F0E5FB30323A5553
:1010B000641C50EA0102F7D12B46324621464046D5
:1010C000BDE8F041FFF7B5BC000000002D000000B6
:1010D0002B0000002000000030B4002100F12404A7
:1010E00008E002F00705D208303542EA4372DB0817
:1010F0006554491C52EA0305F3D10468002310A289
:10110000250708D504F020040C4304D0C46901234A
:101110000CA2641EC46130BCFFF78BBC10B5044642
:1011200021461068FFF77CFC02462046BDE81040CF
:101130000023D1E7D21D22F00701D1E90023CBE73C
:1011400000000000300000002DE9FF4F06468BB084
:101150000878FF2806D0491C2D2805D000244FF020
:10116000000908E000200CE00124F8E709EB8903FE
:10117000491C00EB43090878FF28F7D114B1C9F1E5
:1011800000008146107800252C46AA4629462D28C5
:1011900001D02B2804D1521C2D2813D000208246C8
:1011A0008B461078FF280FD04FF0000C0A21521CFC
:1011B000A5FB017804FB018105FB0C11C5194BEB64
:1011C0000104EEE70120EAE7002108464FF00000A5
:1011D000BAF1000F02D000EB80004008C0F3815745
:1011E000012F01DD4FF0FF370E9955EA040009EB9E
:1011F00001080BD04FF0020918F5FA7F16DA4FEA12
:10120000CA70002F706008DD012007E04FEACA7045
:10121000C6E900B00FB0BDE8F08F00203060FFF7E6
:10122000E7FBC0F800901821084616E0B8F5FA7FF1
:1012300018DD002F02DAF748784401E0F6487844D8
:10124000D0E90010C6E9001040EACA707060FFF7EC
:10125000CFFBC0F80090142108460FB0BDE8F04F56
:1012600008F0B4BC002108464FF00000B8F10001BE
:10127000099002DAC7F1000200E03A4601DAC8F14B
:10128000000106A800F06AFD06AB93E8070003AB77
:1012900083E8070044F23E005BEA040100905846F0
:1012A00004D144F21E012C465D460091210C090434
:1012B000014306D10099240444EA15442D04103951
:1012C000009104F07F41014306D10099240244EAD1
:1012D00015642D020839009104F07041014306D1D4
:1012E0000099240144EA15742D01091F009104F0AE
:1012F0004041014306D10099A40044EA9574AD0031
:10130000891E009104F00041084304D100986D1932
:101310006441401E00904FF001033A466846B8F120
:10132000000FCDE9014503A902DD08F016F801E040
:1013300007F0E9FFBAF1000F04460D4601D084F032
:101340000044002108464FF00000099940F2FF7761
:10135000484010F00C0F07D124F00040284303D080
:10136000C4F30A50B84212D1FFF742FBC0F8009014
:10137000C4F30A50B8420AD1A8487844D0E9001012
:10138000C6E9001004F000410843706042E7C6E976
:1013900000543FE72DE9FF4F1F464FF0000A4FF082
:1013A000FF38454691B0D7E90146CDF83CA0FFF79C
:1013B0001BFBC0680168405C1090B96912986D1CF5
:1013C0008847396A814688470028F6D1B9F1FF3F3E
:1013D0000AD0002E24F4D06411DDB9F12B0F08D00F
:1013E000B9F12D0F0BD102E0404615B013E744F4DC
:1013F0008064B96912986D1C8847761E8146600525
:1014000004A901D52D2000E02B20002E01F1010BB5
:101410000DF130088DF810003FDDB9F1690F08D0EB
:10142000B9F1490F05D0B9F16E0F02D0B9F14E0FE5
:101430001CD13B4601A8009580E85002DDE912125C
:101440006FF0020008F02DFCC11CCED10EE0B9698E
:1014500012986D1C884781461398761E44F40074D8
:1014600005600F98401C002E0F9016DDB9F1300F6B
:10147000EDD0B9F1780F02D0B9F1580F0DD10F9816
:1014800001280AD13B46CDE90054DDE91212001FC4
:10149000029608F004FCC11CA7D1109989453ED1E1
:1014A00044F0800406E01399681CAAF1010A44F490
:1014B00000740860B9696D1C1298761E8847302840
:1014C0008146F0D02BE01099894505D1200603D440
:1014D000761E44F0800418E0484608F00AF908B384
:1014E000761E0DF123029345A9F1300044F40074F7
:1014F00006D20BF8010B200607D5AAF1010003E084
:10150000200602D40AF101008246A00502D51399F3
:10151000681C0860B96912986D1C88478146002EC6
:10152000D1DC53E0002E51DDB9F1650F02D0B9F1E5
:10153000450F4BD1A00549D5B9696D1C1298761E8F
:1015400024F440748847002E81460CDD2B2804D0FB
:10155000B9F12D0F07D144F48074B96912986D1C4C
:101560008847761E8146E00501D52D2100E02B211C
:1015700008F8011BCDF8008021E0761E0DF139013D
:10158000884544F400740CD2A9F1300010F0FF003B
:1015900088F8000002D10099884509D908F10108AE
:1015A00006E0E00501D51E4801E042F20F708246D8
:1015B000B96912986D1C8847814613980560002E02
:1015C00004DD484608F095F80028D6D1F96912984C
:1015D0008847FF2053468BF8000088F80000002061
:1015E0000A900B9004AA0CA90AA8FFF7ADFDA0056C
:1015F00002D46FF00100F8E614F0240F12D0E007D7
:101600001CD13868DDE90A12031D3B600068C0E99F
:10161000001213E0D8B10000CAB100008EB0000083
:10162000F1D8FFFF0AA9684607F0F2FFE00705D1ED
:101630003868009A011D3960006802602846D4E6C7
:10164000426842B1016811F8013B23B1521EC0E962
:101650000012184670470121C160881E7047426819
:101660005AB1C368016843B983688B4205D0491EEB
:10167000521CC0E90012002070474FF0FF30704745
:101680000FB40B0010B54FF000048AB00FA9009101
:101690000E99CC60234C7C44234A7A44CDE906421F
:1016A00000D004236FF00042CDE901321F4A7A4492
:1016B0006B4608920246002008F0EFFA0AB010BC10
:1016C0005DF814FBF0B507464FF0FF301E46154697
:1016D0000C463B4685B06A460091CDE90101314692
:1016E0000020049004A8FFF7CBFF0499034660187C
:1016F00025B109B1024600E022462A6000290ED039
:10170000002B02DD0099814209D03B466A463146F2
:10171000001B0094CDE9010404A8FFF7B1FF05B058
:10172000F0BD0000A7FFFFFFC1FFFFFF4F02000059
:101730002DE9F04791460F4680460446002614F8EE
:10174000015B2DB1FEF72AFE0068405DC007F6D1AF
:101750002B2D02D02D2D18D0641E4A463946204626
:1017600000F0ACFA27B13968A14201D1C7F8008076
:101770004FF0020471050BD54042002803DDFFF74E
:1017800037F90460A007BDE8F08746F48066E4E717
:101790000028F8DAFFF72CF904606FF00040F2E758
:1017A00010B5203AC0F00B80B1E81850A0E81850EE
:1017B000B1E81850A0E81850203ABFF4F5AF5FEA3E
:1017C000027C24BFB1E81850A0E8185044BF18C9E3
:1017D00018C0BDE810405FEA827C24BF51F8043B8A
:1017E00040F8043B08BF7047D20728BF31F8023BDE
:1017F00048BF11F8012B28BF20F8023B48BF00F872
:10180000012B70474FF000020429C0F0128010F045
:10181000030C00F03B83CCF1040CBCF1020F18BFA9
:1018200000F8012BA8BF20F8022BA1EB0C0100F05F
:101830002DBB5FEAC17C24BF00F8012B00F8012B0F
:1018400048BF00F8012B7047004870477000002027
:10185000B2F120030AD5C2F1200301FA02F120FA05
:1018600003F341EA030100FA02F0704700FA03F1C2
:101870004FF00000704730B5B0F10A0271F100037B
:101880004FEA900E4EEA817EB0EB0E0061EB9101C3
:101890004FEA101E4EEA017E10EB0E0041EB1111D3
:1018A0004FEA102E4EEA016E10EB0E0041EB1121B3
:1018B0004FEA104E4EEA014E10EB0E0041EB114183
:1018C000401841F100014FEAD00040EA41704FEA70
:1018D000D1014FEA810444EA907410EB800544EB97
:1018E00001046D1944EB0404521BA3414FF00003A3
:1018F00048BF0A3200D530BD401C41F1000130BD67
:1019000010B50446FEF74AFD0068005D00F00100D6
:1019100010BD00002DE9F04F04460D46D21D22F007
:10192000070089B0D0E900974846394607F04CFED9
:101930000246F80F01D02D2307E02068810701D56A
:101940002B2302E0202101EAC0038DF820300BB1E7
:10195000012000E00020032A824601D0072A04DB90
:101960002946204600F054F93FE12078800601D452
:101970000D2500E0E569C7F30A560D2D49DA00216F
:101980004FEA175B08464FF00000002F00F44000BC
:1019900007DA00EB80004FF4400100EBD07001EA61
:1019A00060008115012901DD4FF0FF3100224FEA6F
:1019B000850CBCF1180F06D31346ACF118004FF09C
:1019C0008052C24003E04FF4801323FA0CF30CF171
:1019D0000C0CBCF1200F04D3ACF1200C09FA0CF074
:1019E00001E007FA0CF000294FF0004801DD18B9BA
:1019F0000FE00ED140450CD319EB02095F4121B92C
:101A0000404502D19F4329EA0209BBEB175F00D092
:101A1000761C2088000502D57B48784402E07A488D
:101A20007844193808AA302302F80A30037C0AF1F6
:101A30000101002E0AF1020A53546A4602DC4FF0FB
:101A4000300101E04FF031014FF001088DF8001036
:101A500002D0A6F2FF3603E059EA470100D06B4EF0
:101A6000002D02DC2178090704D54FF002082E2151
:101A70008DF80110C44600210BE0C7F303433F017A
:101A8000C35C491C6D1E02F80830052908F10108E5
:101A900001DA002DF1DC00210CE000EB1973491C88
:101AA0001B786D1E082902F808304FEA091908F161
:101AB000010801DA002DF0DC21688B0602D516E062
:101AC000A8F10108E04505DD02EB080313F8013C2D
:101AD000302BF5D0B8F1000F09DD02EB080313F845
:101AE000013C2E2B03D1090701D4A8F10108002DD8
:101AF00005DD3E2102F808106D1E08F10108407C4A
:101B0000002E02F8080008F1010804DA2D207642C0
:101B100002F8080002E02B2002F808000A214FF426
:101B20007A70864208F101080BDB96FBF0F3303344
:101B300002F8083096FBF0F308F1010800FB136689
:101B400001E0642E0CDB642096FBF0F3303302F8E6
:101B5000083096FBF0F308F1010800FB136601E082
:101B60000A2E06DB96FBF1F0303002F8080008F18F
:101B7000010896FBF1F001FB1060303002F808001C
:101B8000A16908F1010808EB050202EB0A00081A36
:101B9000A0612078C00602D42046FEF739FC216AF5
:101BA00008AE01EB0A00206204E0D4E9012116F836
:101BB000010B9047BAF1010AF7D22078C00602D58E
:101BC0002046FEF725FC6E4609E016F8010B3E287C
:101BD0000FD0D4E901219047206A401C2062B8F15F
:101BE0000108F2D22046FEF729FC09B00320BDE827
:101BF000F08F206A2844206203E0D4E901213020DC
:101C000090476D1EEBD3F8E70D83000002FCFFFF49
:101C10002DE9F0411F46044603260168072A01F416
:101C2000006004DB08B116A505E016A503E008B1C5
:101C300015A500E015A521F010002060A069C01EC8
:101C4000A0610FB1401EA0612046FEF7E1FB4FB13D
:101C5000D4E9012138469047206A401C2062C01C0C
:101C6000206206E0206AFAE7D4E9012115F8010BA9
:101C70009047761EF8D22046FEF7E0FBBDE8F081E3
:101C80004E414E006E616E00494E4600696E660020
:101C900010B5436913B1AFF3008001E0FFF780F99D
:101CA000012010BD128800F1240182840022C28428
:101CB0000122EDE711684FF0FF32E9E72DE9F05F0F
:101CC000824615468B4600270AF10104B946007882
:101CD000302801D09DB113E014F8010B01277828BA
:101CE00003D0582801D045B10AE00DB1102D07D11D
:101CF000002714F8010B102502E0082500E00A2552
:101D00000026B0460EE005FB080005FB06F10127A2
:101D10001FFA80F801EB1046B6F5803F00D3B946B4
:101D200014F8010B294600F0FCF80028EBDABBF1AF
:101D3000000F05D00FB1641E00E05446CBF8004000
:101D4000B9F1000F06D0FEF753FE02210160C81E54
:101D5000BDE8F09F48EA0640FAE700002DE9F047A9
:101D6000814616468AB0354878440DC88DE80D0086
:101D700032487844801C03AC0DC884E80D0041F65D
:101D80009B300844372190FBF1F290FBF1F5A5F16F
:101D9000800501FB12041B3C02D56442012000E0D7
:101DA0000020DFF898A080460027FA44AAF1BE0A76
:101DB0000EE0E0070AD03246684607EB47010123F0
:101DC0000AEB810107F0B4FA8DE8070064107F1C6C
:101DD000002CEED1194F7F44AE3F19E0E80715D033
:101DE00007EB04100DF1180A90E80E008AE80E00C7
:101DF000C068F04201D1981908903246012306A923
:101E000003A807F095FA03AB83E807006D10641C84
:101E1000002DE3D14FF0010332466946B8F1000FBF
:101E200003A802D007F05AFA01E007F081FAC9E9E5
:101E30000001C9F808200AB0BDE8F0875080000012
:101E40002DE9F04116460C460546FEF7A7FA036851
:101E500093F80101012807D0FF2C12D8185D80B13A
:101E600001202C70BDE8F081D3F8070132462146ED
:101E700003F20713C7182846BC46BDE8F04100230B
:101E800060474FF0FF30EDE74FF0000200B513461A
:101E900094469646203922BFA0E80C50A0E80C508A
:101EA000B1F12001BFF4F7AF090728BFA0E80C503B
:101EB00048BF0CC05DF804EB890028BF40F8042B34
:101EC00008BF704748BF20F8022B11F0804F18BFA1
:101ED00000F8012B704770477546FFF7B5FCAE461A
:101EE00005006946534620F00700854618B020B526
:101EF000FEF7C4F9BDE820404FF000064FF00007A0
:101F00004FF000084FF0000BAC46ACE8C009ACE85D
:101F1000C009ACE8C009ACE8C00921F007018D4652
:101F200070473A2800D2303820F02002412A01D3ED
:101F3000A2F13700884201D34FF0FF307047000014
:101F40002DE9FF4F1F464FF03C0987B04FF000428C
:101F5000DDE9141001F10108DDF858A002EA405053
:101F60000390002005908346054604460490B96915
:101F7000461E08988847AAF1010A0290BAF1000F9C
:101F80003BDD02982E2815D01021FFF7CAFF00284C
:101F90002EDB4FF0010B0599014317D0B9F1000F6B
:101FA0000BDB4A46C117FFF753FC05430C43A9F16D
:101FB000040905E0012004900BE008B145F001059B
:101FC00001200590049820B9361D02E0049800B164
:101FD000361FB969089808F101088847BBF1000F5E
:101FE000AAF1010A0290C9D00999C1F80080C5E799
:101FF0000298702808D0502806D0F96908988847B8
:10200000BBF1000F14D04FE0002002900120BBF183
:10201000000F049009D0B969089808F101088847B1
:10202000AAF10109B9F1000F07DCF969089888479E
:102030006FF001000BB0BDE8F08F2B2804D02D28E5
:102040000CD14FF0FF300490B969089808F10108ED
:102050008847A9F10109B9F1000FE6DD411CE4D080
:102060000A21FFF75EFF0028DFDB029908F1010873
:1020700001EB810100EB41000290B96908988847A3
:102080000A21FFF74EFF099AA9F10109B9F1000FE2
:10209000C2F8008001DD0028E7DAF969089888476E
:1020A0000499029800FB016655EA040004D004F08C
:1020B0004041090002D006E0039898E0A40044EAF9
:1020C0009574AD00B61E04F00041080002D16D19F0
:1020D0006441761E159810F0240F03D04FF00B09C1
:1020E0005C4803E04FF028096FF07D0082465645BA
:1020F00007DAAAEB06018944B9F1410F01DD4FF07F
:10210000410901200021A9F10102FFF7A1FB0246CC
:1021100028400B462140084301D0012100E0002166
:10212000501E029143F1FF3128402140084301D065
:10213000012000E000200299834651EA0B014FD0B4
:10214000002108464FF00000039900F4400039B127
:1021500000EB80004FF4400100EBD07001EA60001A
:102160008015012802DD4FF0FF3000E013D0401C45
:1021700036D0029860B3BBF1000F0CD14A46012063
:102180000021FFF765FB28402140084301D00120D2
:1021900000E00020E0B101204A460021FFF758FB93
:1021A000034640190A4661412D1A8C4111D3B9F1F9
:1021B000400F09DD159810F0240F02D0AAF1340663
:1021C00003E0AAF1170600E0761C00254FF000445A
:1021D00006E05B1E42F1FF3220EA030521EA020419
:1021E000CAF10100B04206DA1B4903980843019086
:1021F000002000900EE0039AC4F3D321E80A0A43BA
:10220000164940EA44500A433146CDE90002684687
:1022100007F064FA159810F0240F0BD01598C0073A
:1022200015D13868DDE90012031D3B600068C0E984
:1022300000120CE002A8694607F0EAF91598C007F9
:1022400005D13868029A011D396000680260404675
:10225000F0E6000002FCFFFF0000F07F0000F03F0E
:102260002DE9FF4F92461D4685B04FF00041DDE954
:10227000124BDDE914727F1E01EA4B50414940F0D8
:10228000FF4940EA0108002122F02000492804917A
:1022900002D04E2828D04CE03BA0012607C88DE88C
:1022A0000700A9690698641C88477F1E014606D46A
:1022B0001DF8060018B121F0200181420BD0E96918
:1022C00006988847032E34D0082E32D06FF00100D4
:1022D00009B0BDE8F08F761C032E01D0082EE0D1A6
:1022E000601CCAF80000DCE7A9690698641C8847EE
:1022F0007F1E2AD420F02000412826D1A969069803
:10230000641C88477F1E20D420F020004E281CD15A
:10231000A9690698641C88477F1E48F4002849F480
:102320008009CAF8004001D4282806D0E969069837
:1023300088475FEACB7012D022E0A9690698641C36
:1023400088477F1E01D4002803DAE9690698884788
:10235000BCE72928F1D1641CCAF80040E9E71BF06A
:10236000240F07D028680499031D2B600068C0E97A
:10237000001805E02868021D2A600068C0F8009077
:102380002046A5E70000F07F494E46494E49545982
:102390000000000010B50446AFF300802046BDE801
:1023A0001040FDF756BF000001491820ABBEFEE704
:1023B00026000200032A40F2308010F0030C00F0E7
:1023C000158011F8013BBCF1020F624498BF11F86F
:1023D00001CB00F8013B38BF11F8013BA2F1040228
:1023E00098BF00F801CB38BF00F8013B11F00303A0
:1023F0003FF4D6A9083AC0F0088051F8043B083AE7
:1024000051F804CBA0E80810F5E7121D5CBF51F8A5
:10241000043B40F8043BAFF30080D20724BF11F81F
:10242000013B11F801CB48BF11F8012B24BF00F884
:10243000013B00F801CB48BF00F8012B70470000BA
:102440002DE9F04385B0FDF72BFF00F0A1FBDA4C3E
:10245000206800F00C0004283DD154F8040C01F071
:1024600054F84FD1206800F47410B0F5E81F6CD117
:10247000D448016811F0060F0AD10168022262F304
:1024800002010160016801F00701022940F0898022
:10249000216841F4E0612160216841F460512160CC
:1024A000216821F0F001216054F8041C890178D5DD
:1024B00021680222C14E62F3010141F2883221609B
:1024C000316A236803F00C03082B42D0336A5B1A8D
:1024D0009342F6D965E001F018F802D12068C003F4
:1024E000BBD454F8040C40F4803044F8040CB348D6
:1024F000016A54F8042C9203B1D4026A521A642A75
:10250000F7D922E0AE4900200860AC48026A54F8CE
:10251000043C9B0104D5036A9B1A022BF7D914E0F3
:10252000226822F400322260226822F4741202F53A
:10253000E812226001220A60016A54F8042C920118
:1025400096D4026A521A022AF7D9EFF3108072B6B3
:10255000FEE7016801F00701032909D3016802229F
:1025600062F302010160006800F00700022818D140
:1025700020680421944D61F30A202060206820F433
:1025800060502060216801F00C000828284614D112
:10259000C1F383408DA2C903105C06D4904948431F
:1025A0000BE0EFF3108072B6FEE721688BA2684360
:1025B000C1F34041515CB0FBF1F02168DFF82482A7
:1025C000DFF82492C1F3031118F80110C8403179E3
:1025D000C9F800001020002918BF0F2000F00AFBE6
:1025E0002068022161F38F30206000F08EFF0ED151
:1025F00020682168C0F383400230C90304D52168F4
:10260000890301D4454302E0754900FB01F5774891
:10261000774B00270C214FF4E132C9F80050C0E994
:102620000032C0E90277C0E90471C0E90677216889
:10263000C1F3031118F8011025FA01F1C9F80010CF
:1026400000F090FB002840F0B480D9F800004FF46F
:102650007A71B0FBF1F00138B7EB106F08D1654922
:10266000F0224860644802700020886007200860FB
:10267000624C634DAC4202D201CC8047FAE761481C
:10268000C11C21F0030400F5005121F00301091BD6
:102690000A1822F00305192D05D304F13800A5F11D
:1026A0001801814205D257495AA005F09FFB00242A
:1026B00024E004F13B00002138224FF0000820F014
:1026C0000307204605F054FC4F4A0C2105F072FD2B
:1026D000E81B4EA2C7F80880A7622763A0F10C018F
:1026E0001838C4E905276063E06144F00100C7E9D8
:1026F000004145E9021145F80C0DE562544D424A8E
:102700000321746305F1200005F054FD05F1340048
:1027100050490024C5E90D000120C5E90F1485F8D2
:10272000290005F035FE06F14400F480C6E91100E9
:102730004948B4F5807F04D001190151496008343B
:10274000F7E7002047494FF400620A23B0631420E2
:10275000009042A005F0C1FE05F04CFF02AC002243
:10276000204605F073FE404D01212246284605F023
:1027700021FD20201F213E4A4FF48073CDE9001037
:102780003A49284601F0A8FA284605F033FF04A884
:1027900001F048FA0446F06305F0D6FD032084F802
:1027A000340004F11C00FDF7B0FD002005B0BDE8C9
:1027B000F08300F085F800BF04100240D000002034
:1027C000600042420020024000127A000203040529
:1027D000060708090A0B0C0D0E0F1010010200006D
:1027E00000093D0088B00008000000205C110020B6
:1027F0000048004010E000E023ED00E080C2000847
:1028000084C200089C140020FDC00008736D616C38
:102810006C0000006D656D20696E69742C20657216
:10282000726F7220626567696E206164647265739D
:102830007320307825782C20616E6420656E6420CA
:102840006164647265737320307825780A00000033
:10285000400100200100FF00A43500206D61696E79
:10286000000000005D6B0008A4110020198500081D
:10287000A436002010B501688A68D20701D1002073
:1028800010BD8A6822F001028A600B4A136A8C68C4
:10289000E407F4D0146AE41A032CF8D38C68E40734
:1028A000F5D0816A41F010018162C16A41F00101F5
:1028B000C162012010BD00BFD0000020FEE77047BC
:1028C000EFF3108072B6FEE790F82110022915D1BF
:1028D00010B50168D0E90F230C6824F00E040C60D9
:1028E0000C6824F001040C60012101FA03F3536029
:1028F00080F821100021BDE8104002E0042181632E
:102900000121002280F82020084670472DE9F84F69
:10291000934A4FF0000C4FF001084FF00F0990421E
:102920004FF0040208BF0322009200238D4AA2F553
:102930007E7A31FA03F208BFBDE8F88F08FA03F295
:1029400012EA010749D023F003025AF802B08D4A77
:10295000904208D08C4A904207D08C4A009E904208
:1029600008BF022602E0002600E001260CF00C025F
:1029700009FA02F59640FA430BEA0504B44217D16E
:10298000784C4FEA930B266816402660666816401E
:102990006660754EB64636681640CEF80060A6688A
:1029A0001640A6605AF82B6026EA05054AF82B5017
:1029B00064460646B7F5807F28BF203C28BF043612
:1029C000376809FA04F527EA0505042707FA04F42D
:1029D0002C433460C4682240C2600CF1040C013303
:1029E000A7E700BF2DE9FC4F5D4A04234FF0000A22
:1029F0004FF001084FF00F0E4FF00009904208BF52
:102A00000323009300250A6832FA05F408BFBDE8E5
:102A1000FC8F08FA05F712EA070C00F09D804C685D
:102A2000032C16D9112C24D0122C26D04F4A9442B4
:102A300013D04F4A944210D04E4A94420DD04E4A81
:102A400094420AD04D4A944207D04D4A944204D051
:102A500020E0DFE804F00216191D8C6834B1012C67
:102A600014BF476107614FF0080913E04FF00409F4
:102A700010E0CC6804F104090CE0CC6804F10C0906
:102A800008E0D1F80C9005E0CC6804F1080901E0F9
:102A90004FF0000954460746BCF5807F28BF203C14
:102AA00028BF04373B680EFA04F609FA04F4B3436E
:102AB00023433B60CB79DB064ED54C4A136843F089
:102AC000010313601368274A03F00103A2F57E7423
:102AD0002C4A0193019B904225F0030354F803B064
:102AE00008D0294A904207D0284A009E904208BF49
:102AF000022602E0002600E001260AF00C03AA08E4
:102B00000EFA03F706FA03F3174E2BEA07073B43C7
:102B100044F82230134B4F68FA029A6854BF22EAF5
:102B20000C0442EA0C049C60BA02326854BF22EAE8
:102B30000C0442EA0C043460BA035A6854BF22EA17
:102B40000C0442EA0C045C60FA031A6854BF22EADF
:102B50000C0242EA0C021A600AF1040A013552E73B
:102B600000140140000401400C0401400000111059
:102B7000000012100000211000002210000031108F
:102B80000000321000080140000C0140001001401C
:102B9000E0B553484FF6FF02016841F010010160B3
:102BA000614801681140104A114301600F2000F094
:102BB00021F8D7480222016841F001010160016853
:102BC00001F0010101910199416841F0805141609A
:102BD000406800F08050009000980548016862F35A
:102BE0001A6101608CBD00BF0003FA051810024095
:102BF000040001407CB504465848816941F0040155
:102C00008161816901F00401019101990168016804
:102C1000066800683248006800F08AF80025314AEA
:102C2000314940F2E73316F4E066956118BF01269A
:102C3000B040C2E9025315612C4EB0FBF6F00138EA
:102C4000C2E9001092F83D600EB982F83C500225AE
:102C500082F83D500D6825F47C750D60CB6288626A
:102C6000012048610B69DB0703D00B6923F00103E6
:102C70000B6182F8460082F83E0082F83F0082F83D
:102C8000400082F8410082F8420082F8430082F856
:102C9000440082F8450082F83D0092F83D0001288A
:102CA0001CD1022082F83D00C86840F00100C860D5
:102CB000886800F00700062803D0086840F001008B
:102CC00008600B484FF080410F2C016006D81E2091
:102CD0000F2100F00FF8E148012101717CBD00BF18
:102CE00000200240CC1000200008004040420F00AD
:102CF00000E100E010B50C4A4FF0FF341268C2F357
:102D00000222D31E82F0070238BF0023042A28BF04
:102D1000042204FA02F29143044A9940090162F341
:102D20001F20017010BD00BF0CED00E0E400E000CA
:102D300009480A490A4A00680968C1F30221515C3E
:102D4000C840704704480549054A00680968C1F34E
:102D5000C221515CC84070470000002004100240AE
:102D600098B0000868B32DE9F04186B0044690F8A9
:102D70004100644D38B3242041F20C6684F84100D0
:102D80002068D4E90212C36823F40053C3600369C6
:102D900023F440531A4302612269C36811436269F4
:102DA000B34311431943C1604169A26921F44071E1
:102DB0001143416105F54051884243D0FFF7B8FF08
:102DC00042E00120704720684F49002784F8407096
:102DD000CDE90477CDE90277884266D04B49884235
:102DE000C9D14B48016841F480410160016801F498
:102DF000804101910199016841F00401016000687E
:102E000000F00400019003200590022003904FF48D
:102E100000700290019802AE28463146FFF7E2FDAD
:102E200000203146CDE903004FF48060029028462F
:102E3000FFF7D8FD25200021FFF75CFF3548202152
:102E4000016098E7FFF77EFF1921334D4843D4E92D
:102E500000129200B0FBF2F06422B0FBF2F303FB2D
:102E60000500322505EB0010B0FBF2F000F0F00297
:102E700000F00F0002EB031210448860086920F490
:102E800090400861486920F02A004861C86840F411
:102E90000050C86000202021606484F8411084F84C
:102EA0004210606306B0BDE8F081194805F5806600
:102EB0000DF10808416841F480214160416801F446
:102EC000802101910199016841F0080101604146AA
:102ED000006800F008000190032005900220039094
:102EE0004FF48060029001983046FFF77BFD4FF46D
:102EF00000604146CDE9037702903046FFF772FD4E
:102F000039E700BF00080140004800400038014098
:102F10001810024004E100E09CFFFF0F2DE9F04192
:102F2000044690F8420020281CBF0220BDE8F08132
:102F3000A1B11D4600202223606484F84230206342
:102F40004648A285066AE285A068B0F5805F01D197
:102F5000206930B14FF000080F4604E00120BDE8C1
:102F6000F08100278846E08D08B32046202100F03C
:102F700089FAF0B95FB1A068B0F5805F0FD008B9E9
:102F8000206960B12068406800F07F0009E0206897
:102F9000002740686FF35F2028F8020B03E02068E9
:102FA000406807F8010BE08D0138E085DBE7002081
:102FB00000E00320202184F84210BDE8F08100BF2A
:102FC0002DE9F041044690F8410020281CBF022062
:102FD000BDE8F08199B100201D466064212084F88D
:102FE00041001E48A284066AE284A068B0F5805FB2
:102FF00001D1206930B14FF000080F4604E00120F4
:10300000BDE8F08100278846E08CA8B120468021E9
:1030100000F038FAE0B927B117F8010B21684860D1
:1030200006E038F8021B206800276FF35F2141603B
:10303000E08C0138E084E7E72046402100F022FAE6
:10304000202184F84110002818BF0320BDE8F0813A
:10305000202084F841000320BDE8F081D00000204A
:10306000F8B5174F154C4FF400754FF48076256076
:103070002660B8476560B84766603846BDE8F840E6
:10308000004700BFB0B50D4C4FF400754FF4807091
:103090006560206000F016F82560B0BD70B5084E80
:1030A000064C4FF400702060B0474FF480752560E7
:1030B000B04765603046BDE870400047100C0140E5
:1030C000C530000800BF00BF00BF00BF00BF00BF89
:1030D00000BF7047FEE7FEE7474900200022082AAC
:1030E00008BF00F01DB80023802B03D001F8330087
:1030F0000133F9E701310132F1E700BF10B501F00A
:1031000007030124C908002A3B4A04FA03F302EB2F
:10311000C000425C0CBF9A431A43425410BD00BF2A
:10312000F8B5354D144E0024082C08BFF8BDA4F1A5
:103130005000C0B2B04700200027B0471020B04771
:10314000FFF78EFF782000F00DFAFFF7A7FF402071
:1031500000F008FAFFF7A2FF802F07D015F837001C
:1031600000F000FAFFF79AFF0137F5E7FFF78AFF53
:1031700001350134D8E700BF053400081E4C002695
:103180000025280606D1F2B280201821102300F075
:103190009DF80136F0B20B2816D100263F2E12D82A
:1031A0000120214690280AD00022082A04D08B183A
:1031B0001B7A8B540132F8E708310130F2E7FFF750
:1031C000AFFF0136EAE70026681C0121224690295C
:1031D0000AD00023082B04D0D5182D7AD5540133FA
:1031E000F8E708320131F2E7C1B2B1F1100518BFBA
:1031F0000546FFF795FFC4E7B40100202DE9F04F25
:1032000085B01C468A468146082B01D1062709E075
:10321000012361074FEAD40118BF03EBD40163080F
:103220005943CFB261080026CDF80C900291A2F16B
:103230002001CAB2244902EB420301EB430101938E
:1032400004911F4901EB02110091BE4235D0082CB8
:1032500001D1049809E0102C06D00C2C2DD1019836
:10326000184901EB800000E0009830444FF000085E
:10327000554690F800B0B8F1070F0ED85FFA89F004
:10328000E9B20BF00102FFF739FF5FFA8BF008F1AA
:10329000010801354FEA500BEDE709F10109082C4F
:1032A00009D003995FFA89F0029A401A904204BF4C
:1032B0000AF1080A89460136C7E705B0BDE8F08F74
:1032C00098AA000824A60008FCA300082DE9FE4FD8
:1032D000894601218346A3F110005C07C0F3C400B6
:1032E0005E464FEAD30440EA431018BF01EBD30413
:1032F00004FB03F100270193C4B22148029100EBC3
:10330000421000900298874231D0062C2FD8DFE877
:1033100004F00406082E2E2E0A00009804E0174838
:1033200002E0154800E0134838444FF0000A4D46CB
:1033300090F80080BAF1070F0DD8F0B2E9B208F0AA
:103340000102FFF7DBFE5FFA88F00AF1010A01359E
:103350004FEA5008EEE701360199F0B2A0EB0B00FE
:10336000884204BF5E4609F108090137CAE7BDE893
:10337000FE8F00BFFCA000087CA0000834A000085D
:10338000D49E0008F8B5044600250A266727E8B24F
:10339000022888BFF8BDC5F102000121020604D051
:1033A00001EB810101384900F8E7B4FBF1F010238B
:1033B000B0FBF6F101EB8101A0EB4100302140F0C0
:1033C000300207EBC500C0B2FFF718FF0135DEE79A
:1033D0002DE9F0415E081C46154688460746082B35
:1033E00008BF06262A78A2F12000C0B25E2888BF56
:1033F000BDE8F081F8B241462346FFF7FFFE3744AF
:103400000135EFE770B50446FFF72AFE074D782037
:10341000A847074EB0470020A847B0472046A84716
:10342000B047BDE87040FFF72DBE00BF653500080E
:103430009D300008206850E8030F216820F010003C
:1034400041E80302002A7047206850E8050F216810
:1034500020F0400041E80502002A70472046002184
:1034600001232847B0F91014B1F1FF3F70474FF026
:10347000FF3080BD3078012185F8350001FA00F079
:10348000A863704732462B4600F0DCB94FF4FA735C
:1034900001F0FCBD214604F0A9BC2046FDF760BA4E
:1034A000206840F004002060206800F004007047AD
:1034B000009405F012B8206850E8050F216820F04C
:1034C000010041E80502002A7047642005F056B863
:1034D000484604F08BBC044600202072FCF7E0BE96
:1034E00008210822334604F081BC0020002100227C
:1034F000102338474FF4FA703047FF22FDF705BA22
:1035000020464FF4A271FEF7BFBC206800F00C000B
:1035100008287047206850E8030F2168704705F1BC
:103520004C000021012330474FF47A7005F026B893
:10353000D1F828C0BCF1000F7047C82005F01EB8B4
:103540004FF40071FCF744BF21460546A06951F8CD
:10355000142F5060A069A161026070473F22FEF7FE
:1035600029BF00002DE9F0410D4E044600254FF41F
:1035700000784FF48077072D88BFBDE8F08160B2F6
:10358000B0F1FF3FCCBFC6F80480C6F80080FFF75B
:1035900099FD3760FFF796FD776001356400EAE733
:1035A000100C01402DE9FE43FCF77AFEBE4D69790F
:1035B00001316971FCF778FEFCF772FE2A6BE96B4A
:1035C00001322A630A6C013A0A6402D0FCF76CFEED
:1035D0000BE0CA6B0A6491F8342042F0080281F8CB
:1035E0003420FCF761FE04F025FE01AECDE9016652
:1035F0002F6BFCF755FE804623488146284650F83D
:10360000444F844234D060694946381A48452FD81F
:10361000D4E9001048606068016014F80B0C246065
:1036200081075CBF00F0FE0004F80B0C01984460B9
:10363000C4E90006D4E90210019488472F6B019871
:10364000B042DBD0D4E9001048606068016014F833
:103650000B1CC4E900448807D0D5C807CED0A4F11C
:10366000140001F0FE0104F80B1C04F0F9FFC5E79B
:103670004046FCF719FEFCF713FE697901396971C0
:10368000BDE8FE43FCF710BEFEFFFF7F7047000061
:1036900010B5284B1868C1680269940707D58C07D4
:1036A00005D56FF00204046100241C778469540777
:1036B00007D54C0705D56FF00404046100241C777E
:1036C0008469140707D50C0705D56FF00804046159
:1036D00000241C77C469D40607D5CC0605D56FF045
:1036E0001004046100241C77C369D3070BD0CB07F7
:1036F00009D06FF0010303610F4B984203D16A4B6D
:103700001C6A01341C62130604D50B0644BF6FF01B
:1037100080030361530604D54B0644BF6FF040039A
:103720000361920604D5890644BF6FF02001016150
:1037300010BD00BFCC10002000080040406A0021EE
:10374000C185C1847047016851E8031F026821F4F4
:10375000907142E80313002BF5D1016851E8051F71
:10376000026821F0010142E80513002BF5D1016B3D
:10377000012909D1016851E8031F026821F01001F5
:1037800042E80313002BF5D1202180F842100021DC
:103790000163704781B02A4890F8421022294CD129
:1037A0008268B2F5805F09D10269816A52B9026804
:1037B00052686FF35F2221F8022B0DE00369816AE2
:1037C0001A4302D10268526803E00268526802F0AC
:1037D0007F020A70816A01318162C18D0139C18520
:1037E00009042AD10168CA6822F02002CA60CA68A6
:1037F00022F48072CA604A6922F001024A612021E3
:1038000080F8421000214163026B012A15D1016347
:10381000016851E8031F026821F0100142E8031318
:10382000002BF5D100680168C90606D5002100917A
:103830000168009140680090009801B0704700BF97
:10384000141100202DE9FC410568F44F80465E1CF0
:1038500028680840884223D0002EF9D0386A841A9C
:1038600003209C421AD8CBB1E8684007F0D5402924
:10387000EED08029ECD028680007E9D50024019417
:10388000286801906868019001984046FFF75BFF47
:10389000082088F84040C8F844000120BDE8FC81B9
:1038A0000020BDE8FC8100BFD0000020F8B5C94C65
:1038B000E06800285DD0016800295AD00A6ADAB1B0
:1038C000082190470146E06891B1002851D0016875
:1038D00000294ED04A6A3AB108219047E068002892
:1038E00047D00168002944D00A6B2AB19047E068AC
:1038F00000283ED00168E1B30A6A1AB3012190475B
:1039000000B3E06828B1016819B1096B09B18847B3
:1039100000E00020B4F8102440F2FE3311466FF3AB
:10392000DF31994202F4004308D8013221446FF399
:10393000DF321A44A4F81024087403E003F2FF30C5
:10394000A4F81004E068A0B1016891B10A6A82B1DC
:103950001021904768B1E06828B1016819B14A6A3E
:103960000AB110219047B4F8100440F40040A4F8C4
:103970001004994C20680268C168466915074FEA2F
:10398000826373D001F4907706F00106BF1971D0FD
:10399000D70705D0CF0503D5676C47F001076764EB
:1039A000570704D51EB1676C47F00207676492079A
:1039B00004D51EB1626C42F004026264002D07D58A
:1039C00001F02002921903D0626C42F00802626496
:1039D000626C002A00F0D580002B04D5890602D540
:1039E000FFF7D8FE20684069616C00F0400001F0EC
:1039F0000801401802BF00206064F8BD2046FFF7B0
:103A0000A2FE20684069400640F1BB80FFF71CFD24
:103A1000FCD1E06B002800F0B4807049416390F85D
:103A20002110022940F0AE8003686E4C6C4A196880
:103A300021F00E011960196821F0010119600121BE
:103A4000A34200F0AB80684CA34200F0A980674C11
:103A5000A34200F0A780664CA34200F0A680654C0C
:103A6000A34240F0A5804FF48034A9E0002B01D59B
:103A70008B0629D4236B012B03D1D30601D5CB06AA
:103A800026D4130601D50B060BD4520679D5490668
:103A900077D5C16821F04001C160202084F8410041
:103AA000F8BD94F8411021296BD1A268216AB2F5C2
:103AB000805F5DD12269002A5AD131F8022B6FF361
:103AC0005F222162426057E0BDE8F840FFF762BE26
:103AD00000210091016800914168009100994069BE
:103AE00040061CD4E08DA18DE28D002A49D0814290
:103AF00047D0FFF70FFD20F4907041E80302002A41
:103B0000F7D1FFF7D8FCFCD1202084F84200002038
:103B10002063FFF78FFCFCD102206063F8BDE06BEF
:103B2000016849688AB262B3A38D9A4229D2E185BD
:103B30008069202818D0FFF7EDFC20F4807041E860
:103B40000302002AF7D1FFF7B6FCFCD1FFF77CFC9B
:103B5000FCD1202084F8420000202063FFF76AFC9B
:103B6000FCD1E06BFEF7B0FE02206063E08DF8BD93
:103B70004A1C226209784160E18C0139E184090420
:103B800003D0F8BD0421816320E0C16821F08001E9
:103B9000C160C16841F04001C160F8BD01240FE07F
:103BA00010240DE04FF480740AE04FF4805407E0D5
:103BB00002F168054FF08074AB4208BF4FF48014E7
:103BC0001460002280F8202080F82110BDE8F84021
:103BD000FFF7B4BDB8060020141100203D370008DF
:103BE00004000240080002401C0002403000024075
:103BF0004400024058000240FEE700007B48C06BD2
:103C000018B10748203004F01DBA70477748C06BE0
:103C100018B10348203004F0CDB97047D00000201F
:103C20004001002071498A6B1AB1D1B221B1012241
:103C30000FE04FF0FF3110E012F47F4102D0090A8B
:103C4000092206E012F47F0107BF110E1922090CA8
:103C50001122054B595C114401390160034850F8A9
:103C600031001438704700BFFCA20008A4350020C2
:103C7000B0B55E48C46BFCF713FB0546204604F064
:103C800063FBFCF70DFB2246E16D52F8583F59608B
:103C9000E16DE2650B6094F84D10126001F0FE01D9
:103CA00084F84D10FCF700FB04F1440004F05EFAC8
:103CB0000848016844F8141F4C60042104606060E7
:103CC000284684F82010FCF7EFFABDE8B04004F075
:103CD000B1BA00BF64000020F8B504460020C4E972
:103CE000081004F11400C4E90A232321C4E90500E3
:103CF00010461A4604F03CF9D4E90A12D4E9080641
:103D0000DDE906CE1A4F6FF03F05114421F007029E
:103D1000A2F1400115B157510435FBE7154B0025C1
:103D20004FF0807742E9020742E9086542E906550B
:103D300004F1440042E90453E1610A21224684F877
:103D400035C0C4E90E5EC4F840E0C4E91C5584F8EF
:103D50003450256304F02EFA04F15801064884F823
:103D60004D50E566C4E9161104F1600131C1F8BD9A
:103D7000EFBEADDE713C00087D3D0008B0B50446E5
:103D8000FCF78EFAFFF7E0FB6FF00100096020639B
:103D9000204604F0A7FA2846FCF786FABDE8B040B2
:103DA00004F048BA80B502A004F020F8002080BDDD
:103DB0001B5B324A1B5B4800F8B5FFF71FFF0B483F
:103DC000406B00F11C0670CEFFF720FF0C4F08A0DF
:103DD0002146B8470BA02946B8470EA03146B84740
:103DE000611B10A0B8470020F8BD00BFD000002024
:103DF000746F74616C202020203A2025640A000032
:103E0000ED7D00087573656420202020203A202570
:103E1000640A00006D6178696D756D20203A202577
:103E2000640A0000617661696C61626C653A202504
:103E3000640A000010B5022814D14C681949FFF734
:103E40002CFBF8B11849FFF728FBF0B117A1FFF7D9
:103E500024FBE8B11649FFF720FBE0B11549FFF755
:103E60001CFBD8B11448154CA04715A0A047174813
:103E7000A04717A0A0471DA0A04723A0A04729A0A6
:103E8000A0470DE002F04EF90AE002F049FA07E01F
:103E900002F0BCF804E002F037F801E001F086FF20
:103EA000002010BD8DC0000802C1000873656D00C0
:103EB00073C10008ABC0000888BB0008ED7D000896
:103EC0005B6F7074696F6E735D3A0A0038BD0008ED
:103ED0002020202074696D6572202D206C69737418
:103EE0002074696D6572730A000000002020202094
:103EF00073656D202D206C6973742073656D61701E
:103F0000686F7265730A0000202020206D7574654B
:103F100078202D206C697374206D75746578730A30
:103F200000000000202020206D656D706F6F6C20F8
:103F30002D206C697374206D656D6F727920706FC0
:103F40006F6C730A0000000080B502F0EBF80020EF
:103F500080BD00002DE9F04F85B0804600F078F874
:103F6000424D4FF400002861142004F007FB802428
:103F70001E202C6103F026FFFCF792F981460120F8
:103F80000DF1040B039000205946CDE90140049047
:103F90002846FEF727FD002000F01EF948B3012057
:103FA00000F01AF928B3002000F016F908B3002435
:103FB0004FF0010A052C24D0002607270BF80460D7
:103FC000781C14D0012000F007F990B1282003F0EC
:103FD000F9FEA868000608D50AFA07F00643002093
:103FE0000BF8046000F0F8F818B1013FE8E701347D
:103FF000E0E74846FCF758F96FF0010005B0BDE86E
:10400000F08F00F025F8802028614846FCF74CF935
:104010009DF804009DF805109DF806209DF80730D6
:104020000C1814441C44E5B29DF80840AC420BD176
:1040300088F80000002088F8044088F8033088F8E9
:10404000022088F80110D9E74FF0FF30D6E700BF13
:10405000F8B50320694603900020029001200190EA
:10406000802000900148FEF7BDFC8FBD000C014090
:10407000D8B040F6B83004F081FA07AC434DDFF811
:10408000588B0DF1170A0FF2E80904F1F80004F15A
:104090002007049004F18C0003900126042E0CD01C
:1040A0005046FFF757FFD0B148463146032203F090
:1040B0009DFEFFF742FA0136F0E7FFF721FA384696
:1040C0002946FFF74BFA02204FF0010B03218DF830
:1040D000840032A0CDF87CB003F088FE20E0FFF72A
:1040E0000FFA38462946FFF739FA022028493F22BD
:1040F0008DF8840001201F900398FEF75BF99DF86E
:104100001960049823493F223A96FEF753F99DF827
:10411000172021483146559203F068FE4FF0030BFB
:10412000D8F8080003F08EFFD8F84C0068B1866913
:104130005EB12448244A254B0021CDE9004B029072
:1041400008F14C00B047064600E00126D8F8080008
:1041500003F030FF16B11E48314601E01D485946B4
:1041600003F044FE4FF4616004F008FA95E700BFE5
:104170002020444854313120726561642072657496
:1041800072792025642F25640A000000D49D000860
:10419000149E0008549E000829B7000820204448B7
:1041A0005431312072656164206661696C656420F8
:1041B0006166746572202564207265747269657326
:1041C0000A0000006BBF000875BF000880BF000830
:1041D00094B700084AB8000870B5094E04466FF05D
:1041E00063053068C0B2B4EBD01F04BF012070BDBE
:1041F00025B1012003F0E6FD0135F2E7002070BD96
:10420000080C0140F8B5774D914E044600210F4649
:10421000092907D8204629463246FFF737F9791C85
:104220000028F4D10020092F88BF0120F8BD00BF6D
:1042300010B510A003F0DAFD1648006840B181689F
:1042400031B114488847014618B9002412A00CE087
:1042500001211C481C4CA0471C48A0471C48A047F3
:104260001C48A0474FF0FF341BA003F0BFFD2046C1
:1042700010BD00BF54657374696E67204553503894
:1042800032363620415420636F6D6D616E642E2E80
:104290002E0A0000B8060020415420746573742073
:1042A0007375636365737321204553503832363616
:1042B00020697320726573706F6E64696E672E0A71
:1042C00000000000D1BB0008ED7D00084DBA0008D9
:1042D00033BE000853BD00082020332E2045535024
:1042E0003832363620626175642072617465202828
:1042F00073686F756C6420626520313135323030FF
:10430000290A0000B0B5A2B0009202AD0B460446E7
:1043100006A280212846FCF75BF80BA2204629461E
:1043200041F2883300F0B2FE22B0B0BD41542B43BD
:10433000495053544152543D22544350222C22257B
:1043400073222C2575000000434F4E4E4543540008
:10435000F54A02A14FF47A7300F098BE41542B4302
:104360004950434C4F53450010B50D4A08A14FF436
:10437000FA73044600F08AFE08B1012010BD0C4A11
:1043800008A120464FF4FA73BDE8104000F07EBE4D
:1043900041542B4349504D4F44453D3100000000EE
:1043A0002DC0000841542B43495053454E44000052
:1043B000A5BF000810B50446FFF7B6F808A12046CF
:1043C00004F0AFFCFFF7B0F800200649D64A4FF4DE
:1043D000FA73A4F81004204600F058FE002010BD27
:1043E0002B2B2B0057C0000870B5194A0C4615A19D
:1043F0004FF4FA73054600F049FE10B10125284636
:1044000070BDB5F8101405F1100000226FF3DF3114
:10441000425410A1FCF7ADF90028EFD02221FCF79F
:104420009EF90028EAD0461C22213046FCF797F975
:104430000028E3D00025314605702046FCF7D7F967
:10444000DDE700BF41542B434946535200000000B2
:104450002DC0000853544149502C000080B590B045
:1044600068464021FDF710FD0FA003F0BFFC144883
:10447000006868B143695BB11148694640229847BA
:10448000014630B90FA0694603F0B0FC002008E0F7
:10449000012110A003F0AAFC16A003F0A7FC4FF026
:1044A000FF3010B080BD00BF47657474696E67202F
:1044B000495020616464726573732E2E2E0A0000C9
:1044C000B8060020495020416464726573733A2035
:1044D00025730A00476574204950206661696C6540
:1044E0006421204572726F7220636F64653A2025E3
:1044F000640A0000506C6561736520636F6E6E65C1
:10450000637420746F2057694669206669727374FA
:104510002E0A000080B5FEF7D8FF4FF4FA7004F0C1
:104520002DF8002080BD0000B0B5A2B0009202AD11
:104530000B46044606A280212846FBF749FF09A244
:104540002046294642F2107300F0A0FD22B0B0BD13
:1045500041542B43574A41503D222573222C22259A
:10456000732200005749464920474F5420495000C4
:10457000B0B5032802DBD1E9014506E0012823D1CB
:10458000384C2FA0FEF786FF374D3848FEF782FFE4
:10459000374803F02BFC3748006850B1036943B13A
:1045A000344821462A469847014618B9324C00251E
:1045B00010E001213148324CA0473248A047324830
:1045C000A047324C324801E005A412A003F00EFCD3
:1045D0004FF0FF35204603F009FC2846B0BD00BF70
:1045E000202020202020206F7220757365206465B4
:1045F0006661756C7420636F6E66696720696E20F2
:10460000657370383236365F636F6E6669672E6821
:104610000A00000055736167653A2065737038328F
:1046200036365F6A6F696E5F6170205B73736964B1
:104630005D205B70617373776F72645D0A000000C8
:104640005573696E672064656661756C7420535399
:1046500049442066726F6D20636F6E6669673A2009
:1046600025730A00EFC000088EBF0008FBBC0008DD
:10467000DEB90008B80600200BB70008A9BB000887
:10468000ED7D00084DBA00087CBD00084EBE000854
:104690006CBC00087FB505461EA00C46214A017B74
:1046A0008368406811731B499360C2E90010E86891
:1046B00068B1016859B18E6A4EB11A491A4A4FF46D
:1046C0007A73B04718B9E868FEF7CCFE02DD042023
:1046D00004B070BD89B200F1100500206E4613A22F
:1046E00023466FF3DF31685430461021FBF770FE2C
:1046F00028463146FCF73DF80028E8D004466846D5
:10470000FCF799F82044FCF71DF80328DFDD0020B2
:10471000DEE700BF41542B4D515454434F4E4E3FA2
:1047200000000000CC0C00202DC000082B4D51547F
:1047300054434F4E4E3A25642C0000002DE9F843B7
:10474000C0680E46FEF78EFE02DD0120BDE8F8834C
:1047500089B290461030002299466FF3DF314254FF
:104760003949FCF706F80028EFD02221FBF7F7FFC4
:104770000028EAD0441C22212046FBF7F0FF002845
:10478000E3D00746001B4FF680717F25084208BF23
:1047900085B2304621462A46FCF7B7F800202C2186
:1047A0007055781CFBF7DBFF0028CED0471C38463D
:1047B000FBF7C8FF064680B208B1484501D9A9F108
:1047C000010638462C21FBF7CAFF0028BDD0B4B241
:1047D000411C089D40462246FCF797F8002008F847
:1047E00004005DB319A14046FBF7C3FF40B33A2173
:1047F000FBF7B5FF20B3411C0A7842F002002228E3
:1048000001F1010009D10146F6E7222A08D02C2A3D
:1048100006D07D2A04D010F8012BD2B2002AF4D1A0
:1048200001384FF6E0721F24401A104208BF84B2CC
:1048300028462246FCF769F800202855BDE8F88391
:104840000020BDE8F88300BF97BF000822696422FA
:1048500000000000BFB502B3044608980D464FF4AF
:104860000071002818BF01200290CDE900230DA29D
:104870002B460B48FBF7ACFDE06860B1016851B115
:10488000FEF756FE07D00649CF4A40F6B83304B0CB
:10489000BDE8B0406047012000E0032004B0B0BD97
:1048A000CC0C002041542B4D515454434F4E4E3D9F
:1048B00025642C222573222C25752C2564000000EC
:1048C00010B504460A480B460AA2FEF739FEE06816
:1048D00058B1016849B1FEF72BFE06D00449BA4A27
:1048E0004FF4FA63BDE810406047012010BD00BFDF
:1048F000CC0C002041542B4D515454434C45414E57
:104900003D256400002A6CD0002B6AD02DE9F04FC1
:10491000A5B0DDF8B8A0BAF1000F64D02F9D002D2E
:1049200061D01446CDE903010093309E05A83AA258
:1049300080212346FBF74CFD3FA3002E41A24FF4FC
:10494000007118BF33463E4E3046FBF741FD074627
:104950006C20554C4FF000080FF2001905FB00FBCE
:10496000C345B9B241D0B8F1000F06D07018C1F5F7
:1049700000714A46FBF72CFD07440AEB080595F841
:104980006800032803D8DFE800F00208121E286E32
:10499000B9B205F12003224613E0686E05F0A0F8D5
:1049A000CDE90001B9B205F120033AA210E0286E6A
:1049B00030A105F1200332A20028304808BF084684
:1049C000B9B2009004E0B9B2009505F1200324A229
:1049D0007018C1F50071FBF7FBFC074408F16C0887
:1049E000BEE703207047032013E07018C1F5007183
:1049F0002EA2FBF7EDFC3046FBF71DFF002180B235
:104A00003346CDE90001029105AADDE9030100F07A
:104A10004FF825B0BDE8F08F247379732F25732FDD
:104A200025732F7468696E672F70726F706572746A
:104A3000792F706F737400003132333435360000D3
:104A4000CC0E00207B226964223A222573222C227C
:104A5000706172616D73223A7B0000002C000000CF
:104A6000222573223A7B2276616C7565223A2225D3
:104A700073227D0066616C73650000009DC00008B4
:104A8000222573223A7B2276616C7565223A257362
:104A90007D000000222573223A7B2276616C7565C9
:104AA000223A252E32667D0032C200087D7D00004C
:104AB0002DE9F04F85B0EAB11D46DBB104460E98F2
:104AC000C0B10B46DDE90F61CDE90020304831A2CD
:104AD000CDE90261FEF734FDE06848B1016839B103
:104AE0008E6A2EB12A49334A4FF4FA63B04730B187
:104AF000012700E00327384605B0BDE8F08FE068E5
:104B000000212A46A0F810142B49E06804F009F9A6
:104B1000DFF8F88EDFF8B0A0DFF8B09040F6B83BD1
:104B200026A50027BBF1000F2ED0E068FEF79AFC07
:104B300020DC89B200F110066FF3DF313046775484
:104B40002946FBF716FE0028D5D130465146FBF723
:104B500010FED8B930464946FBF70BFE0028C7D1F6
:104B600030461BA1FBF705FE0028C1D1E0680021FB
:104B7000A0F81014D8F82000D8F82010091A02293B
:104B8000FAD3ABF1010BCDE70227B4E70027B2E778
:104B9000CC0C002041542B4D51545450554252419D
:104BA000573D25642C222573222C25752C25642C39
:104BB00025640000A5BF000808C100082B4D515412
:104BC000545055423A4F4B002DC000084AC00008CF
:104BD0004641494C00000000D00000208AB383B356
:104BE0002DE9F047A4B02C9F6FB316460DF11008C5
:104BF0000C4605460093DDE92DA915A2802140460B
:104C00003346FBF7E5FB1B481B4EB9F1000F1BA217
:104C10004FF400713B4618BF4846CDE900A030462E
:104C2000FBF7D6FB3046FBF706FE002180B242467A
:104C30003346CDE90001029128462146FFF738FFAF
:104C400002E003207047032024B0BDE8F08700BFD6
:104C5000247379732F25732F25732F7468696E67FA
:104C60002F70726F70657274792F7365745F7265DF
:104C7000706C790083C00008CC0E00207B22696430
:104C8000223A222573222C22636F6465223A25641E
:104C90002C226D7367223A222573227D00000000CA
:104CA0002DE9F04779B114466AB10E46099951B120
:104CB000DDF82CA0BAF1000F05D0C068FEF7D2FBDA
:104CC00005DD012500E003252846BDE8F08789B20F
:104CD000103000221D466FF3DF3142542F49FBF79D
:104CE00048FD0028EDD02221FBF739FD0028E8D04F
:104CF00000F1010922214846FBF731FD0028E0D0F0
:104D00008046A0EB09004FF680717F27084208BF5C
:104D100087B2304649463A46FBF7F7FD00202C2182
:104D2000F05508F10100FBF71AFD0028C9D0461C18
:104D30003046FBF707FD074680B208B1A84200D90C
:104D40006F1E30462C21FBF70AFD0028B9D0BFB2F8
:104D5000411C089E20463A46FBF7D7FD0025E55545
:104D6000C6B10FA12046FBF704FD98B1841D222196
:104D70002046FBF7F4FC68B1001B4FF6E0711F27DB
:104D8000084208BF87B2304621463A46FBF7BDFDD0
:104D90000020F0558AF8005096E700BF97BF000842
:104DA000226964223A220000BCB5DAB10D460446FD
:104DB0000D48CDE900230DA24FF400712B46FBF7FF
:104DC00007FBE06860B1016851B1FEF7B1FB07D0A5
:104DD0000549D64A4FF4FA6302B0BDE8B0406047D7
:104DE0000120BCBD0320BCBDCC0C002041542B4D88
:104DF0005154545355423D25642C222573222C25B1
:104E0000640000001CB5BAB104460C480B46009281
:104E10000BA2FEF795FBE06860B1016851B1FEF7A7
:104E200087FB07D00549F34A4FF4FA6302B0BDE8A7
:104E30001040604701201CBD03201CBDCC0C00208D
:104E400041542B4D515454554E5355423D25642CDD
:104E500022257322000000001FB5EAB1044602F5C6
:104E6000A0700B4602F1400102900D48CDE90021EF
:104E70000CA2FEF765FBE06860B1016851B1FEF776
:104E800057FB07D00649DB4A4FF4FA6304B0BDE88C
:104E900010406047012000E0032004B010BD00BFB7
:104EA000CC0C002041542B4D515454555345524382
:104EB00046473D25642C312C222573222C22257354
:104EC000222C222573222C302C302C222200000090
:104ED00080B50DA002F08AFF1148006868B1C16A70
:104EE00059B10F488847014640B90EA002F07EFF35
:104EF00012A002F07BFF002080BD012119A002F06A
:104F000075FFFEF7B4BA00BF526573657474696EBD
:104F10006720455350383236362E2E2E0A000000B8
:104F2000B806002045535038323636207265736516
:104F3000742073756363657373210A00506C656137
:104F40007365207761697420666F7220455350380D
:104F500032363620746F20726573746172742E2E2F
:104F60002E0A00004553503832363620726573657C
:104F700074206661696C656421204572726F7220CD
:104F8000636F64653A2025640A00000070B501284B
:104F900006DC344802F02AFF33A002F027FF29E0A4
:104FA0004D6816A0294602F021FF18480068E8B1B4
:104FB000866ADEB1154C164A29464FF4FA6320463C
:104FC000B047014698B913A002F010FFB4F91004DD
:104FD0000025B0F1FF3F0FDC80B204F110016FF348
:104FE000DF300D5413A002F001FF05E0012115A0F0
:104FF00002F0FCFE4FF0FF35284670BD53656E642D
:10500000696E673A2025730A00000000B806002088
:105010002DC00008436F6D6D616E64206578656317
:1050200075746564207375636365737366756C6C02
:1050300079210A00526573706F6E73653A0A2573A1
:105040000A000000436F6D6D616E64206661696CDB
:10505000656421204572726F7220636F64653A2027
:1050600025640A00DCBA00084578616D706C653A09
:1050700020657370383236365F73656E645F6174B5
:105080002041542B474D520A000000002DE9F04109
:1050900090460A46002415A11D460746A0F8104474
:1050A00003F03FFEB8F1000F1DD00024DDB107F181
:1050B0001006ADB1B7F91004B0F1FF3F0BDC80B2C0
:1050C00000216FF3DF30315430464146FBF751FB8E
:1050D00040B9A7F81044012003F050FA013DE8E779
:1050E000022400E000242046BDE8F08125730D0A6B
:1050F00000000000FFF7CABFB0B588B06D460B4690
:10510000044606A220212846FBF762F9394A2046C8
:105110002946FEF7BBF908B0B0BD00BF41542B4390
:10512000574D4F44453D2564000000002DC0000848
:1051300080B50CA002F05AFE1348006858B1C2684E
:105140004AB1114801219047014628B90FA002F049
:105150004DFE002080BD012113A002F047FEFEF7A6
:1051600086B900BF53657474696E67204553503823
:1051700032363620746F2053746174696F6E206DFF
:105180006F64652E2E2E0A00B80600205365742029
:1051900053746174696F6E206D6F646520737563FD
:1051A00063657373210A000053657420537461743E
:1051B000696F6E206D6F6465206661696C6564213E
:1051C000204572726F7220636F64653A2025640A0D
:1051D0000000000010B5074A04A1FEF757F9044685
:1051E00008B9FEF7A1F9204610BD00BF41542B526B
:1051F000535400002DC00008B0B5022806DC30482A
:1052000002F0F4FD2F4802F0F1FD1DE0D1E901406C
:10521000FBF798FA85B20EA021462A4602F0E6FD79
:105220001448006860B1836953B1124821462A4688
:105230009847014628B910A002F0D8FD0020B0BD63
:10524000012115A002F0D2FD4FF0FF30B0BD00BF2C
:10525000436F6E6E656374696E6720746F2054438C
:1052600050207365727665723A2025733A25640A78
:1052700000000000B806002054435020636F6E6E9B
:105280006563746564207375636365737366756CB9
:105290006C79210A0000000054435020636F6E6E49
:1052A000656374696F6E206661696C656421204571
:1052B00072726F7220636F64653A2025640A000081
:1052C00001BB0008F7B9000880B50BA002F08EFD05
:1052D0000F48006850B1C16941B10D488847014687
:1052E00028B90CA002F082FD002080BD01210EA093
:1052F00002F07CFDFEF7BBB8446973636F6E6E65A8
:105300006374696E67205443502E2E2E0A000000ED
:10531000B806002054435020646973636F6E6E6555
:1053200063746564210A0000544350206469736308
:105330006F6E6E656374206661696C6564212045DB
:1053400072726F7220636F64653A2025640A0000F0
:10535000002070470020704780B520A002F046FD75
:1053600029A002F043FDFEF763FF08B12EA008E07C
:10537000FEF7ABF833A002F039FDFFF7D9FE20B1FC
:10538000384802F033FDFEF772B8FEF79EF8364853
:10539000364902F02BFD3648006888B103697BB1BD
:1053A00033483249334A9847014650B9FEF78DF8E1
:1053B000314802F01BFDFFF751F830B12F48E0E70C
:1053C0000121314802F012FDDDE72D4802F00EFD0B
:1053D0002C4802F00BFD002080BD00BF0A3D3D3D82
:1053E0003D3D3D3D3D3D3D20455350383236362014
:1053F000576946692054657374203D3D3D3D3D3DF0
:105400003D3D3D3D0A0000000A5B312F345D2054D4
:10541000657374696E6720415420636F6D6D616EB2
:10542000642E2E2E0A0000000A54657374206661F3
:10543000696C656420617420737465702031210A81
:10544000000000000A5B322F345D205365747469DC
:105450006E672053746174696F6E206D6F64652E82
:105460002E2E0A00F9B50008F4BC0008EFC00008B1
:10547000B80600208EBF00089CB9000812B60008CC
:1054800089BA0008C4B60008F1BB00082A48C06AFF
:1054900090F82100800703D407480021017070476D
:1054A00010B5054C00202071044820602046FBF711
:1054B000C2F93E21215210BDB40500206D73682051
:1054C000F8B51D4F1D481E49C7E90910782002F0A4
:1054D000CFFC40B300217822002402F049FDF8629D
:1054E0000A201A494FF400621523009015A002F01B
:1054F000F4FFFE6A054616A20221304602F05AFE6B
:1055000006F11400B4837472C6E90500F86A90F8D5
:10551000211041F0020180F821105DB1284603F00E
:1055200069F8002406E00020F8620BA002F05EFC9F
:105530004FF0FF342046F8BDD0000020ECC3000837
:1055400090C20008747368656C6C000071550008A7
:1055500073687278000000006E6F206D656D6F7269
:105560007920666F72207368656C6C0A0000000019
:1055700088B0DFF898B4DBF82C0090F8211041F0E7
:10558000010180F82110FFF781FFDFF884643046C5
:1055900002F02CFCDFF87C74DFF88094E846384693
:1055A000414601220023FDF7B9FC40B10A2002F078
:1055B000E5FFDBF82CA0FF240AF120000AE09DF8AB
:1055C0000040DBF82CA00AF120001B2C02D10121A5
:1055D0000170E4E79AF82020A4F10801022A06D01D
:1055E000012A27D15B2C23D102210170D7E70022A9
:1055F0000529027034D9A4F141000228CFD3002C30
:10560000CDD0432C00F04D81FF2CC8D07F2C49D049
:10561000442C1CD1BAF876000028C0D0FDF758FF02
:10562000DBF82C00B0F876100139A0F87610B6E758
:1056300000220270052904D8DFE801F0346B180954
:105640000918002CABD07F2C2CD0FF2CA7D0BAF897
:1056500074005028C0F0C4800020AAF87400EBE069
:10566000DFE801F0205704030304F0E79AF8210073
:10567000C00705D0DFF8A80302F0B8FBDBF82CA0C8
:10568000BAF874500AF123000AF12204002D00F048
:1056900094812178202901D009297BD10130013D55
:1056A0000134F3E7BAF8761000293FF478AFBAF87E
:1056B0007420481EAAF87600531E82B2AAF87430ED
:1056C0009BB2934240F280800AF12204A018214448
:1056D0009A1A02F037FCDBF82C000023B0F87410A3
:1056E00000F122025354B0F8760011180FF2743012
:1056F00002F07CFBDBF82C00B0F87640B0F87400C8
:1057000084423FF64CAFFDF7E3FEDBF82C0001349A
:10571000F4E70024BAF87600844205D2FDF7D8FEFB
:10572000DBF82CA00134F5E7BD4802F05FFB1AF866
:10573000220F002800F0A180DBE909670024002582
:10574000BE4236D2D6F800805046FBF774F80246C7
:1057500050464146FBF78EF8D0B925B94046FBF7D5
:105760006AF8054644460020215C271831B118F834
:1057700000201AB1914201D10130F5E7BBA04146AA
:1057800002F034FB381BA842B8BF0546DBF828708E
:105790000C36D5E74FF00008C9B2092969D0202995
:1057A00067D0454500F0928010F8011B08F1010810
:1057B000F2E7974E974F002CE84660D050462146BE
:1057C0002A4602F057FE5AE0A5A002F00FFBDBF8D4
:1057D0002C00B0F874100844002180F82210DEE696
:1057E000BAF87610814227D2421A514401F12300BF
:1057F000223102F0A7FBDBF82CA0BAF87600504467
:1058000080F822409AF82100C00709D0BAF8760043
:10581000504400F12201984802F0E8FADBF82CA08D
:10582000BAF87640BAF87400844211D2FDF750FEFF
:10583000DBF82CA00134F5E7504480F822409AF8B8
:105840002100C00704D07448FDF724FEDBF82CA02B
:10585000BAF87400BAF8761001300131AAF8740071
:1058600080B2AAF87610502824BF0020CAF874002D
:1058700095E6B8F1000F2AD18FE001F0E9FEFFF7BD
:1058800005FE7BA03146524602F0B0FADBF82C4010
:1058900004F12200FAF7CFFFA4F87600A4F8740010
:1058A0007DE6BAF87600BAF874108842BFF477AE95
:1058B000504490F82210584802F098FADBF82C0077
:1058C000B0F876100131A0F8761068E6A846DBE95A
:1058D000097A574561D23E68214642463046FAF77A
:1058E000C9FF10B916F8080008B10C37F1E7D7F86E
:1058F0000880B8F1000F50D0684600212022002710
:1059000002F036FB20460026AF4245D20278202A1C
:1059100001D0092A08D1AF4204D20021013700F892
:10592000011BF3E7294600E03946082E56D2A9426A
:1059300032D2222A15D101306A4642F82600037875
:105940004A1C222B1CD0AA421AD25C2B06D1034639
:1059500013F8017F222F04BF8A1C1846013011461C
:10596000EDE76A4642F8260001360022835C8F1874
:10597000092B0DD0202B0BD0AF423FD20132F5E7DF
:105980000136AA423AD200228F1C00F8012BBBE755
:105990001044AF42B8D331E086BB1D4E1D4F2046A8
:1059A000E846017841F02001202901D00130F8E7D4
:1059B0000021017024A0FDF76DFDFFF767FD304663
:1059C00002F014FADBF82C0000215122223002F000
:1059D000CFFADBF82C0000214167E0E511A002F0CE
:1059E00005FA34466D4617A72CB102CD384602F0B1
:1059F000FDF9013CF8E70A4802F0F8F96C46304638
:105A00002146C047024E034FA046D6E7D0000020F3
:105A1000B40500205C11002080C00008C0B500085B
:105A20006DBE0008546F6F206D616E7920617267E2
:105A3000732021205765206F6E6C79205573653A6D
:105A40000A0000002573200025733A20636F6D6DF6
:105A5000616E64206E6F7420666F756E642E0A002E
:105A600008200800082573202008000025730A007C
:105A7000257325730000000008C10008064C20684B
:105A800000F4005040EA004080F4005060604FF4A1
:105A9000FA7002F073FDF2E70C1001402DE9FC41B1
:105AA0008A4C94F86800012870D000200090606C47
:105AB0008168C90726D18168864A41F00101816069
:105AC00083490968B1FBF2F10091009911B1009985
:105AD0000139F9E780490A6A8368DB0712D10B6A4A
