:020000040800F2
:1000000008470020B5010008470D0008A1020008BC
:10001000450D0008A5090008C10F000800000000F8
:10002000000000000000000000000000C701000800
:10003000A70900080000000023020008850D000841
:10004000CF010008CF010008CF010008CF01000850
:10005000CF010008CF010008CF010008CF01000840
:10006000CF010008CF010008CF010008CF01000830
:10007000CF010008CF010008CF010008CF01000820
:10008000CF010008CF010008CF010008CF01000810
:10009000CF010008CF010008CF010008CF01000800
:1000A000CF010008CF010008CF010008CF010008F0
:1000B000CF010008CF010008710E0008CF01000831
:1000C000CF010008CF010008CF010008CF010008D0
:1000D000CF010008CF010008CF010008CF010008C0
:1000E000CF010008CF010008CF01000800F002F89E
:1000F00000F050F814A696E8000CB244B344DA4578
:1001000001D100F047F8BAE80F000FA696E83000DA
:10011000A5EB040504EB0607AAEB0704A7F101070A
:100120004FEA15154FEA3414A4F10104AC4201D38F
:1001300000F030F813F0010F18BFFB1A43F0010371
:1001400000F001F8DBE718473835000058350000AB
:10015000103A24BF78C878C1FAD8520724BF30C8F3
:1001600030C144BF04680C60704700007047000055
:100170000023002400250026103A28BF78C1FBD8B0
:10018000520728BF30C148BF0B6070471FB51FBD65
:1001900010B510BD00F05EF91146FFF7F7FF00F053
:1001A0008FF900F07CF903B4FFF7F2FF03BC00F015
:1001B0007FF900000948804709480047FEE7FEE74D
:1001C000FEE7FEE7FEE7FEE7FEE7FEE7FEE7FEE707
:1001D00004480549054A064B704700006D0E0008AB
:1001E000ED000008084100200847002008430020D7
:1001F00008430020EFF3108072B6704780F3108838
:100200007047344A1368012B04D04FF00103136088
:10021000314A1060314A116031484FF0805101601D
:100220007047EFF3108272B62A48016891B14FF01F
:10023000000101602848016829B1EFF3098121E933
:10024000F00F00680160254909680968B1E8F00FFE
:1002500081F3098882F310884EF0040E70471F491D
:1002600008601D494FF0000008601A494FF0010076
:1002700008601C481C49D0F8002041EA02010160D6
:1002800017484FF08051016018480068006880F3FB
:10029000088861B662B6BFF34F8FBFF36F8F7047A8
:1002A0001EF0040F0CBFEFF30880EFF3098020E984
:1002B000F00F40F804ED1EF0040F0CBF80F3088827
:1002C00080F3098800B502F035F85DF804EB4EF0D4
:1002D000040E7047044100207C3E0020803E002038
:1002E00004ED00E020ED00E00000FFFF08ED00E07D
:1002F00010B5431C02E010F8011B71B18107FAD15F
:100300004FF0013202C88C1A8C4314EAC211F9D0A2
:10031000C01A0A0603D0C01E10BDC01A10BD0A04C0
:1003200001D0801E10BD0902FCD0401E10BD40EA65
:10033000010370B59B072ED14FF00136042A2AD352
:1003400008C810C99D1B9D43121F15EAC61517D07A
:10035000D8B2E1B2401A50EA056110D198B2A1B208
:10036000401A50EA05410AD123F07F4024F07F4132
:10037000401A50EA052102D1180EA0EB146070BD9E
:10038000A342DBD018BA21BA884201D9012070BD3E
:100390004FF0FF3070BD0AB9002070BD10F8013B6E
:1003A00011F8014B63B1A3420AD1521E08D010F8D4
:1003B000013B11F8014B1BB1A34201D1521EEDD1FB
:1003C000181B70BD4FF0013C50F8042B51F8043B52
:1003D0009A4221D1A2EB0C03934313EACC1317D119
:1003E00050F8042B51F8043B9A4215D1A2EB0C03B0
:1003F000934313EACC130BD150F8042B51F8043B70
:100400009A4209D1A2EB0C03934313EACC13DBD03D
:100410004FF00000704700BFD01A01BAB1FA81F165
:1004200001F0180122FA01F0CB40DBB2C0B2C01AD1
:10043000C1F120012CFA01F3D11A914311EAC31141
:10044000E6D170477047704770470000004870471A
:10045000600000207546FFF7F9FFAE4605006946CB
:10046000534620F00700854618B020B5FFF7B0FED0
:10047000BDE820404FF000064FF000074FF00008A5
:100480004FF0000BAC46ACE8C009ACE8C009ACE8E2
:10049000C009ACE8C00921F007018D46704710B5CE
:1004A0000446AFF300802046BDE81040FFF77BBE56
:1004B00001491820ABBEFEE726000200704700008D
:1004C0002DE9F04788B0FFF795FE00F02BFBCF4CED
:1004D000206800F00C00042817D000F04EFC02D178
:1004E0002068C00311D454F8040C40F4803044F860
:1004F000040CDFF8F803416854F8042C920306D486
:100500004268521A642AF7D95FE054F8040C00F0EC
:1005100034FC37D1206800F47410B0F5E81F54D1D2
:10052000BB48016811F0060F09D10168022262F38D
:1005300002010160016801F00701022971D12168FF
:1005400041F4E0612160216841F46051216021683B
:1005500021F0F001216054F8041C890161D5216863
:100560000222E24E62F3010141F288322160716899
:10057000236803F00C03082B2BD073685B1A93429B
:10058000F6D94EE0DA4900200860D848426854F8AD
:10059000043C9B0104D543689B1A022BF7D914E055
:1005A000226822F400322260226822F4741202F5DA
:1005B000E812226001220A60416854F8042C92017A
:1005C000AED44268521A022AF7D9EFF3108072B6FD
:1005D000FEE7016801F00701032909D3016802223F
:1005E00062F302010160006800F00700022818D1E0
:1005F00020680421BF4D61F30A202060206820F4A8
:1006000060502060216801F00C000828284614D1B1
:10061000C1F38340B8A2C903105C06D4BB49484368
:100620000BE0EFF3108072B6FEE72168B6A26843D4
:10063000C1F34041515CB0FBF1F02168DFF8D0A27A
:10064000DFF8D082C1F303111AF80110C8403178E5
:10065000C8F800001020002918BF0F2000F094FAFD
:1006600000F08BFB0ED120682168C0F3834002307C
:10067000C90304D52168890301D4454302E0A34995
:1006800000FB01F5C8F800502A46A34DA34F4FF0D8
:1006900000090C204FF4E131C5E90071C5E9029968
:1006A000C5E90490C5E906992068C0F303101AF85B
:1006B000000022FA00F0C8F8000095F8410040BBA5
:1006C00085F84090CDF81890A06940F48020A06192
:1006D000A06900F4802003900398606940F008004E
:1006E0006061606900F00800039003200790022019
:1006F00005904FF480600490039804AC204600F00D
:1007000053F94FF40060CDE905990490204600F0BC
:100710004BF9242041F20C6385F84100F86820F47D
:100720000050F860386920F440503861D5E9040180
:10073000FA689A4308431043F860786920F44070DF
:10074000786100F0B1FA1921754A48434FF4E1216C
:10075000B0FBF1F1B0FBF2F0724A00FB0211322261
:1007600002EB01116422B1FBF2F101F0F00201F0A1
:100770000F0102EB001008444FF47A71B860386939
:1007800020F490403861786920F02A007861F86898
:1007900040F40050F8602020C5F8449085F84100EE
:1007A00085F84200C5F83490D8F80000B0FBF1F0AD
:1007B0000138B9EB106F08D15B49F02248605B4803
:1007C00002700020886007200860594C594DAC42E7
:1007D00002D201CC8047FAE75748C11C21F003043C
:1007E00000F5705121F00301091B0A1822F00305DE
:1007F000192D05D304F13800A5F11801814209D261
:100800004D4952A001F018FF002428E004100240D6
:100810000020024004F13B00002138224FF0000884
:1008200020F00307204601F0B7FF44A20C2102F09C
:100830000BF8E81BC7F8088042A2A0F10C01183899
:10084000C7E900416063E06144F00100C4E90527A5
:10085000A762276345E9021145F80C0DE562B46112
:1008600002F0C6F806F128004749C6E90A00002050
:100870007080B0F5807F04D00A180A5052600830AA
:10088000F7E7002043490A221423F0613FA002F059
:1008900038F902F0DFF904AC0022204602F006F934
:1008A0003D4D01212246284601F0CEFF20201F2188
:1008B0003B4A4FF48073CDE900103849284600F0D8
:1008C000DDFB284602F0C6F904A800F07BFB0446D5
:1008D000306202F069F8032084F8340004F11C004F
:1008E000FFF7BDFC002008B0BDE8F087C000002085
:1008F0006000424200127A0002030405060708095C
:100900000A0B0C0D0E0F10100102000000093D0033
:100910006A31000800000020BC01002000480040AF
:100920000020BF029CFFFF0F10E000E023ED00E07D
:10093000EC350008F03500087C0200206865617025
:1009400000000000736D616C6C0000006D656D202F
:10095000696E69742C206572726F722062656769B6
:100960006E206164647265737320307825782C2062
:10097000616E6420656E64206164647265737320C7
:10098000307825780A000000043F00206D61696E10
:10099000000000001920000804020020792B000844
:1009A00004400020FEE770472DE9F84F54494FF00E
:1009B000000A4FF0010E4FF00F0C4FF0000800231B
:1009C000056835FA03F608BFBDE8F88F0EFA03F79D
:1009D0003D4000F08E804668032E16D9112E25D09A
:1009E000122E27D0484A964213D0484A964210D039
:1009F000474A96420DD0474A96420AD0464A964206
:100A000007D0464A964204D021E0DFE806F00217FC
:100A10001A1E84683CB13B4A012C14BF5761176110
:100A20004FF0080813E04FF0040810E0C46804F128
:100A300004080CE0C46804F10C0808E0D0F80C804D
:100A400005E0C46804F1080801E04FF000085646CC
:100A50002C4AB5F5807F28BF203E28BF0432146899
:100A60000CFA06F708FA06F6BC4334431460C27960
:100A7000D2063ED58B46424923F003060A6842F06F
:100A800001020A600A681D4902F001020E44009248
:100A90000AF00C02009F0CFA02F40EFA02F2204F48
:100AA000B946F75927EA040422430C4646F80920C0
:100AB0004768FA028A6854BF22EA050642EA050638
:100AC0005946A660BA020A6854BF22EA050642EAFD
:100AD00005060E60BA03626854BF22EA050642EAC0
:100AE00005066660FA03226854BF22EA050515432D
:100AF00025600AF1040A013362E700BF00040140E7
:100B00000C040140000C0140000011100000121004
:100B100000002110000022100000311000003210EF
:100B200008FCFFFFE0B55B484FF6FF02016841F0AB
:100B3000100101605A4801681140104A11430160D8
:100B40000F2000F021F80E480222016841F0010157
:100B50000160016801F0010101910199416841F0D2
:100B600080514160406800F0805000900098054836
:100B7000016862F31A6101608CBD00BF0003FA05D1
:100B800018100240040001407CB504464C488169BD
:100B900041F004018161816901F004010191019931
:100BA00001680168066800683A48006800F07CF84F
:100BB0000025D949D94A40F2E73316F4E0668D643E
:100BC00018BF0126B040C1E90E530D64324EB0FB90
:100BD000F6F00138C1E90C2091F86D600EB981F88A
:100BE0006C50022581F86D50156825F47C751560F0
:100BF000D3629062012050611369DB0703D013694F
:100C000023F00103136181F8760081F86E0081F80A
:100C10006F0081F8700081F8710081F8720081F82E
:100C2000730081F8740081F8750081F86D0091F807
:100C30006D0001282CD1022081F86D00D06840F0B1
:100C40000100D060906800F00700062803D010680B
:100C500040F00100106011484FF080420F2C0260FC
:100C600016D80F484FF0FF330068C0F30220C21EB1
:100C700080F0070038BF0022042828BF042003FAB0
:100C800000F0C0439040074A000110700120087036
:100C90007CBD00BF0020024040420F0000E100E0A8
:100CA0000CED00E01EE400E00448054905A20068E0
:100CB0000968C1F30221515CC84070470000002060
:100CC000041002400000000001020304F8B5BB4D0F
:100CD00095F84110202934D198B300262121E54A06
:100CE0006E6485F841100121A9845468E984A968DB
:100CF0002A6981F4805151EA02070CBF0646074673
:100D0000E88CB0B180202146012200F009F9A8B991
:100D100027B117F8010B2968486006E036F8021B76
:100D2000286800276FF35F214160E88C0138E88470
:100D3000E6E740202146012200F0F2F8202085F865
:100D40004100F8BDFEE7FEE721460546A06951F8DF
:100D5000142F5060A069A16102607047284601F01D
:100D60006BBC0821082201F067BC044600202072F9
:100D7000FFF740BA2046FFF725BB206800F00C00C3
:100D8000082870472DE9FE43FFF734FAB94D69781A
:100D900001316970FFF732FAFFF72CFA6A69296AA4
:100DA00001326A610A6C013A0A6402D0FFF726FA3E
:100DB0000BE0CA6B0A6491F8342042F0080281F813
:100DC0003420FFF71BFA01F065FD01AECDE90166A5
:100DD0006F69FFF70FFA804623488146284650F88E
:100DE000284F844234D060694946381A48452FD884
:100DF000D4E9001048606068016014F80B0C2460AE
:100E000081075CBF00F0FE0004F80B0C0198446001
:100E1000C4E90006D4E90210019488476F6901987B
:100E2000B042DBD0D4E9001048606068016014F87B
:100E30000B1CC4E900448807D0D5C807CED0A4F164
:100E4000140001F0FE0104F80B1C01F025FFC5E7BA
:100E50004046FFF7D3F9FFF7CDF96978013969709A
:100E6000BDE8FE43FFF7CAB9FEFFFF7F70470000F1
:100E700010B5C74B186BC1680269940708D58C0779
:100E800006D56FF002040461002483F84C408469A5
:100E9000540708D54C0706D56FF0040404610024FC
:100EA00083F84C408469140708D50C0706D56FF009
:100EB00008040461002483F84C40C469D40608D5B2
:100EC000CC0606D56FF010040461002483F84C4072
:100ED000C469D4070AD0CC0708D06FF001040461BC
:100EE0000E4CA04202D15C6801345C60130604D54C
:100EF0000B0644BF6FF080030361530604D54B0615
:100F000044BF6FF040030361920604D5890644BFD5
:100F10006FF02001016110BDC000002000080040FA
:100F2000F8B5264CF94E25682B680340834242D021
:100F300073685F1A032397423ED8EAB3EB685B07F6
:100F4000F2D54028F0D08028EED02B681B07EBD5D7
:100F50000020009028680090686800900098206841
:100F600050E8030F216820F4907041E80302002A42
:100F7000F5D1206850E8050F216820F0010041E814
:100F80000502002AF5D1206B012809D1206850E81C
:100F9000030F216820F0100041E80302002AF5D178
:100FA0002020012384F842000020206384F84000C0
:100FB0000820606400E000231846F8BDBC01002052
:100FC000FEE70000F149CA691AB1D1B221B101228C
:100FD0000FE04FF0FF3110E012F47F4102D0090A18
:100FE000092206E012F47F0107BF110E1922090C35
:100FF0001122054B595C114401390160034850F836
:1010000031001438704700BF6A300008043F0020E8
:10101000B0B5DE48046AFFF7EDF80546204601F05A
:10102000C3FCFFF7E7F82246E16D52F8583F5960DC
:10103000E16DE2650B6094F84D10126001F0FE0165
:1010400084F84D10FFF7DAF804F1440001F0D8FB02
:101050000948016844F8141F4C6004210460606072
:10106000284684F82010FFF7C9F8BDE8B04001F029
:1010700011BC00BFC000002054000020F8B5044699
:101080000020C4E9081004F11400C4E90A23232154
:10109000C4E9050010461A4601F07EFBD4E90A12A5
:1010A000D4E90806DDE906CE1A4F6FF03F0511447A
:1010B00021F00702A2F1400115B157510435FBE7B9
:1010C000154B00254FF0807742E9020742E9086599
:1010D00042E9065504F1440042E90453E1610A2162
:1010E000224684F835C0C4E90E5EC4F840E0C4E985
:1010F0001C5584F83450256301F0A6FB04F1580117
:10110000064884F84D50E566C4E9161104F1600103
:1011100031C1F8BDEFBEADDE11100008211100088D
:10112000B0B50446FFF766F8FFF70EFE6FF001005A
:1011300009602063204601F005FC2846FFF75EF8B1
:10114000BDE8B04001F0A6BB80B502A001F074FA82
:10115000002080BD1B5B324A1B5B4800F8B501F0E4
:101160007DF80B48806900F11C0670CE01F082F812
:101170000C4F08A02146B8470BA02946B8470EA03F
:101180003146B847611B10A0B8470020F8BD00BF2A
:10119000C0000020746F74616C202020203A20254C
:1011A000640A000039260008757365642020202039
:1011B000203A2025640A00006D6178696D756D2004
:1011C000203A2025640A0000617661696C61626CD6
:1011D000653A2025640A000010B5022810D14C6839
:1011E0001549FFF7C7FDC8B11449FFF7C3FDC0B1EA
:1011F00013A1FFF7BFFDB8B11249FFF7BBFDB0B1B6
:101200001148124CA04712A0A04714A0A0471AA052
:10121000A04720A0A04726A0A0470AE000F010FDAC
:1012200007E000F00BFE04E000F07AFC01E000F0C3
:10123000CBFB002010BD00BFC1350008E23500081F
:1012400073656D00DA35000893330008392600080D
:101250005B6F7074696F6E735D3A0A002020202006
:10126000746872656164202D206C697374207468E1
:1012700072656164730A00002020202074696D6526
:1012800072202D206C6973742074696D6572730A05
:10129000000000002020202073656D202D206C6947
:1012A00073742073656D6170686F7265730A0000F6
:1012B000202020206D656D706F6F6C202D206C6973
:1012C0007374206D656D6F727920706F6F6C730A27
:1012D0000000000080B500F0B3FC002080BD0000DD
:1012E0002A48006990F82100800703D408480021AB
:1012F0000170704710B5064C002020710548206031
:101300002046FEF7F5FF3E21215210BDC00000200F
:10131000380100206D736820F8B51C4F1C481D492A
:10132000C7E90210782001F0B7F928B3002178222C
:10133000002401F031FA1A49386117A015220A2356
:1013400001F0DFFB3E69054616A20221304601F09E
:101350007BFA06F11400B4837472C6E9050038699B
:1013600090F8211041F0020180F821105DB128466B
:1013700001F070FC002406E0002038610BA001F0B1
:101380005BF94FF0FF342046F8BD00BFC0000020DD
:1013900080360008FC350008747368656C6C0000CA
:1013A000C513000873687278000000006E6F206D2E
:1013B000656D6F727920666F72207368656C6C0A58
:1013C0000000000088B0DFF83485D8F8100090F8ED
:1013D000211041F0010180F82110FFF781FFDFF8B3
:1013E000200501F029F9DFF81CA50027DFF81C55BE
:1013F0009AF8420020285DD12220CAF844704FF0AC
:10140000010900258AF842000120CAF83070AAF8C4
:101410002C00D8F80440AAF82E00DAF80800DAF810
:10142000101080F4805050EA010668460CBF054653
:101430000646BAF82E0048B3202021460022FFF7C6
:101440006FFD90BB76B1DAF80800B0F5805F12D07E
:1014500010B9DAF8100070B1DAF80000406800F056
:101460007F000BE0DAF80000002640686FF35F2091
:1014700025F8020B04E0DAF80000406806F8010BDA
:10148000BAF82E000138AAF82E00D2E720208AF8F8
:1014900042009DF80040D8F810B00BF120001B2C42
:1014A00000F02882DFF864540CE0DFF8605420205C
:1014B0008AF842000A2001F091FBD8F810B0FF240E
:1014C0000BF120009BF82020A4F10801022A06D08D
:1014D000012A29D15B2C26D10221017088E7052938
:1014E000077039D9A4F141000228FFF481AF002C24
:1014F0003FF47EAF432C00F04D81FF2C3FF478AFDA
:101500007F2C4BD0442C1ED1BBF8760000283FF432
:101510006FAFFFF723FCD8F81000B0F87610013950
:10152000A0F8761064E70770052904D8DFE801F019
:10153000366B1A0B0B1A002C3FF45AAF7F2C2DD0B0
:10154000FF2C3FF455AFBBF874005028C0F0C180A9
:101550000020ABF87400E8E0DFE801F02055040358
:101560000304F0E79BF82100C00705D0DFF8A003D3
:1015700001F062F8D8F810B0BBF874400BF123000A
:101580000BF12206002C00F090813178202901D047
:10159000092979D10130013C0136F3E7BBF8761017
:1015A00000293FF425AFBBF87420481EABF8760045
:1015B000531E82B2ABF874309BB293427ED90BF1CA
:1015C0002204A01821449A1A01F0D0F8D8F810008B
:1015D000B0F8741000F122025754B0F876001118D8
:1015E0000FF2703001F028F8D8F81000B0F876400B
:1015F000B0F8740084423FF6FBAEFFF7AFFBD8F8BB
:1016000010000134F4E70024BBF87600844205D2D0
:10161000FFF7A4FBD8F810B00134F5E7BC4801F09F
:101620000BF81BF8220F002800F0A080D8E9025721
:1016300000240026BD4236D2D5F800905846FEF769
:1016400057FE024658464946FEF771FED0B926B904
:101650004846FEF74DFE06464C460020215C271802
:1016600031B119F800201AB1914201D10130F5E7EA
:10167000BAA0494600F0E0FF381BB042B8BF0646AA
:10168000D8F80C700C35D5E74FF00009C9B209291C
:1016900068D0202966D04C4500F0918010F8011BDD
:1016A00009F10109F2E7994D002C4FF000075FD0D6
:1016B00058462146324601F00DFA59E0A4A000F048
:1016C000BBFFD8F81000B0F87410084480F82270FE
:1016D0008EE6BBF87610814227D2421A594401F1B6
:1016E0002300223101F042F8D8F810B0BBF87600A0
:1016F000584480F822409BF82100C00709D0BBF86D
:101700007600584400F1220197A000F095FFD8F828
:1017100010B0BBF87640BBF87400844212D2FFF7D9
:101720001DFBD8F810B00134F5E7584480F822408A
:101730009BF82100C00705D07348214600F07CFFCC
:10174000D8F810B0BBF87400BBF876100130013146
:10175000ABF8740080B2ABF87610502828BFCBF8F5
:10176000747045E6B9F1000F2AD18FE000F064FCF7
:10177000FFF7B6FD62497AA05A4600F05DFFD8F83F
:10178000104004F12200FEF7B3FDA4F87600A4F89F
:1017900074002DE6BBF87600BBF874108842BFF4E5
:1017A00027AE584490F82210574800F045FFD8F86B
:1017B0001000B0F876100131A0F8761018E6A146B6
:1017C000D8E9027B5F4561D23D6831464A462846EA
:1017D000FEF7ADFD10B915F8090008B10C37F1E7B7
:1017E000D7F80890B9F1000F50D0684600212022A8
:1017F000002700F0D1FF30460025A74245D20278ED
:10180000202A01D0092A08D1A74204D20021013799
:1018100000F8011BF3E7214600E03946082D54D2B9
:10182000A14232D2222A15D101306A4642F825005F
:1018300003784A1C222B1CD0A2421AD25C2B06D160
:10184000034613F8017F222F04BF8A1C184601307B
:101850001146EDE76A4642F8250001350022835C17
:101860008F18092B0DD0202B0BD0A7423CD2013270
:10187000F5E70135A24237D200228F1C00F8012B78
:10188000BBE71044A742B8D32EE06DBB1F4D3046D6
:101890000027017841F02001202901D00130F8E72C
:1018A000077025A0314600F0C7FEFFF719FD144868
:1018B00000F0C2FED8F8100000215122223000F0C2
:1018C0006BFFD8F81000476792E512A000F0B4FE55
:1018D0002C466E462CB102CE16A000F0ADFE013CA7
:1018E000F8E70B4800F0A8FE28466946C847074DB0
:1018F0000027DAE780F8009078E500BFC0000020FC
:1019000038010020BC010020BE3500080433000867
:1019100070340008546F6F206D616E7920617267BA
:10192000732021205765206F6E6C79205573653ABE
:101930000A0000002573200025733A20636F6D6D47
:10194000616E64206E6F7420666F756E642E0A007F
:1019500008200800082573202008000025730A00CD
:10196000257325730000000025730000F8B50646B6
:10197000C86800240C6128B3087A0D4610B33446B9
:101980002F68002E08BF3C46FEF734FC36B116F82F
:10199000042C297A02F07F028A4210D1696800265D
:1019A0002468BC4206D0EA6841F8264001369642D7
:1019B000F6D100E00024FEF721FC2E6102E0FEF7E4
:1019C0001DFC00242046F8BD2DE9F04F93B00820FF
:1019D000082400F025FF00210430384A8DF84040EB
:1019E000CDE9114106AC0E902AA008210F9400F019
:1019F00023FE00F04FFB32A000F01EFE404F0020FF
:101A00000EA9FFF7B3FF9DF840A0DDF848904FF016
:101A100000080590C84536DA54F828B0FEF7EAFB0E
:101A20001BF8045CFEF7EAFB05F07F00504527D168
:101A30000BF12005ABF10C034FF0FF30294609688C
:101A40000130A942FBD1DBF81060DBE9062168B167
:101A5000CDE90210CDE9006222A0FFF782F9284605
:101A600001F0D0FA384600F0E7FD09E00020CDE9AA
:101A70000062029108210822039022A000F0DCFD00
:101A800008F10108C6E705980028B9D1002013B075
:101A9000BDE8F08F252D2A2E7320626C6F636B20BA
:101AA000746F74616C206672656520737573706500
:101AB0006E64207468726561640A0000DA3500089B
:101AC000202D2D2D2D20202D2D2D2D20202D2D2D87
:101AD0002D202D2D2D2D2D2D2D2D2D2D2D2D2D2D43
:101AE0000A000000252D2A2E2A7320253034642078
:101AF00020253034642020253034642025643A00C9
:101B000070340008252D2A2E2A73202530346420B5
:101B100020253034642020253034642025640A00D8
:101B20002DE9F04F91B00220022400F079FE8DF8EB
:101B300038400024082104302FA210940F9104AEE5
:101B40000C9026A00D9600F077FD00F0A3FA2DA0D2
:101B500000F072FD354D0FF2C40B20460CA9FFF7C3
:101B600005FF9DF83880DDF84090002703904F4531
:101B70002CDA56F827A0FEF73DFB1AF8044CFEF7C6
:101B80003DFB04F07F0040451ED1AAF10C035AF83A
:101B9000082F4FF0FF31BAF808005446246801318D
:101BA0005445FBD152450AD0CDE900015846FFF714
:101BB000D8F8504601F026FAFFF7D0F804E0CDE956
:101BC00000011BA0FFF7CDF80137D0E7039C002CE4
:101BD000C3D1002011B0BDE8F08F00BF252D2A2E03
:101BE00073207620202073757370656E642074688E
:101BF000726561640A00000073656D6170686F72E0
:101C000065000000202D2D2D202D2D2D2D2D2D2D6D
:101C10002D2D2D2D2D2D2D0A00000000252D2A2ED5
:101C20002A7320253033642025643A00703400087C
:101C3000252D2A2E2A7320253033642025640A009E
:101C40002DE9F04FB1B00120012400F0E9FD04308E
:101C5000554A8DF8B840002408210DF1900A2C90C7
:101C6000504830942F91CDF8B4A000F0E5FC00F07E
:101C700011FA4EA000F0E0FC06AE20462CA9FFF7BA
:101C800075FE9DF8B880309D4FF0000B0390CDE9B4
:101C90000458AB457DDA5AF82B90FEF7ABFA19F8E9
:101CA000041C01F07F01414508D1A9F10C085FEA4D
:101CB000887106D07821324643462AE0FEF79EFA24
:101CC00064E0782200230F2A06EB03010FD909EB09
:101CD00003040431103A54F80C7C54F8045C54F8B2
:101CE000084CF75059F80370B0C11033EBE708EB1C
:101CF00003020027082F03D0D359CB510437F9E74B
:101D0000D319CA19002104E013F8014B013902F874
:101D1000014B0029F8D1FEF771FA99F82900082142
:101D200008224346009031A000F086FC99F8280074
:101D300000F00700042804D82FA151F8200000F07B
:101D40007BFCD9F81C00DDE90458431E13F8011F81
:101D50002329FBD0D9E90827D9F81010D9F834C0C5
:101D6000002F00D57F42294C0B2F02D8284C54F865
:101D700027401718C01A6423CDE900C41044791A0B
:101D80005843B0FBF2F323A000F056FC0BF1010B1B
:101D90007FE7039C002C7FF470AF002031B0BDE8DA
:101DA000F08F00BFC9330008C1350008202D2D2D4C
:101DB00020202D2D2D2D2D2D2D202D2D2D2D2D2D7A
:101DC0002D2D2D2D202D2D2D2D2D2D2D2D2D2D205D
:101DD000202D2D2D2D2D2D20202D2D2D2D2D2D2D5A
:101DE0002D2D2D202D2D2D0A00000000252D2A2E11
:101DF0002A732025336420007234000884340008DC
:101E0000C8350008D13500087B340008A835000823
:101E1000D4320008203078253038782030782530CA
:101E200038782020202025303264252520202030BD
:101E300078253038782025730A0000002DE9F04F0E
:101E400091B00A200A2400F0EBFC0027082104309E
:101E5000394A8DF8384010970F9104AC0C9029A0A6
:101E60000D9400F0E9FB00F015F934A000F0E4FB5C
:101E7000454E47A538460CA9FFF778FD9DF83890E8
:101E8000DDF840A0414F4FF000080390D0452CDA18
:101E900054F828B0FEF7AEF91BF8041C01F07F01DE
:101EA00049451DD1FEF7AAF9DBE90601ABF10C03A8
:101EB0000822CDE900013046082100F0BDFB1BF8E7
:101EC000030CC007284608BF384600F0B5FB1BF8D6
:101ED000030C800754BF3348314800F0ADFB01E0EC
:101EE000FEF78CF908F10108D0E7039F002FC1D15C
:101EF0001E4841691EA000F09FFB002011B0BDE804
:101F0000F08F00BF252D2A2E732020706572696F17
:101F100064696320202074696D656F7574202020CA
:101F20002061637469766174656420202020206DCF
:101F30006F64650A00000000E2350008202D2D2D99
:101F40002D2D2D2D2D2D2D202D2D2D2D2D2D2D2DCE
:101F50002D2D202D2D2D2D2D2D2D2D2D2D2D202DCB
:101F60002D2D2D2D2D2D2D2D0A000000C00000201F
:101F700063757272656E74207469636B3A3078258C
:101F80003038780A0000000058350008463500084F
:101F9000616374697661746564202020000000002C
:101FA000AA3300081A34000884B0FEF7BBFD1848B5
:101FB000016841F020010160016801F020010091F9
:101FC0000099016841F008010160016801F0080111
:101FD00000910099016841F0040101604FF04071E7
:101FE000006800F00400009000980A480160032097
:101FF000039000200290012001904FF44070009067
:102000006846FEF7D1FC642000F0E8FDFBE700BF66
:1020100018100240100C0140B0B5054C054DAC4203
:1020200002D201CC8047FAE7BDE8B040FFF7BCBF61
:10203000F0350008F835000870B50AA000F0FCFA89
:102040000F4D11A4AE68E868864205D2F6E8031287
:10205000204600F0F1FAF6E70A4800F0EDFA002019
:1020600070BD00BF52542D5468726561642073685E
:10207000656C6C20636F6D6D616E64733A0A00006D
:10208000C000002070340008252D313673202D202B
:1020900025730A00B0B56FF0070504A425B12046EA
:1020A00000F0CAFA0135F9E7B0BD00BF2D0000000D
:1020B0002DE9F04F88B0DDF84CE05FA64FF0300B13
:1020C00094465FEA4E6457A458BF26465FEACE6442
:1020D00048BF2EF0010E5FEACE7408BF4FF0200B10
:1020E0005FEA8E74DDE9114905D400224FF0010842
:1020F000019200921BE0BCF1FF3F07DD5FEA4E75E5
:102100000FD45FEA0E75F0D520220BE00122CDF846
:102110000CE0CCF1000C0192002202922D220092E0
:102120000AE02B2200924FF0000801220192BCF13C
:10213000000F20D0CDE9028E00270A250DF11008EE
:10214000BCF1000F13D0BCFBF5F20CF00F0E0A2B04
:1021500002EB820A08BFACEB4A0E16F80E4008F8F4
:10216000074018BF4FEA1C1201379446E8E7DDE943
:10217000028E119C03E0302201278DF810204F457C
:102180004B46C8BF3B46E21A1EF0110F10D1002487
:10219000002AC8BF0124019D2C402025121B012AC2
:1021A00005DB884238BF0570013A0130F7E7013A94
:1021B000B8F1000F05D188423CBF009C047001308B
:1021C000013A5FEACE6409D4012A06DB884238BFAF
:1021D00080F800B0013A0130F6E7013A30259F421D
:1021E00005DA884238BF0570013B0130F7E704ABE0
:1021F000B9F1000F10D0002F0EDD884203D2DC1998
:1022000014F8014C0470013F0130F1E788423CBFF3
:1022100020230370013A0130012AF7DA08B0BDE843
:10222000F08F00BF303132333435363738396162A0
:102230006364656600000000303132333435363770
:1022400038394142434445460000000001480249F4
:10225000016070470CED00E00400FA0580B5FDF761
:10226000C9FFD6494A8801324A80BDE88040FDF75F
:10227000C5BF00BF10B5FDF7BDFFD04C6188013967
:10228000618009B2002903DDBDE81040FDF7B6BF4B
:1022900000216180FDF7B2FF206A18B1BDE810404F
:1022A00000F0F8BA10BD00BF002842D0F8B50446CF
:1022B000FFF7D4FF214651F80C0D20F00100D0F8B3
:1022C00030C0086061453CBF01638C46826A54F8A7
:1022D000085C076AAE188B1B3B44036212D033784C
:1022E000DB070FD1C36A9E420CD0B44504BF016323
:1022F0008C467568002333608B1A44F8085C766856
:102300001644B36054F8046C97198F420DD03B7893
:10231000DB070AD18C4508BF07637D60002044F8C5
:102320000C0C54F8080C10448660BDE8F840FFF728
:10233000A1BF70470446016C7148724DA847616A9D
:102340007148A847A16A7148A847E16A7048A84740
:10235000216B7048A84761686F48A847A1686FA0C3
:10236000A847E16871A0A847216974A0A8476169DE
:1023700076A0A847A16979A0A847E1697BA0A847F2
:10238000216A7EA0A847616B80A0A847A16B83A0AB
:10239000A847E16B85A0A8472078400703D4894867
:1023A00000F04AF906E08548016A854800F044F9E2
:1023B000FFF746FC844C6068800702D5834800F034
:1023C0003BF96068400040F19280607888B38048B3
:1023D00000F032F961787F4800F02EF96078C0078C
:1023E00002D07D4800F028F96078800702D57B484C
:1023F00000F022F96078400702D5794800F01CF916
:102400006078000702D5774800F016F96078C006BA
:1024100002D575A000F010F994F90100B0F1FF3F6A
:1024200003DD744800F008F903E02169704800F00A
:1024300003F9207858B3704800F0FEF821786F480F
:1024400000F0FAF82078C00702D06D4800F0F4F8E8
:102450002078800702D56B4800F0EEF8207800075E
:1024600002D5694800F0E8F82078C00602D5674830
:1024700000F0E2F894F90000B0F1FF3F03DD5D48A1
:1024800000F0DAF803E0E168614800F0D5F8608810
:1024900068B3604800F0D0F861885F4800F0CCF87D
:1024A0006088C00702D05D4800F0C6F860888007E9
:1024B00002D55B4800F0C0F86088400702D5594853
:1024C00000F0BAF86088000702D5574800F0B4F869
:1024D0006088C00502D5554800F0AEF860888005D8
:1024E00002D5534800F0A8F8424800F0A5F860680B
:1024F000B0F1FF3F02DC4F4800F09EF8FEE700BF5E
:1025000065340008392600082434000831340008F6
:102510003E3400084B340008583400087230353A15
:10252000203078253038780A000000007230363AC2
:10253000203078253038780A000000007230373AB1
:10254000203078253038780A000000007230383AA0
:10255000203078253038780A000000007230393A8F
:10256000203078253038780A000000007231303A87
:10257000203078253038780A000000007231313A76
:10258000203078253038780A000000007231323A65
:10259000203078253038780A00000000206C723A2C
:1025A000203078253038780A000000002070633A27
:1025B000203078253038780A00000000C000002064
:1025C000203300080633000828ED00E0B43300088B
:1025D0006733000804350008EF340008E4340008CD
:1025E000E2340008D834000853544B4552522000BE
:1025F0007333000870340008463300081A350008A9
:10260000B3340008A9340008D7340008CE340008D9
:10261000833300085933000830350008F8340008C7
:102620009F3400088D340008C83400089434000832
:10263000BD3400080D34000883B07EB5054607A8F8
:10264000134C0EC007AB7F212A462046019300F0B1
:1026500081FB1049002081F840000D218DF80B10FE
:10266000215C01300029FBD1461E0DF10B055EB146
:1026700020780A2802D12846FEF728FB2046FEF7DC
:1026800025FB013E0134F2E7BDE87E4003B0704710
:10269000843E0020BC0100202DE9F0410446FFF7F4
:1026A000DDFD64B1D148D0F818E0E01C20F003054E
:1026B0000C2D98BF0C25DEF834C0AC4505D20024A3
:1026C000FFF7D8FD2046BDE8F081DEF82810DEF8DF
:1026D0003080ACEB0504A8EB0107A742EFD83E46DB
:1026E000CB19885D5F68C007F7D106F10C003A1A74
:1026F000AA42F2D305F11804A24205D2DEE9082469
:10270000B81B1044844214E005F10C0405442EF07B
:1027100001000CF10C024851481947605D60866069
:10272000406890421CBF08448560DEE908022044EE
:102730008242CEF8200001D2CEF824004EF00100F3
:10274000186043450ED109E0DEF82C00804509D021
:10275000D8F8040001EB0008CEF8308098F80000AB
:10276000C007F1D103F10C04AAE700BF10B5814204
:1027700009D28B18834206D90139431E5AB18C5CA9
:102780009C54013AFAE703462AB111F8014B013A89
:1027900003F8014BF8E710BD10B5042A15D310F06B
:1027A000030312D1CBB24FF001345C4303460F2A2E
:1027B00008D9C3E90044C3E90244103A1033F6E7EC
:1027C00010C3043A042AFBD204E0034602E003F8F3
:1027D000011B013A002AFAD110BD10B5FEF7C5FA67
:1027E0002246216952F80C3F5960216922610B6031
:1027F0001260FDF703FD2046BDE81040FFF754BD11
:1028000010B5FEF7B2FA54F80C1F62684A606268AD
:102810001160C4E90044BDE81040FDF7EFBC0000C2
:1028200008496FF05F0212F1100304BF00207047E7
:102830000A4492F8602082421A46F4D1C8185030F7
:10284000704700BF04000020F8B50446084615464E
:102850000E46FFF7E5FF0746FFF700FD0437384651
:102860000068B842FCD1FFF705FD46F0800029461C
:1028700008222072204600F02DF9FDF7BBFC3968D4
:1028800044F80C1F4C603C606760BDE8F840FDF701
:10289000B5BC0000F8B5FDF7ADFCED4F04467888F7
:1028A00020B12046BDE8F840FDF7A8BCF869002833
:1028B000F7D06846FEF786FB3D6A064695F8340079
:1028C00000F0070103290DD195F83510009A8A42CE
:1028D00003D803070AD48A4208D100F0F70085F82C
:1028E000340020E0AE421ED03E6209E000F0F70066
:1028F000AE4285F8340016D028463E6200F022F839
:10290000304600F051F896F8340006F11C0100F052
:10291000F800033086F8340005F11C007A7872B1B3
:10292000FDF76FFCBDE7284600F03EF8386A90F8E6
:10293000341001F0F801033180F83410B1E7FDF7ED
:1029400060FCAEE7B0B50446FDF754FCF34994F8DB
:1029500034500B6A05F0F802A34213D042F0010292
:10296000214B2D0784F8342094F8352003EBC20264
:1029700004F114030BD4156865616B60136004F1F6
:10298000180308E042F0030184F8341008E05568A9
:10299000A5612B6053601A60A26BCB691A43CA61B0
:1029A000BDE8B040FDF72ABC10B50446FDF722FC97
:1029B000214651F8142F4B6853604B681A60C1E9E7
:1029C000001191F82110084A02EBC10352F83110AE
:1029D000994205D1D14AA16BD36923EA0101D161A2
:1029E000BDE81040FDF70ABC043F0020C0000020F5
:1029F0001CB50948094CA04709A0A04711A014A183
:102A000001220123CDE9001014A00421A0471CA03D
:102A10002146BDE81C4008473D3300083926000820
:102A20002D205254202D20202020205468726561D2
:102A300064204F7065726174696E67205379737496
:102A4000656D0A0031373A35333A313700000000FE
:102A50004D6179203130203230323600202F207CF9
:102A6000205C202020202025642E25642E25642033
:102A70006275696C642025732025730A00000000CC
:102A80002032303036202D203230323220436F70E9
:102A90007972696768742062792052542D54687283
:102AA000656164207465616D0A00000082B0E0B564
:102AB000CDE9042304AB05A24FF0FF31019300F0F0
:102AC00049F9BDE88C4002B0704700BF7469646C7E
:102AD000652564006AB1B0B5034604460D7804F874
:102AE000015B3DB1013A01F101012346F6D1BDE898
:102AF000B0407047012100248A42F8D05C54013173
:102B0000FAE72DE9FC470646012099469246884699
:102B10000127FFF785FE0546C068FFF7BDFD38B306
:102B2000EA6800210446FFF737FE31460822078194
:102B3000FFF7D0FFFDF75EFB55F8041F224642F871
:102B40000C1F4A602A605560FDF758FB4FF4806007
:102B5000FFF7A2FD48B10246204641464FF480638C
:102B6000CDE900A9FEF78AFA03E02046FFF735FE1B
:102B700000242046BDE8FC87DFF85C8000200428A4
:102B800025D1D8F80060464523D0FDF733FBD6E9C0
:102B900000124A6072681160C6E90066FDF72EFBFC
:102BA00016F90C7CF56DA6F11404B7F1FF3F02DCB9
:102BB0002046FFF725FE0DB12046A847002FE0D4A0
:102BC0007069FFF771FB2046FFF707FED9E7013078
:102BD000D5E70020D3E700BF54000020F8B5064633
:102BE0004E48046AFDF706FB0546002046EAE677F4
:102BF000206394F8340000F00500012813D1FDF79C
:102C0000F9FA06462046FFF7CFFE94F8340000F0AC
:102C1000F800023084F8340004F1440000F080F839
:102C20003046FDF7EBFAFDF7E5FAA766FDF7E6FAA1
:102C300004F1440000F030F82846FDF7DFFAFFF712
:102C400029FE206B023004BF00202063F8BD00BFC6
:102C5000C0000020B0B504460220012184F83400F1
:102C600094F8350001FA00F0A063FDF7C3FAFEF70F
:102C70006BF804F14400096000F052F82046FFF7B9
:102C800061FE2846FDF7BAFA2448006A18B1BDE88B
:102C9000B040FFF7FFBDB0BD2DE9F0418046FDF724
:102CA000A9FA4146DFF874E051F8142F0EF1280715
:102CB0004B6853604B681A60DEF814200B6909609A
:102CC00011F80BCC9D1801226FF000434D61DEF826
:102CD0002C40D2070ED0A74209D03E463F687A6901
:102CE000521BF8D09A42F6D200223746F1E7002272
:102CF0002746EEE73A68C8F8142051604CF001020C
:102D00003960C8F8187088F80920DEF824200132EC
:102D1000CEF82420BDE8F041FDF770BAC0000020D5
:102D200010B50446407AC00708BF10BDFDF762FA2F
:102D300054F8141F62684A606268116014F80B1C32
:102D4000C4E9004401F0FE0104F80B1CBDE810408A
:102D5000FDF754BA2DE9F04F87B04518994606465D
:102D60000DF1180A4FF0200B06920491002948BF7C
:102D70004FF0FF3505901078252807D0002800F087
:102D80002481AE4200D23070013609E1511C4FF06F
:102D90000008084610F80129202A09D0232A09D062
:102DA000302A09D02D2A09D02B2A0CD1042006E084
:102DB000082004E0202002E0012000E0102048EA82
:102DC00000080131E5E7A2F130030691092B05D88F
:102DD000504600F033F9069904460EE02A2A0AD13B
:102DE000811C069159F8044BB4F1FF3FDCBF48F059
:102DF0001008644201E04FF0FF340B782E2B0BD10A
:102E00004A1C06924878A0F13003092B07D8504697
:102E100000F014F906990CE04FF0FF3C0CE02A2872
:102E200004D10231069159F8040B02E04FF0FF3053
:102E300011460B7820EAE07C43F004006C2805D1B1
:102E4000481C9E4606904F78014602E04FF0000E67
:102E50001F46A7F16F0009280BD9252F44D0582F02
:102E600047D0692F18BF642F0DD148F002080A23FC
:102E700042E00A23DFE800F005175B5B2B5B405B59
:102E80005B3F082338E0632F51D15FEAC86000F14F
:102E90008C80022CC0F28880AE4238BF86F800B029
:102EA000013C0136F5E7601C59F8042B08BF0824E3
:102EB0002946CDE9004CB0FA80F01023400940EAE1
:102EC0000800C0B202903046FFF7F2F867E059F808
:102ED000041B46A0002908BF014600239C4233D0B2
:102EE000C85C90B30133F9E7AE42BFF44DAF252083
:102EF00049E748F040081023BEF1680F04D0D9F824
:102F00000020BEF16C0F05E0B9F800205FEA887080
:102F100048BF12B25FFA88F02946CDE9004C029012
:102F20003046FFF7C5F8064609F1040938E0AE421D
:102F300003D22520307006990F78701C6FB3A84219
:102F400038BF077002362BE0234663451A46C8BFD8
:102F50006246BCF1000FD8BF1A465FEAC86009D4C8
:102F6000A24206DAAE4238BF86F800B0013C013614
:102F7000F6E7013C0023F01893420BDAA8423CBF6D
:102F8000CF5C07700133F6E7A84238BF80F800B085
:102F9000013C0130A242F7DB01E00139069106460F
:102FA0000698421C0692E6E6013CAE423CBFD9F8C8
:102FB0000000307009F104090136022CF0DBAE424A
:102FC00038BF86F800B0013CF6E70498059A00285F
:102FD00048BFD04328B1AE42304628BF681E00210A
:102FE0000170B01A07B0BDE8F08F00BF284E554CF5
:102FF0004C290000002070470020704700207047D7
:1030000000207047F8B5044609A50BA607463F689F
:10301000A74208BFF8BDA7F1140228460821FFF710
:103020000BFB3868A042F2D03046FFF705FBEEE715
:10303000252E2A73000000002F00000002680021E6
:103040001378303B092B84BF08467047531C01EBB3
:1030500081010360127802EB41011A463039EFE733
:1030600080B5FFF7C5FC002080BD00000100020014
:103070000100030001000200010004000100020041
:103080000100030001000200010005000100020030
:103090000100030001000200010004000100020021
:1030A000010003000100020001000600010002000F
:1030B0000100030001000200010004000100020001
:1030C00001000300010002000100050001000200F0
:1030D00001000300010002000100040001000200E1
:1030E00001000300010002000100070001000200CE
:1030F00001000300010002000100040001000200C1
:1031000001000300010002000100050001000200AF
:1031100001000300010002000100040001000200A0
:10312000010003000100020001000600010002008E
:103130000100030001000200010004000100020080
:10314000010003000100020001000500010002006F
:103150000100030001000200010004000100020060
:103160000100030001000200010000000000000057
:1031700000000102030406070809636C6561720020
:10318000636C65617220746865207465726D696E28
:10319000616C2073637265656E0076657273696F2A
:1031A0006E0073686F772052542D546872656164A5
:1031B0002076657273696F6E20696E666F726D61DD
:1031C00074696F6E006C6973745F746872656164B2
:1031D000006C69737420746872656164006C697353
:1031E000745F73656D006C6973742073656D6170D5
:1031F000686F726520696E2073797374656D006CF9
:103200006973745F6D656D706F6F6C006C6973745A
:10321000206D656D6F727920706F6F6C20696E2004
:1032200073797374656D006C6973745F74696D652F
:1032300072006C6973742074696D657220696E2008
:1032400073797374656D006C697374006C69737461
:10325000206F626A656374730068656C7000525415
:103260002D546872656164207368656C6C206865B4
:103270006C702E007073004C6973742074687265F2
:1032800061647320696E2074686520737973746556
:103290006D2E00667265650053686F7720746865EF
:1032A000206D656D6F727920757361676520696E39
:1032B000207468652073797374656D2E0072656281
:1032C0006F6F74005265626F6F7420537973746509
:1032D0006D0000006E3500088B350008A035000831
:1032E00078350008B63500088035000891350008AB
:1032F000B03500088735000898350008713500089A
:10330000A8350008080068617264206661756C74F5
:10331000206F6E2068616E646C65720D0A0D0A0084
:1033200068617264206661756C74206F6E207468C9
:10333000726561643A2025730D0A0D0A000A205C4B
:10334000207C202F0A006D656D206D616E616765C0
:10335000206661756C743A0A007573616765206652
:1033600061756C743A0A00627573206661756C74DD
:103370003A0A005343422D3E424641523A253038E4
:10338000580A005343422D3E4D4D41523A253038A4
:10339000580A0055736167653A206C697374205B45
:1033A0006F7074696F6E735D0A00706572696F6427
:1033B00069630A006661696C656420766563746F91
:1033C000722066657463680A00252D2A2E732070AA
:1033D000726920207374617475732020202020206E
:1033E00073702020202020737461636B2073697ACE
:1033F00065206D61782075736564206C6566742046
:103400007469636B20206572726F720A0064656272
:103410007567206576656E740A006F6E6520736847
:103420006F740A007230303A203078253038780ACC
:10343000007230313A203078253038780A00723006
:10344000323A203078253038780A007230333A200A
:103450003078253038780A007230343A20307825B8
:103460003038780A007073723A2030782530387816
:103470000A0020696E69742020200020636C6F733D
:1034800065202000207265616479202000494E5635
:1034900050432000554E414C49474E454420004979
:1034A0004E56535441544520004441434356494FDE
:1034B0004C20004941434356494F4C200044495653
:1034C00042595A45524F20004E4F435020004D5311
:1034D000544B45525220004D554E53544B45525279
:1034E0002000494D5052454349534552522000490E
:1034F0004255534552522000554E444546494E537D
:10350000545220005343425F434653525F42465356
:10351000523A30782530325820005343425F4346B8
:1035200053525F4D4653523A30782530325820007E
:103530005343425F434653525F554653523A3078A5
:103540002530325820006465616374697661746562
:103550006420006D73682000252D2A2E2A732030E8
:1035600078253038782030782530387820004F4B57
:103570000045494E56414C0045525346554C4C006F
:10358000454E4F4D454D0045494F004552524F5213
:1035900000454E4F5359530045494E545250540024
:1035A0004554494D4F55540045554E4B4E4F5700CD
:1035B00045425553590045525345505459002563CF
:1035C00000746872656164002073757370656E6461
:1035D000002072756E6E696E67006D656D706F6F3D
:1035E0006C0074696D65720001300008F92F0008E5
:1035F000F52F000819130008FD2F00087A31000884
:1036000080310008491100089A310008A2310008F1
:1036100061300008C5310008D1310008411C0008A4
:10362000DD310008E6310008211B0008FF310008E9
:103630000C320008C919000827320008323200088D
:103640003D1E0008473200084C320008D91100081E
:10365000593200085E320008392000087432000830
:1036600077320008D512000893320008983200081B
:103670005D110008BD320008C43200084D22000868
:10368000A036000800000020600000005001000883
:103690000037000860000020A84600007001000804
:1036A00000127A000100000008000020080000203D
:1036B0007800000002000000180000201800002020
:1036C0002000000008000000280000202800002042
:1036D000340000000A0000003800002038000020FC
:1036E0002C0000000C0000004800002048000020D2
:1036F00028000000540000205400002000000000BA
:04000005080000ED02
:00000001FF
